000000000000120170310VIVO           RJ02943355121    CHOPP CONTROL AUDITORIA DE BEBIDAS      08453543000176 0294335512     032017    2017032820170307                                                                                                                                                                                                         
100000000000202943355121    032017    20170328201703070295608664               00000AREA - 021               21967001912 SMP Serviço Móvel Pessoal              LM-Linha Móvel            00000000000000002017020620170305MIN  0000000+0000000000000+000000000000025+0000000000175+0000000000000000001288069+0000000000700                                    
400000000000320170328201703070295608664               2100021967001912 LM-Linha Móvel 2017020621000                           0 00VIVO RJ                                000000      SUBServiços Contratados          SAFVIVO EMPRESAS FLEX ASSIN                +000000000010000000                                                                          
400000000000420170328201703070295608664               2100021967001912 LM-Linha Móvel 2017021521000                           0 00VIVO RJ                                000000      SUBServiços Contratados          SAFCONTA SEMIDETALHADA                     +000000000000000000                                                                          
400000000000520170328201703070295608664               2100021967001912 LM-Linha Móvel 2017020621000                           0 00VIVO RJ                                000000      SUBServiços Contratados          SAFSERVICO GESTAO                          +000000000000000000                                                                          
400000000000620170328201703070295608664               2100021967001912 LM-Linha Móvel 2017020621000                           0 00VIVO RJ                                000000      SUBServiços Contratados          SAFPAC 50 MIN FLEX COMP                    +000000000050000000                                                                          
400000000000720170328201703070295608664               2100021967001912 LM-Linha Móvel 2017020621000                           0 00VIVO RJ                                000000      SUBServiços Contratados          SAFPAC CORP LD ROAMING FLEX                +000000000000000000                                                                          
400000000000820170328201703070295608664               2100021967001912 LM-Linha Móvel 2017020621000                           0 00VIVO RJ                                000000      SUBServiços Contratados          SAFPACOTE GESTAO COMPLETO                  +000000000000000000                                                                          
400000000000920170328201703070295608664               2100021967001912 LM-Linha Móvel 2017020621000                           0 00VIVO RJ                                000000      SUBServiços Contratados          SAFINTRAGRUPO LOCAL 2.000 MINUTOS          +000000000010000000                                                                          
400000000001020170328201703070295608664               2100021967001912 LM-Linha Móvel 2017020621000                           0 00VIVO RJ                                000000      SUBServiços Contratados          SAFPACOTE LD 01                            +000000000000000000                                                                          
100000000001102943355121    032017    20170328201703070295608658               00000AREA - 021               21967002790 SMP Serviço Móvel Pessoal              LM-Linha Móvel            00000000000000002017020620170305MIN  0000000+0000000000000+000000000000025+0000000000175+0000000000000000001288069+0000000000700                                    
400000000001220170328201703070295608658               2100021967002790 LM-Linha Móvel 2017020621000                           0 00VIVO RJ                                000000      SUBServiços Contratados          SAFVIVO EMPRESAS FLEX ASSIN                +000000000010000000                                                                          
400000000001320170328201703070295608658               2100021967002790 LM-Linha Móvel 2017021521000                           0 00VIVO RJ                                000000      SUBServiços Contratados          SAFCONTA SEMIDETALHADA                     +000000000000000000                                                                          
400000000001420170328201703070295608658               2100021967002790 LM-Linha Móvel 2017020621000                           0 00VIVO RJ                                000000      SUBServiços Contratados          SAFSERVICO GESTAO                          +000000000000000000                                                                          
400000000001520170328201703070295608658               2100021967002790 LM-Linha Móvel 2017020621000                           0 00VIVO RJ                                000000      SUBServiços Contratados          SAFPAC 50 MIN FLEX COMP                    +000000000050000000                                                                          
400000000001620170328201703070295608658               2100021967002790 LM-Linha Móvel 2017020621000                           0 00VIVO RJ                                000000      SUBServiços Contratados          SAFPAC CORP LD ROAMING FLEX                +000000000000000000                                                                          
400000000001720170328201703070295608658               2100021967002790 LM-Linha Móvel 2017020621000                           0 00VIVO RJ                                000000      SUBServiços Contratados          SAFPACOTE GESTAO COMPLETO                  +000000000000000000                                                                          
400000000001820170328201703070295608658               2100021967002790 LM-Linha Móvel 2017020621000                           0 00VIVO RJ                                000000      SUBServiços Contratados          SAFINTRAGRUPO LOCAL 2.000 MINUTOS          +000000000010000000                                                                          
400000000001920170328201703070295608658               2100021967002790 LM-Linha Móvel 2017020621000                           0 00VIVO RJ                                000000      SUBServiços Contratados          SAFPACOTE LD 01                            +000000000000000000                                                                          
100000000002002943355121    032017    20170328201703070295608581               00000AREA - 021               21967024526 SMP Serviço Móvel Pessoal              LM-Linha Móvel            00000000000000002017020620170305MIN  0000000+0000000000000+000000000000025+0000000000798+0000000000000000001288069+0000000003190                                    
400000000002120170328201703070295608581               2100021967024526 LM-Linha Móvel 2017020621000                           0 00VIVO RJ                                000000      SUBServiços Contratados          SAFVIVO EMPRESAS FLEX ASSIN                +000000000010000000                                                                          
400000000002220170328201703070295608581               2100021967024526 LM-Linha Móvel 2017021521000                           0 00VIVO RJ                                000000      SUBServiços Contratados          SAFCONTA SEMIDETALHADA                     +000000000000000000                                                                          
400000000002320170328201703070295608581               2100021967024526 LM-Linha Móvel 2017020621000                           0 00VIVO RJ                                000000      SUBServiços Contratados          SAFSERVICO GESTAO                          +000000000000000000                                                                          
400000000002420170328201703070295608581               2100021967024526 LM-Linha Móvel 2017020621000                           0 00VIVO RJ                                000000      SUBServiços Contratados          SAFPAC 100 MIN FLEX COMP                   +000000000100000000                                                                          
400000000002520170328201703070295608581               2100021967024526 LM-Linha Móvel 2017020621000                           0 00VIVO RJ                                000000      SUBServiços Contratados          SAFPAC CORP LD ROAMING FLEX                +000000000000000000                                                                          
400000000002620170328201703070295608581               2100021967024526 LM-Linha Móvel 2017020621000                           0 00VIVO RJ                                000000      SUBServiços Contratados          SAFPACOTE GESTAO COMPLETO                  +000000000000000000                                                                          
400000000002720170328201703070295608581               2100021967024526 LM-Linha Móvel 2017020621000                           0 00VIVO RJ                                000000      SUBServiços Contratados          SAFINTRAGRUPO LOCAL 2.000 MINUTOS          +000000000010000000                                                                          
400000000002820170328201703070295608581               2100021967024526 LM-Linha Móvel 2017020621000                           0 00VIVO RJ                                000000      SUBServiços Contratados          SAFPACOTE LD 01                            +000000000000000000                                                                          
400000000002920170328201703070295608581               2100021967024526 LM-Linha Móvel 2017020621000                           0 00VIVO RJ                                000000      SUBServiços Contratados          SAFINTERNET MOVEL 3GB EMP 4G               +000000000849000000                                                                          
500000000003020170328201703070295608581               02943355121    032017    2100021967024526 CREDESC 12 MESES INTERNET R$ 65 - 21-96702-4526                                    -0000000000000000000000000006500201702130000002017022700000000000                                                                                                          
100000000003102943355121    032017    20170328201703070295608700               00000AREA - 021               21967027524 SMP Serviço Móvel Pessoal              LM-Linha Móvel            00000000000000002017020620170305MIN  0000000+0000000000000+000000000000025+0000000000175+0000000000000000001288069+0000000000700                                    
400000000003220170328201703070295608700               2100021967027524 LM-Linha Móvel 2017020621000                           0 00VIVO RJ                                000000      SUBServiços Contratados          SAFVIVO EMPRESAS FLEX ASSIN                +000000000010000000                                                                          
400000000003320170328201703070295608700               2100021967027524 LM-Linha Móvel 2017021521000                           0 00VIVO RJ                                000000      SUBServiços Contratados          SAFCONTA SEMIDETALHADA                     +000000000000000000                                                                          
400000000003420170328201703070295608700               2100021967027524 LM-Linha Móvel 2017020621000                           0 00VIVO RJ                                000000      SUBServiços Contratados          SAFSERVICO GESTAO                          +000000000000000000                                                                          
400000000003520170328201703070295608700               2100021967027524 LM-Linha Móvel 2017020621000                           0 00VIVO RJ                                000000      SUBServiços Contratados          SAFPAC 50 MIN FLEX COMP                    +000000000050000000                                                                          
400000000003620170328201703070295608700               2100021967027524 LM-Linha Móvel 2017020621000                           0 00VIVO RJ                                000000      SUBServiços Contratados          SAFPAC CORP LD ROAMING FLEX                +000000000000000000                                                                          
400000000003720170328201703070295608700               2100021967027524 LM-Linha Móvel 2017020621000                           0 00VIVO RJ                                000000      SUBServiços Contratados          SAFPACOTE GESTAO COMPLETO                  +000000000000000000                                                                          
400000000003820170328201703070295608700               2100021967027524 LM-Linha Móvel 2017020621000                           0 00VIVO RJ                                000000      SUBServiços Contratados          SAFINTRAGRUPO LOCAL 2.000 MINUTOS          +000000000010000000                                                                          
400000000003920170328201703070295608700               2100021967027524 LM-Linha Móvel 2017020621000                           0 00VIVO RJ                                000000      SUBServiços Contratados          SAFPACOTE LD 01                            +000000000000000000                                                                          
100000000004002943355121    032017    20170328201703070295608624               00000AREA - 021               21967084489 SMP Serviço Móvel Pessoal              LM-Linha Móvel            00000000000000002017020620170305MIN  0000000+0000000000000+000000000000025+0000000000175+0000000000000000001288069+0000000000700                                    
400000000004120170328201703070295608624               2100021967084489 LM-Linha Móvel 2017020621000                           0 00VIVO RJ                                000000      SUBServiços Contratados          SAFVIVO EMPRESAS FLEX ASSIN                +000000000010000000                                                                          
400000000004220170328201703070295608624               2100021967084489 LM-Linha Móvel 2017021521000                           0 00VIVO RJ                                000000      SUBServiços Contratados          SAFCONTA SEMIDETALHADA                     +000000000000000000                                                                          
400000000004320170328201703070295608624               2100021967084489 LM-Linha Móvel 2017020621000                           0 00VIVO RJ                                000000      SUBServiços Contratados          SAFSERVICO GESTAO                          +000000000000000000                                                                          
400000000004420170328201703070295608624               2100021967084489 LM-Linha Móvel 2017020621000                           0 00VIVO RJ                                000000      SUBServiços Contratados          SAFPAC 50 MIN FLEX COMP                    +000000000050000000                                                                          
400000000004520170328201703070295608624               2100021967084489 LM-Linha Móvel 2017020621000                           0 00VIVO RJ                                000000      SUBServiços Contratados          SAFPAC CORP LD ROAMING FLEX                +000000000000000000                                                                          
400000000004620170328201703070295608624               2100021967084489 LM-Linha Móvel 2017020621000                           0 00VIVO RJ                                000000      SUBServiços Contratados          SAFPACOTE GESTAO COMPLETO                  +000000000000000000                                                                          
400000000004720170328201703070295608624               2100021967084489 LM-Linha Móvel 2017020621000                           0 00VIVO RJ                                000000      SUBServiços Contratados          SAFINTRAGRUPO LOCAL 2.000 MINUTOS          +000000000010000000                                                                          
400000000004820170328201703070295608624               2100021967084489 LM-Linha Móvel 2017020621000                           0 00VIVO RJ                                000000      SUBServiços Contratados          SAFPACOTE LD 01                            +000000000000000000                                                                          
100000000004902943355121    032017    20170328201703070295608574               00000AREA - 021               21967121724 SMP Serviço Móvel Pessoal              LM-Linha Móvel            00000000000000002017020620170305MIN  0000000+0000000000000+000000000000025+0000000000673+0000000000000000001288069+0000000002690                                    
400000000005020170328201703070295608574               2100021967121724 LM-Linha Móvel 2017020621000                           0 00VIVO RJ                                000000      SUBServiços Contratados          SAFVIVO EMPRESAS FLEX ASSIN                +000000000010000000                                                                          
400000000005120170328201703070295608574               2100021967121724 LM-Linha Móvel 2017021521000                           0 00VIVO RJ                                000000      SUBServiços Contratados          SAFCONTA SEMIDETALHADA                     +000000000000000000                                                                          
400000000005220170328201703070295608574               2100021967121724 LM-Linha Móvel 2017020621000                           0 00VIVO RJ                                000000      SUBServiços Contratados          SAFSERVICO GESTAO                          +000000000000000000                                                                          
400000000005320170328201703070295608574               2100021967121724 LM-Linha Móvel 2017020621000                           0 00VIVO RJ                                000000      SUBServiços Contratados          SAFPAC 100 MIN FLEX COMP                   +000000000100000000                                                                          
400000000005420170328201703070295608574               2100021967121724 LM-Linha Móvel 2017020621000                           0 00VIVO RJ                                000000      SUBServiços Contratados          SAFPAC CORP LD ROAMING FLEX                +000000000000000000                                                                          
400000000005520170328201703070295608574               2100021967121724 LM-Linha Móvel 2017020621000                           0 00VIVO RJ                                000000      SUBServiços Contratados          SAFPACOTE GESTAO COMPLETO                  +000000000000000000                                                                          
400000000005620170328201703070295608574               2100021967121724 LM-Linha Móvel 2017020621000                           0 00VIVO RJ                                000000      SUBServiços Contratados          SAFINTRAGRUPO LOCAL 2.000 MINUTOS          +000000000010000000                                                                          
400000000005720170328201703070295608574               2100021967121724 LM-Linha Móvel 2017020621000                           0 00VIVO RJ                                000000      SUBServiços Contratados          SAFPACOTE LD 01                            +000000000000000000                                                                          
400000000005820170328201703070295608574               2100021967121724 LM-Linha Móvel 2017020621000                           0 00VIVO RJ                                000000      SUBServiços Contratados          SAFINTERNET MOVEL 1GB EMP 4G               +000000000699000000                                                                          
500000000005920170328201703070295608574               02943355121    032017    2100021967121724 CREDESCONTO 12MESES INTERNET R$55 - 21-96712-1724                                  -0000000000000000000000000005500201702130000002017022700000000000                                                                                                          
100000000006002943355121    032017    20170328201703070295608888               00000AREA - 021               21967125820 SMP Serviço Móvel Pessoal              LM-Linha Móvel            00000000000000002017020620170305MIN  0000000+0000000000000+000000000000025+0000000000175+0000000000000000001288069+0000000000700                                    
400000000006120170328201703070295608888               2100021967125820 LM-Linha Móvel 2017020621000                           0 00VIVO RJ                                000000      SUBServiços Contratados          SAFVIVO EMPRESAS FLEX ASSIN                +000000000010000000                                                                          
400000000006220170328201703070295608888               2100021967125820 LM-Linha Móvel 2017021521000                           0 00VIVO RJ                                000000      SUBServiços Contratados          SAFCONTA SEMIDETALHADA                     +000000000000000000                                                                          
400000000006320170328201703070295608888               2100021967125820 LM-Linha Móvel 2017020621000                           0 00VIVO RJ                                000000      SUBServiços Contratados          SAFSERVICO GESTAO                          +000000000000000000                                                                          
400000000006420170328201703070295608888               2100021967125820 LM-Linha Móvel 2017020621000                           0 00VIVO RJ                                000000      SUBServiços Contratados          SAFPAC 50 MIN FLEX COMP                    +000000000050000000                                                                          
400000000006520170328201703070295608888               2100021967125820 LM-Linha Móvel 2017020621000                           0 00VIVO RJ                                000000      SUBServiços Contratados          SAFPAC CORP LD ROAMING FLEX                +000000000000000000                                                                          
400000000006620170328201703070295608888               2100021967125820 LM-Linha Móvel 2017020621000                           0 00VIVO RJ                                000000      SUBServiços Contratados          SAFPACOTE GESTAO COMPLETO                  +000000000000000000                                                                          
400000000006720170328201703070295608888               2100021967125820 LM-Linha Móvel 2017020621000                           0 00VIVO RJ                                000000      SUBServiços Contratados          SAFINTRAGRUPO LOCAL 2.000 MINUTOS          +000000000010000000                                                                          
400000000006820170328201703070295608888               2100021967125820 LM-Linha Móvel 2017020621000                           0 00VIVO RJ                                000000      SUBServiços Contratados          SAFPACOTE LD 01                            +000000000000000000                                                                          
100000000006902943355121    032017    20170328201703070295608556               00000AREA - 021               21967150942 SMP Serviço Móvel Pessoal              LM-Linha Móvel            00000000000000002017020620170305MIN  0000000+0000000000000+000000000000025+0000000000673+0000000000000000001288069+0000000002690                                    
400000000007020170328201703070295608556               2100021967150942 LM-Linha Móvel 2017020621000                           0 00VIVO RJ                                000000      SUBServiços Contratados          SAFVIVO EMPRESAS FLEX ASSIN                +000000000010000000                                                                          
400000000007120170328201703070295608556               2100021967150942 LM-Linha Móvel 2017021521000                           0 00VIVO RJ                                000000      SUBServiços Contratados          SAFCONTA SEMIDETALHADA                     +000000000000000000                                                                          
400000000007220170328201703070295608556               2100021967150942 LM-Linha Móvel 2017020621000                           0 00VIVO RJ                                000000      SUBServiços Contratados          SAFSERVICO GESTAO                          +000000000000000000                                                                          
400000000007320170328201703070295608556               2100021967150942 LM-Linha Móvel 2017020621000                           0 00VIVO RJ                                000000      SUBServiços Contratados          SAFPAC 100 MIN FLEX COMP                   +000000000100000000                                                                          
400000000007420170328201703070295608556               2100021967150942 LM-Linha Móvel 2017020621000                           0 00VIVO RJ                                000000      SUBServiços Contratados          SAFPAC CORP LD ROAMING FLEX                +000000000000000000                                                                          
400000000007520170328201703070295608556               2100021967150942 LM-Linha Móvel 2017020621000                           0 00VIVO RJ                                000000      SUBServiços Contratados          SAFPACOTE GESTAO COMPLETO                  +000000000000000000                                                                          
400000000007620170328201703070295608556               2100021967150942 LM-Linha Móvel 2017020621000                           0 00VIVO RJ                                000000      SUBServiços Contratados          SAFINTRAGRUPO LOCAL 2.000 MINUTOS          +000000000010000000                                                                          
400000000007720170328201703070295608556               2100021967150942 LM-Linha Móvel 2017020621000                           0 00VIVO RJ                                000000      SUBServiços Contratados          SAFPACOTE LD 01                            +000000000000000000                                                                          
400000000007820170328201703070295608556               2100021967150942 LM-Linha Móvel 2017020621000                           0 00VIVO RJ                                000000      SUBServiços Contratados          SAFINTERNET MOVEL 1GB EMP 4G               +000000000699000000                                                                          
500000000007920170328201703070295608556               02943355121    032017    2100021967150942 CREDESCONTO 12MESES INTERNET R$55 - 21-96715-0942                                  -0000000000000000000000000005500201702130000002017022700000000000                                                                                                          
100000000008002943355121    032017    20170328201703070295608746               00000AREA - 021               21967212664 SMP Serviço Móvel Pessoal              LM-Linha Móvel            00000000000000002017020620170305MIN  0000000+0000000000000+000000000000025+0000000000175+0000000000000000001288069+0000000000700                                    
400000000008120170328201703070295608746               2100021967212664 LM-Linha Móvel 2017020621000                           0 00VIVO RJ                                000000      SUBServiços Contratados          SAFVIVO EMPRESAS FLEX ASSIN                +000000000010000000                                                                          
400000000008220170328201703070295608746               2100021967212664 LM-Linha Móvel 2017021521000                           0 00VIVO RJ                                000000      SUBServiços Contratados          SAFCONTA SEMIDETALHADA                     +000000000000000000                                                                          
400000000008320170328201703070295608746               2100021967212664 LM-Linha Móvel 2017020621000                           0 00VIVO RJ                                000000      SUBServiços Contratados          SAFSERVICO GESTAO                          +000000000000000000                                                                          
400000000008420170328201703070295608746               2100021967212664 LM-Linha Móvel 2017020621000                           0 00VIVO RJ                                000000      SUBServiços Contratados          SAFPAC 50 MIN FLEX COMP                    +000000000050000000                                                                          
400000000008520170328201703070295608746               2100021967212664 LM-Linha Móvel 2017020621000                           0 00VIVO RJ                                000000      SUBServiços Contratados          SAFPAC CORP LD ROAMING FLEX                +000000000000000000                                                                          
400000000008620170328201703070295608746               2100021967212664 LM-Linha Móvel 2017020621000                           0 00VIVO RJ                                000000      SUBServiços Contratados          SAFPACOTE GESTAO COMPLETO                  +000000000000000000                                                                          
400000000008720170328201703070295608746               2100021967212664 LM-Linha Móvel 2017020621000                           0 00VIVO RJ                                000000      SUBServiços Contratados          SAFINTRAGRUPO LOCAL 2.000 MINUTOS          +000000000010000000                                                                          
400000000008820170328201703070295608746               2100021967212664 LM-Linha Móvel 2017020621000                           0 00VIVO RJ                                000000      SUBServiços Contratados          SAFPACOTE LD 01                            +000000000000000000                                                                          
100000000008902943355121    032017    20170328201703070295608507               00000AREA - 021               21967237614 SMP Serviço Móvel Pessoal              LM-Linha Móvel            00000000000000002017020620170305MIN  0000000+0000000000000+000000000000025+0000000000175+0000000000000000001288069+0000000000700                                    
400000000009020170328201703070295608507               2100021967237614 LM-Linha Móvel 2017020621000                           0 00VIVO RJ                                000000      SUBServiços Contratados          SAFVIVO EMPRESAS FLEX ASSIN                +000000000010000000                                                                          
400000000009120170328201703070295608507               2100021967237614 LM-Linha Móvel 2017021521000                           0 00VIVO RJ                                000000      SUBServiços Contratados          SAFCONTA SEMIDETALHADA                     +000000000000000000                                                                          
400000000009220170328201703070295608507               2100021967237614 LM-Linha Móvel 2017020621000                           0 00VIVO RJ                                000000      SUBServiços Contratados          SAFSERVICO GESTAO                          +000000000000000000                                                                          
400000000009320170328201703070295608507               2100021967237614 LM-Linha Móvel 2017020621000                           0 00VIVO RJ                                000000      SUBServiços Contratados          SAFPAC 50 MIN FLEX COMP                    +000000000050000000                                                                          
400000000009420170328201703070295608507               2100021967237614 LM-Linha Móvel 2017020621000                           0 00VIVO RJ                                000000      SUBServiços Contratados          SAFPAC CORP LD ROAMING FLEX                +000000000000000000                                                                          
400000000009520170328201703070295608507               2100021967237614 LM-Linha Móvel 2017020621000                           0 00VIVO RJ                                000000      SUBServiços Contratados          SAFPACOTE GESTAO COMPLETO                  +000000000000000000                                                                          
400000000009620170328201703070295608507               2100021967237614 LM-Linha Móvel 2017020621000                           0 00VIVO RJ                                000000      SUBServiços Contratados          SAFINTRAGRUPO LOCAL 2.000 MINUTOS          +000000000010000000                                                                          
400000000009720170328201703070295608507               2100021967237614 LM-Linha Móvel 2017020621000                           0 00VIVO RJ                                000000      SUBServiços Contratados          SAFPACOTE LD 01                            +000000000000000000                                                                          
100000000009802943355121    032017    20170328201703070295608682               00000AREA - 021               21967261180 SMP Serviço Móvel Pessoal              LM-Linha Móvel            00000000000000002017020620170305MIN  0000000+0000000000000+000000000000025+0000000000175+0000000000000000001288069+0000000000700                                    
400000000009920170328201703070295608682               2100021967261180 LM-Linha Móvel 2017020621000                           0 00VIVO RJ                                000000      SUBServiços Contratados          SAFVIVO EMPRESAS FLEX ASSIN                +000000000010000000                                                                          
400000000010020170328201703070295608682               2100021967261180 LM-Linha Móvel 2017021521000                           0 00VIVO RJ                                000000      SUBServiços Contratados          SAFCONTA SEMIDETALHADA                     +000000000000000000                                                                          
400000000010120170328201703070295608682               2100021967261180 LM-Linha Móvel 2017020621000                           0 00VIVO RJ                                000000      SUBServiços Contratados          SAFSERVICO GESTAO                          +000000000000000000                                                                          
400000000010220170328201703070295608682               2100021967261180 LM-Linha Móvel 2017020621000                           0 00VIVO RJ                                000000      SUBServiços Contratados          SAFPAC 50 MIN FLEX COMP                    +000000000050000000                                                                          
400000000010320170328201703070295608682               2100021967261180 LM-Linha Móvel 2017020621000                           0 00VIVO RJ                                000000      SUBServiços Contratados          SAFPAC CORP LD ROAMING FLEX                +000000000000000000                                                                          
400000000010420170328201703070295608682               2100021967261180 LM-Linha Móvel 2017020621000                           0 00VIVO RJ                                000000      SUBServiços Contratados          SAFPACOTE GESTAO COMPLETO                  +000000000000000000                                                                          
400000000010520170328201703070295608682               2100021967261180 LM-Linha Móvel 2017020621000                           0 00VIVO RJ                                000000      SUBServiços Contratados          SAFINTRAGRUPO LOCAL 2.000 MINUTOS          +000000000010000000                                                                          
400000000010620170328201703070295608682               2100021967261180 LM-Linha Móvel 2017020621000                           0 00VIVO RJ                                000000      SUBServiços Contratados          SAFPACOTE LD 01                            +000000000000000000                                                                          
100000000010702943355121    032017    20170328201703070295608694               00000AREA - 021               21967265463 SMP Serviço Móvel Pessoal              LM-Linha Móvel            00000000000000002017020620170305MIN  0000000+0000000000000+000000000000025+0000000000175+0000000000000000001288069+0000000000700                                    
400000000010820170328201703070295608694               2100021967265463 LM-Linha Móvel 2017020621000                           0 00VIVO RJ                                000000      SUBServiços Contratados          SAFVIVO EMPRESAS FLEX ASSIN                +000000000010000000                                                                          
400000000010920170328201703070295608694               2100021967265463 LM-Linha Móvel 2017021521000                           0 00VIVO RJ                                000000      SUBServiços Contratados          SAFCONTA SEMIDETALHADA                     +000000000000000000                                                                          
400000000011020170328201703070295608694               2100021967265463 LM-Linha Móvel 2017020621000                           0 00VIVO RJ                                000000      SUBServiços Contratados          SAFSERVICO GESTAO                          +000000000000000000                                                                          
400000000011120170328201703070295608694               2100021967265463 LM-Linha Móvel 2017020621000                           0 00VIVO RJ                                000000      SUBServiços Contratados          SAFPAC 50 MIN FLEX COMP                    +000000000050000000                                                                          
400000000011220170328201703070295608694               2100021967265463 LM-Linha Móvel 2017020621000                           0 00VIVO RJ                                000000      SUBServiços Contratados          SAFPAC CORP LD ROAMING FLEX                +000000000000000000                                                                          
400000000011320170328201703070295608694               2100021967265463 LM-Linha Móvel 2017020621000                           0 00VIVO RJ                                000000      SUBServiços Contratados          SAFPACOTE GESTAO COMPLETO                  +000000000000000000                                                                          
400000000011420170328201703070295608694               2100021967265463 LM-Linha Móvel 2017020621000                           0 00VIVO RJ                                000000      SUBServiços Contratados          SAFINTRAGRUPO LOCAL 2.000 MINUTOS          +000000000010000000                                                                          
400000000011520170328201703070295608694               2100021967265463 LM-Linha Móvel 2017020621000                           0 00VIVO RJ                                000000      SUBServiços Contratados          SAFPACOTE LD 01                            +000000000000000000                                                                          
100000000011602943355121    032017    20170328201703070295608869               00000AREA - 021               21967316528 SMP Serviço Móvel Pessoal              LM-Linha Móvel            00000000000000002017020620170305MIN  0000000+0000000000000+000000000000025+0000000000175+0000000000000000001288069+0000000000700                                    
400000000011720170328201703070295608869               2100021967316528 LM-Linha Móvel 2017020621000                           0 00VIVO RJ                                000000      SUBServiços Contratados          SAFVIVO EMPRESAS FLEX ASSIN                +000000000010000000                                                                          
400000000011820170328201703070295608869               2100021967316528 LM-Linha Móvel 2017021521000                           0 00VIVO RJ                                000000      SUBServiços Contratados          SAFCONTA SEMIDETALHADA                     +000000000000000000                                                                          
400000000011920170328201703070295608869               2100021967316528 LM-Linha Móvel 2017020621000                           0 00VIVO RJ                                000000      SUBServiços Contratados          SAFSERVICO GESTAO                          +000000000000000000                                                                          
400000000012020170328201703070295608869               2100021967316528 LM-Linha Móvel 2017020621000                           0 00VIVO RJ                                000000      SUBServiços Contratados          SAFPAC 50 MIN FLEX COMP                    +000000000050000000                                                                          
400000000012120170328201703070295608869               2100021967316528 LM-Linha Móvel 2017020621000                           0 00VIVO RJ                                000000      SUBServiços Contratados          SAFPAC CORP LD ROAMING FLEX                +000000000000000000                                                                          
400000000012220170328201703070295608869               2100021967316528 LM-Linha Móvel 2017020621000                           0 00VIVO RJ                                000000      SUBServiços Contratados          SAFPACOTE GESTAO COMPLETO                  +000000000000000000                                                                          
400000000012320170328201703070295608869               2100021967316528 LM-Linha Móvel 2017020621000                           0 00VIVO RJ                                000000      SUBServiços Contratados          SAFINTRAGRUPO LOCAL 2.000 MINUTOS          +000000000010000000                                                                          
400000000012420170328201703070295608869               2100021967316528 LM-Linha Móvel 2017020621000                           0 00VIVO RJ                                000000      SUBServiços Contratados          SAFPACOTE LD 01                            +000000000000000000                                                                          
100000000012502943355121    032017    20170328201703070295608792               00000AREA - 021               21967354360 SMP Serviço Móvel Pessoal              LM-Linha Móvel            00000000000000002017020620170305MIN  0000000+0000000000000+000000000000025+0000000000175+0000000000000000001288069+0000000000700                                    
400000000012620170328201703070295608792               2100021967354360 LM-Linha Móvel 2017020621000                           0 00VIVO RJ                                000000      SUBServiços Contratados          SAFVIVO EMPRESAS FLEX ASSIN                +000000000010000000                                                                          
400000000012720170328201703070295608792               2100021967354360 LM-Linha Móvel 2017021521000                           0 00VIVO RJ                                000000      SUBServiços Contratados          SAFCONTA SEMIDETALHADA                     +000000000000000000                                                                          
400000000012820170328201703070295608792               2100021967354360 LM-Linha Móvel 2017020621000                           0 00VIVO RJ                                000000      SUBServiços Contratados          SAFSERVICO GESTAO                          +000000000000000000                                                                          
400000000012920170328201703070295608792               2100021967354360 LM-Linha Móvel 2017020621000                           0 00VIVO RJ                                000000      SUBServiços Contratados          SAFPAC 50 MIN FLEX COMP                    +000000000050000000                                                                          
400000000013020170328201703070295608792               2100021967354360 LM-Linha Móvel 2017020621000                           0 00VIVO RJ                                000000      SUBServiços Contratados          SAFPAC CORP LD ROAMING FLEX                +000000000000000000                                                                          
400000000013120170328201703070295608792               2100021967354360 LM-Linha Móvel 2017020621000                           0 00VIVO RJ                                000000      SUBServiços Contratados          SAFPACOTE GESTAO COMPLETO                  +000000000000000000                                                                          
400000000013220170328201703070295608792               2100021967354360 LM-Linha Móvel 2017020621000                           0 00VIVO RJ                                000000      SUBServiços Contratados          SAFINTRAGRUPO LOCAL 2.000 MINUTOS          +000000000010000000                                                                          
400000000013320170328201703070295608792               2100021967354360 LM-Linha Móvel 2017020621000                           0 00VIVO RJ                                000000      SUBServiços Contratados          SAFPACOTE LD 01                            +000000000000000000                                                                          
100000000013402943355121    032017    20170328201703070295608552               00000AREA - 021               21967387138 SMP Serviço Móvel Pessoal              LM-Linha Móvel            00000000000000002017020620170305MIN  0000000+0000000000000+000000000000025+0000000000673+0000000000000000001288069+0000000002690                                    
400000000013520170328201703070295608552               2100021967387138 LM-Linha Móvel 2017020621000                           0 00VIVO RJ                                000000      SUBServiços Contratados          SAFVIVO EMPRESAS FLEX ASSIN                +000000000010000000                                                                          
400000000013620170328201703070295608552               2100021967387138 LM-Linha Móvel 2017021521000                           0 00VIVO RJ                                000000      SUBServiços Contratados          SAFCONTA SEMIDETALHADA                     +000000000000000000                                                                          
400000000013720170328201703070295608552               2100021967387138 LM-Linha Móvel 2017020621000                           0 00VIVO RJ                                000000      SUBServiços Contratados          SAFSERVICO GESTAO                          +000000000000000000                                                                          
400000000013820170328201703070295608552               2100021967387138 LM-Linha Móvel 2017020621000                           0 00VIVO RJ                                000000      SUBServiços Contratados          SAFPAC 100 MIN FLEX COMP                   +000000000100000000                                                                          
400000000013920170328201703070295608552               2100021967387138 LM-Linha Móvel 2017020621000                           0 00VIVO RJ                                000000      SUBServiços Contratados          SAFPAC CORP LD ROAMING FLEX                +000000000000000000                                                                          
400000000014020170328201703070295608552               2100021967387138 LM-Linha Móvel 2017020621000                           0 00VIVO RJ                                000000      SUBServiços Contratados          SAFPACOTE GESTAO COMPLETO                  +000000000000000000                                                                          
400000000014120170328201703070295608552               2100021967387138 LM-Linha Móvel 2017020621000                           0 00VIVO RJ                                000000      SUBServiços Contratados          SAFINTRAGRUPO LOCAL 2.000 MINUTOS          +000000000010000000                                                                          
400000000014220170328201703070295608552               2100021967387138 LM-Linha Móvel 2017020621000                           0 00VIVO RJ                                000000      SUBServiços Contratados          SAFPACOTE LD 01                            +000000000000000000                                                                          
400000000014320170328201703070295608552               2100021967387138 LM-Linha Móvel 2017020621000                           0 00VIVO RJ                                000000      SUBServiços Contratados          SAFINTERNET MOVEL 1GB EMP 4G               +000000000699000000                                                                          
500000000014420170328201703070295608552               02943355121    032017    2100021967387138 CREDESCONTO 12MESES INTERNET R$55 - 21-96738-7138                                  -0000000000000000000000000005500201702130000002017022700000000000                                                                                                          
100000000014502943355121    032017    20170328201703070295608656               00000AREA - 021               21967390783 SMP Serviço Móvel Pessoal              LM-Linha Móvel            00000000000000002017020620170305MIN  0000000+0000000000000+000000000000025+0000000000175+0000000000000000001288069+0000000000700                                    
400000000014620170328201703070295608656               2100021967390783 LM-Linha Móvel 2017020621000                           0 00VIVO RJ                                000000      SUBServiços Contratados          SAFVIVO EMPRESAS FLEX ASSIN                +000000000010000000                                                                          
400000000014720170328201703070295608656               2100021967390783 LM-Linha Móvel 2017021521000                           0 00VIVO RJ                                000000      SUBServiços Contratados          SAFCONTA SEMIDETALHADA                     +000000000000000000                                                                          
400000000014820170328201703070295608656               2100021967390783 LM-Linha Móvel 2017020621000                           0 00VIVO RJ                                000000      SUBServiços Contratados          SAFSERVICO GESTAO                          +000000000000000000                                                                          
400000000014920170328201703070295608656               2100021967390783 LM-Linha Móvel 2017020621000                           0 00VIVO RJ                                000000      SUBServiços Contratados          SAFPAC 50 MIN FLEX COMP                    +000000000050000000                                                                          
400000000015020170328201703070295608656               2100021967390783 LM-Linha Móvel 2017020621000                           0 00VIVO RJ                                000000      SUBServiços Contratados          SAFPAC CORP LD ROAMING FLEX                +000000000000000000                                                                          
400000000015120170328201703070295608656               2100021967390783 LM-Linha Móvel 2017020621000                           0 00VIVO RJ                                000000      SUBServiços Contratados          SAFPACOTE GESTAO COMPLETO                  +000000000000000000                                                                          
400000000015220170328201703070295608656               2100021967390783 LM-Linha Móvel 2017020621000                           0 00VIVO RJ                                000000      SUBServiços Contratados          SAFINTRAGRUPO LOCAL 2.000 MINUTOS          +000000000010000000                                                                          
400000000015320170328201703070295608656               2100021967390783 LM-Linha Móvel 2017020621000                           0 00VIVO RJ                                000000      SUBServiços Contratados          SAFPACOTE LD 01                            +000000000000000000                                                                          
100000000015402943355121    032017    20170328201703070295608868               00000AREA - 021               21967395801 SMP Serviço Móvel Pessoal              LM-Linha Móvel            00000000000000002017020620170305MIN  0000000+0000000000000+000000000000025+0000000000175+0000000000000000001288069+0000000000700                                    
400000000015520170328201703070295608868               2100021967395801 LM-Linha Móvel 2017020621000                           0 00VIVO RJ                                000000      SUBServiços Contratados          SAFVIVO EMPRESAS FLEX ASSIN                +000000000010000000                                                                          
400000000015620170328201703070295608868               2100021967395801 LM-Linha Móvel 2017021521000                           0 00VIVO RJ                                000000      SUBServiços Contratados          SAFCONTA SEMIDETALHADA                     +000000000000000000                                                                          
400000000015720170328201703070295608868               2100021967395801 LM-Linha Móvel 2017020621000                           0 00VIVO RJ                                000000      SUBServiços Contratados          SAFSERVICO GESTAO                          +000000000000000000                                                                          
400000000015820170328201703070295608868               2100021967395801 LM-Linha Móvel 2017020621000                           0 00VIVO RJ                                000000      SUBServiços Contratados          SAFPAC 50 MIN FLEX COMP                    +000000000050000000                                                                          
400000000015920170328201703070295608868               2100021967395801 LM-Linha Móvel 2017020621000                           0 00VIVO RJ                                000000      SUBServiços Contratados          SAFPAC CORP LD ROAMING FLEX                +000000000000000000                                                                          
400000000016020170328201703070295608868               2100021967395801 LM-Linha Móvel 2017020621000                           0 00VIVO RJ                                000000      SUBServiços Contratados          SAFPACOTE GESTAO COMPLETO                  +000000000000000000                                                                          
400000000016120170328201703070295608868               2100021967395801 LM-Linha Móvel 2017020621000                           0 00VIVO RJ                                000000      SUBServiços Contratados          SAFINTRAGRUPO LOCAL 2.000 MINUTOS          +000000000010000000                                                                          
400000000016220170328201703070295608868               2100021967395801 LM-Linha Móvel 2017020621000                           0 00VIVO RJ                                000000      SUBServiços Contratados          SAFPACOTE LD 01                            +000000000000000000                                                                          
100000000016302943355121    032017    20170328201703070295608748               00000AREA - 021               21967398305 SMP Serviço Móvel Pessoal              LM-Linha Móvel            00000000000000002017020620170305MIN  0000000+0000000000000+000000000000025+0000000000175+0000000000000000001288069+0000000000700                                    
400000000016420170328201703070295608748               2100021967398305 LM-Linha Móvel 2017020621000                           0 00VIVO RJ                                000000      SUBServiços Contratados          SAFVIVO EMPRESAS FLEX ASSIN                +000000000010000000                                                                          
400000000016520170328201703070295608748               2100021967398305 LM-Linha Móvel 2017021521000                           0 00VIVO RJ                                000000      SUBServiços Contratados          SAFCONTA SEMIDETALHADA                     +000000000000000000                                                                          
400000000016620170328201703070295608748               2100021967398305 LM-Linha Móvel 2017020621000                           0 00VIVO RJ                                000000      SUBServiços Contratados          SAFSERVICO GESTAO                          +000000000000000000                                                                          
400000000016720170328201703070295608748               2100021967398305 LM-Linha Móvel 2017020621000                           0 00VIVO RJ                                000000      SUBServiços Contratados          SAFPAC 50 MIN FLEX COMP                    +000000000050000000                                                                          
400000000016820170328201703070295608748               2100021967398305 LM-Linha Móvel 2017020621000                           0 00VIVO RJ                                000000      SUBServiços Contratados          SAFPAC CORP LD ROAMING FLEX                +000000000000000000                                                                          
400000000016920170328201703070295608748               2100021967398305 LM-Linha Móvel 2017020621000                           0 00VIVO RJ                                000000      SUBServiços Contratados          SAFPACOTE GESTAO COMPLETO                  +000000000000000000                                                                          
400000000017020170328201703070295608748               2100021967398305 LM-Linha Móvel 2017020621000                           0 00VIVO RJ                                000000      SUBServiços Contratados          SAFINTRAGRUPO LOCAL 2.000 MINUTOS          +000000000010000000                                                                          
400000000017120170328201703070295608748               2100021967398305 LM-Linha Móvel 2017020621000                           0 00VIVO RJ                                000000      SUBServiços Contratados          SAFPACOTE LD 01                            +000000000000000000                                                                          
100000000017202943355121    032017    20170328201703070295608622               00000AREA - 021               21967447892 SMP Serviço Móvel Pessoal              LM-Linha Móvel            00000000000000002017020620170305MIN  0000000+0000000000000+000000000000025+0000000000175+0000000000000000001288069+0000000000700                                    
400000000017320170328201703070295608622               2100021967447892 LM-Linha Móvel 2017020621000                           0 00VIVO RJ                                000000      SUBServiços Contratados          SAFVIVO EMPRESAS FLEX ASSIN                +000000000010000000                                                                          
400000000017420170328201703070295608622               2100021967447892 LM-Linha Móvel 2017021521000                           0 00VIVO RJ                                000000      SUBServiços Contratados          SAFCONTA SEMIDETALHADA                     +000000000000000000                                                                          
400000000017520170328201703070295608622               2100021967447892 LM-Linha Móvel 2017020621000                           0 00VIVO RJ                                000000      SUBServiços Contratados          SAFSERVICO GESTAO                          +000000000000000000                                                                          
400000000017620170328201703070295608622               2100021967447892 LM-Linha Móvel 2017020621000                           0 00VIVO RJ                                000000      SUBServiços Contratados          SAFPAC 50 MIN FLEX COMP                    +000000000050000000                                                                          
400000000017720170328201703070295608622               2100021967447892 LM-Linha Móvel 2017020621000                           0 00VIVO RJ                                000000      SUBServiços Contratados          SAFPAC CORP LD ROAMING FLEX                +000000000000000000                                                                          
400000000017820170328201703070295608622               2100021967447892 LM-Linha Móvel 2017020621000                           0 00VIVO RJ                                000000      SUBServiços Contratados          SAFPACOTE GESTAO COMPLETO                  +000000000000000000                                                                          
400000000017920170328201703070295608622               2100021967447892 LM-Linha Móvel 2017020621000                           0 00VIVO RJ                                000000      SUBServiços Contratados          SAFINTRAGRUPO LOCAL 2.000 MINUTOS          +000000000010000000                                                                          
400000000018020170328201703070295608622               2100021967447892 LM-Linha Móvel 2017020621000                           0 00VIVO RJ                                000000      SUBServiços Contratados          SAFPACOTE LD 01                            +000000000000000000                                                                          
100000000018102943355121    032017    20170328201703070295608789               00000AREA - 021               21967452228 SMP Serviço Móvel Pessoal              LM-Linha Móvel            00000000000000002017020620170305MIN  0000000+0000000000000+000000000000025+0000000000175+0000000000000000001288069+0000000000700                                    
400000000018220170328201703070295608789               2100021967452228 LM-Linha Móvel 2017020621000                           0 00VIVO RJ                                000000      SUBServiços Contratados          SAFVIVO EMPRESAS FLEX ASSIN                +000000000010000000                                                                          
400000000018320170328201703070295608789               2100021967452228 LM-Linha Móvel 2017021521000                           0 00VIVO RJ                                000000      SUBServiços Contratados          SAFCONTA SEMIDETALHADA                     +000000000000000000                                                                          
400000000018420170328201703070295608789               2100021967452228 LM-Linha Móvel 2017020621000                           0 00VIVO RJ                                000000      SUBServiços Contratados          SAFSERVICO GESTAO                          +000000000000000000                                                                          
400000000018520170328201703070295608789               2100021967452228 LM-Linha Móvel 2017020621000                           0 00VIVO RJ                                000000      SUBServiços Contratados          SAFPAC 50 MIN FLEX COMP                    +000000000050000000                                                                          
400000000018620170328201703070295608789               2100021967452228 LM-Linha Móvel 2017020621000                           0 00VIVO RJ                                000000      SUBServiços Contratados          SAFPAC CORP LD ROAMING FLEX                +000000000000000000                                                                          
400000000018720170328201703070295608789               2100021967452228 LM-Linha Móvel 2017020621000                           0 00VIVO RJ                                000000      SUBServiços Contratados          SAFPACOTE GESTAO COMPLETO                  +000000000000000000                                                                          
400000000018820170328201703070295608789               2100021967452228 LM-Linha Móvel 2017020621000                           0 00VIVO RJ                                000000      SUBServiços Contratados          SAFINTRAGRUPO LOCAL 2.000 MINUTOS          +000000000010000000                                                                          
400000000018920170328201703070295608789               2100021967452228 LM-Linha Móvel 2017020621000                           0 00VIVO RJ                                000000      SUBServiços Contratados          SAFPACOTE LD 01                            +000000000000000000                                                                          
100000000019002943355121    032017    20170328201703070295608665               00000AREA - 021               21967653878 SMP Serviço Móvel Pessoal              LM-Linha Móvel            00000000000000002017020620170305MIN  0000000+0000000000000+000000000000025+0000000000673+0000000000000000001288069+0000000002690                                    
400000000019120170328201703070295608665               2100021967653878 LM-Linha Móvel 2017020621000                           0 00VIVO RJ                                000000      SUBServiços Contratados          SAFVIVO EMPRESAS FLEX ASSIN                +000000000010000000                                                                          
400000000019220170328201703070295608665               2100021967653878 LM-Linha Móvel 2017021521000                           0 00VIVO RJ                                000000      SUBServiços Contratados          SAFCONTA SEMIDETALHADA                     +000000000000000000                                                                          
400000000019320170328201703070295608665               2100021967653878 LM-Linha Móvel 2017020621000                           0 00VIVO RJ                                000000      SUBServiços Contratados          SAFSERVICO GESTAO                          +000000000000000000                                                                          
400000000019420170328201703070295608665               2100021967653878 LM-Linha Móvel 2017020621000                           0 00VIVO RJ                                000000      SUBServiços Contratados          SAFPAC 100 MIN FLEX COMP                   +000000000100000000                                                                          
400000000019520170328201703070295608665               2100021967653878 LM-Linha Móvel 2017020621000                           0 00VIVO RJ                                000000      SUBServiços Contratados          SAFPAC CORP LD ROAMING FLEX                +000000000000000000                                                                          
400000000019620170328201703070295608665               2100021967653878 LM-Linha Móvel 2017020621000                           0 00VIVO RJ                                000000      SUBServiços Contratados          SAFPACOTE GESTAO COMPLETO                  +000000000000000000                                                                          
400000000019720170328201703070295608665               2100021967653878 LM-Linha Móvel 2017020621000                           0 00VIVO RJ                                000000      SUBServiços Contratados          SAFINTRAGRUPO LOCAL 2.000 MINUTOS          +000000000010000000                                                                          
400000000019820170328201703070295608665               2100021967653878 LM-Linha Móvel 2017020621000                           0 00VIVO RJ                                000000      SUBServiços Contratados          SAFPACOTE LD 01                            +000000000000000000                                                                          
400000000019920170328201703070295608665               2100021967653878 LM-Linha Móvel 2017020621000                           0 00VIVO RJ                                000000      SUBServiços Contratados          SAFINTERNET MOVEL 1GB EMP 4G               +000000000699000000                                                                          
500000000020020170328201703070295608665               02943355121    032017    2100021967653878 CREDESCONTO 12MESES INTERNET R$55 - 21-96765-3878                                  -0000000000000000000000000005500201702130000002017022700000000000                                                                                                          
100000000020102943355121    032017    20170328201703070295608816               00000AREA - 021               21967664588 SMP Serviço Móvel Pessoal              LM-Linha Móvel            00000000000000002017020620170305MIN  0000000+0000000000000+000000000000025+0000000000175+0000000000000000001288069+0000000000700                                    
400000000020220170328201703070295608816               2100021967664588 LM-Linha Móvel 2017020621000                           0 00VIVO RJ                                000000      SUBServiços Contratados          SAFVIVO EMPRESAS FLEX ASSIN                +000000000010000000                                                                          
400000000020320170328201703070295608816               2100021967664588 LM-Linha Móvel 2017021521000                           0 00VIVO RJ                                000000      SUBServiços Contratados          SAFCONTA SEMIDETALHADA                     +000000000000000000                                                                          
400000000020420170328201703070295608816               2100021967664588 LM-Linha Móvel 2017020621000                           0 00VIVO RJ                                000000      SUBServiços Contratados          SAFSERVICO GESTAO                          +000000000000000000                                                                          
400000000020520170328201703070295608816               2100021967664588 LM-Linha Móvel 2017020621000                           0 00VIVO RJ                                000000      SUBServiços Contratados          SAFPAC 50 MIN FLEX COMP                    +000000000050000000                                                                          
400000000020620170328201703070295608816               2100021967664588 LM-Linha Móvel 2017020621000                           0 00VIVO RJ                                000000      SUBServiços Contratados          SAFPAC CORP LD ROAMING FLEX                +000000000000000000                                                                          
400000000020720170328201703070295608816               2100021967664588 LM-Linha Móvel 2017020621000                           0 00VIVO RJ                                000000      SUBServiços Contratados          SAFPACOTE GESTAO COMPLETO                  +000000000000000000                                                                          
400000000020820170328201703070295608816               2100021967664588 LM-Linha Móvel 2017020621000                           0 00VIVO RJ                                000000      SUBServiços Contratados          SAFINTRAGRUPO LOCAL 2.000 MINUTOS          +000000000010000000                                                                          
400000000020920170328201703070295608816               2100021967664588 LM-Linha Móvel 2017020621000                           0 00VIVO RJ                                000000      SUBServiços Contratados          SAFPACOTE LD 01                            +000000000000000000                                                                          
100000000021002943355121    032017    20170328201703070295608512               00000AREA - 021               21967683164 SMP Serviço Móvel Pessoal              LM-Linha Móvel            00000000000000002017020620170305MIN  0000000+0000000000000+000000000000025+0000000000175+0000000000000000001288069+0000000000700                                    
400000000021120170328201703070295608512               2100021967683164 LM-Linha Móvel 2017020621000                           0 00VIVO RJ                                000000      SUBServiços Contratados          SAFVIVO EMPRESAS FLEX ASSIN                +000000000010000000                                                                          
400000000021220170328201703070295608512               2100021967683164 LM-Linha Móvel 2017021521000                           0 00VIVO RJ                                000000      SUBServiços Contratados          SAFCONTA SEMIDETALHADA                     +000000000000000000                                                                          
400000000021320170328201703070295608512               2100021967683164 LM-Linha Móvel 2017020621000                           0 00VIVO RJ                                000000      SUBServiços Contratados          SAFSERVICO GESTAO                          +000000000000000000                                                                          
400000000021420170328201703070295608512               2100021967683164 LM-Linha Móvel 2017020621000                           0 00VIVO RJ                                000000      SUBServiços Contratados          SAFPAC 50 MIN FLEX COMP                    +000000000050000000                                                                          
400000000021520170328201703070295608512               2100021967683164 LM-Linha Móvel 2017020621000                           0 00VIVO RJ                                000000      SUBServiços Contratados          SAFPAC CORP LD ROAMING FLEX                +000000000000000000                                                                          
400000000021620170328201703070295608512               2100021967683164 LM-Linha Móvel 2017020621000                           0 00VIVO RJ                                000000      SUBServiços Contratados          SAFPACOTE GESTAO COMPLETO                  +000000000000000000                                                                          
400000000021720170328201703070295608512               2100021967683164 LM-Linha Móvel 2017020621000                           0 00VIVO RJ                                000000      SUBServiços Contratados          SAFINTRAGRUPO LOCAL 2.000 MINUTOS          +000000000010000000                                                                          
400000000021820170328201703070295608512               2100021967683164 LM-Linha Móvel 2017020621000                           0 00VIVO RJ                                000000      SUBServiços Contratados          SAFPACOTE LD 01                            +000000000000000000                                                                          
100000000021902943355121    032017    20170328201703070295608738               00000AREA - 021               21967752996 SMP Serviço Móvel Pessoal              LM-Linha Móvel            00000000000000002017020620170305MIN  0000000+0000000000000+000000000000025+0000000000175+0000000000000000001288069+0000000000700                                    
400000000022020170328201703070295608738               2100021967752996 LM-Linha Móvel 2017020621000                           0 00VIVO RJ                                000000      SUBServiços Contratados          SAFVIVO EMPRESAS FLEX ASSIN                +000000000010000000                                                                          
400000000022120170328201703070295608738               2100021967752996 LM-Linha Móvel 2017021521000                           0 00VIVO RJ                                000000      SUBServiços Contratados          SAFCONTA SEMIDETALHADA                     +000000000000000000                                                                          
400000000022220170328201703070295608738               2100021967752996 LM-Linha Móvel 2017020621000                           0 00VIVO RJ                                000000      SUBServiços Contratados          SAFSERVICO GESTAO                          +000000000000000000                                                                          
400000000022320170328201703070295608738               2100021967752996 LM-Linha Móvel 2017020621000                           0 00VIVO RJ                                000000      SUBServiços Contratados          SAFPAC 50 MIN FLEX COMP                    +000000000050000000                                                                          
400000000022420170328201703070295608738               2100021967752996 LM-Linha Móvel 2017020621000                           0 00VIVO RJ                                000000      SUBServiços Contratados          SAFPAC CORP LD ROAMING FLEX                +000000000000000000                                                                          
400000000022520170328201703070295608738               2100021967752996 LM-Linha Móvel 2017020621000                           0 00VIVO RJ                                000000      SUBServiços Contratados          SAFPACOTE GESTAO COMPLETO                  +000000000000000000                                                                          
400000000022620170328201703070295608738               2100021967752996 LM-Linha Móvel 2017020621000                           0 00VIVO RJ                                000000      SUBServiços Contratados          SAFINTRAGRUPO LOCAL 2.000 MINUTOS          +000000000010000000                                                                          
400000000022720170328201703070295608738               2100021967752996 LM-Linha Móvel 2017020621000                           0 00VIVO RJ                                000000      SUBServiços Contratados          SAFPACOTE LD 01                            +000000000000000000                                                                          
100000000022802943355121    032017    20170328201703070295608750               00000AREA - 021               21967788277 SMP Serviço Móvel Pessoal              LM-Linha Móvel            00000000000000002017020620170305MIN  0000000+0000000000000+000000000000025+0000000000175+0000000000000000001288069+0000000000700                                    
400000000022920170328201703070295608750               2100021967788277 LM-Linha Móvel 2017020621000                           0 00VIVO RJ                                000000      SUBServiços Contratados          SAFVIVO EMPRESAS FLEX ASSIN                +000000000010000000                                                                          
400000000023020170328201703070295608750               2100021967788277 LM-Linha Móvel 2017021521000                           0 00VIVO RJ                                000000      SUBServiços Contratados          SAFCONTA SEMIDETALHADA                     +000000000000000000                                                                          
400000000023120170328201703070295608750               2100021967788277 LM-Linha Móvel 2017020621000                           0 00VIVO RJ                                000000      SUBServiços Contratados          SAFSERVICO GESTAO                          +000000000000000000                                                                          
400000000023220170328201703070295608750               2100021967788277 LM-Linha Móvel 2017020621000                           0 00VIVO RJ                                000000      SUBServiços Contratados          SAFPAC 50 MIN FLEX COMP                    +000000000050000000                                                                          
400000000023320170328201703070295608750               2100021967788277 LM-Linha Móvel 2017020621000                           0 00VIVO RJ                                000000      SUBServiços Contratados          SAFPAC CORP LD ROAMING FLEX                +000000000000000000                                                                          
400000000023420170328201703070295608750               2100021967788277 LM-Linha Móvel 2017020621000                           0 00VIVO RJ                                000000      SUBServiços Contratados          SAFPACOTE GESTAO COMPLETO                  +000000000000000000                                                                          
400000000023520170328201703070295608750               2100021967788277 LM-Linha Móvel 2017020621000                           0 00VIVO RJ                                000000      SUBServiços Contratados          SAFINTRAGRUPO LOCAL 2.000 MINUTOS          +000000000010000000                                                                          
400000000023620170328201703070295608750               2100021967788277 LM-Linha Móvel 2017020621000                           0 00VIVO RJ                                000000      SUBServiços Contratados          SAFPACOTE LD 01                            +000000000000000000                                                                          
100000000023702943355121    032017    20170328201703070295608587               00000AREA - 021               21967792066 SMP Serviço Móvel Pessoal              LM-Linha Móvel            00000000000000002017020620170305MIN  0000000+0000000000000+000000000000025+0000000000673+0000000000000000001288069+0000000002690                                    
400000000023820170328201703070295608587               2100021967792066 LM-Linha Móvel 2017020621000                           0 00VIVO RJ                                000000      SUBServiços Contratados          SAFVIVO EMPRESAS FLEX ASSIN                +000000000010000000                                                                          
400000000023920170328201703070295608587               2100021967792066 LM-Linha Móvel 2017021521000                           0 00VIVO RJ                                000000      SUBServiços Contratados          SAFCONTA SEMIDETALHADA                     +000000000000000000                                                                          
400000000024020170328201703070295608587               2100021967792066 LM-Linha Móvel 2017020621000                           0 00VIVO RJ                                000000      SUBServiços Contratados          SAFSERVICO GESTAO                          +000000000000000000                                                                          
400000000024120170328201703070295608587               2100021967792066 LM-Linha Móvel 2017020621000                           0 00VIVO RJ                                000000      SUBServiços Contratados          SAFPAC 100 MIN FLEX COMP                   +000000000100000000                                                                          
400000000024220170328201703070295608587               2100021967792066 LM-Linha Móvel 2017020621000                           0 00VIVO RJ                                000000      SUBServiços Contratados          SAFPAC CORP LD ROAMING FLEX                +000000000000000000                                                                          
400000000024320170328201703070295608587               2100021967792066 LM-Linha Móvel 2017020621000                           0 00VIVO RJ                                000000      SUBServiços Contratados          SAFPACOTE GESTAO COMPLETO                  +000000000000000000                                                                          
400000000024420170328201703070295608587               2100021967792066 LM-Linha Móvel 2017020621000                           0 00VIVO RJ                                000000      SUBServiços Contratados          SAFINTRAGRUPO LOCAL 2.000 MINUTOS          +000000000010000000                                                                          
400000000024520170328201703070295608587               2100021967792066 LM-Linha Móvel 2017020621000                           0 00VIVO RJ                                000000      SUBServiços Contratados          SAFPACOTE LD 01                            +000000000000000000                                                                          
400000000024620170328201703070295608587               2100021967792066 LM-Linha Móvel 2017020621000                           0 00VIVO RJ                                000000      SUBServiços Contratados          SAFINTERNET MOVEL 1GB EMP 4G               +000000000699000000                                                                          
500000000024720170328201703070295608587               02943355121    032017    2100021967792066 CREDESCONTO 12MESES INTERNET R$55 - 21-96779-2066                                  -0000000000000000000000000005500201702130000002017022700000000000                                                                                                          
100000000024802943355121    032017    20170328201703070295608523               00000AREA - 021               21967845699 SMP Serviço Móvel Pessoal              LM-Linha Móvel            00000000000000002017020620170305MIN  0000000+0000000000000+000000000000025+0000000000175+0000000000000000001288069+0000000000700                                    
400000000024920170328201703070295608523               2100021967845699 LM-Linha Móvel 2017020621000                           0 00VIVO RJ                                000000      SUBServiços Contratados          SAFVIVO EMPRESAS FLEX ASSIN                +000000000010000000                                                                          
400000000025020170328201703070295608523               2100021967845699 LM-Linha Móvel 2017021521000                           0 00VIVO RJ                                000000      SUBServiços Contratados          SAFCONTA SEMIDETALHADA                     +000000000000000000                                                                          
400000000025120170328201703070295608523               2100021967845699 LM-Linha Móvel 2017020621000                           0 00VIVO RJ                                000000      SUBServiços Contratados          SAFSERVICO GESTAO                          +000000000000000000                                                                          
400000000025220170328201703070295608523               2100021967845699 LM-Linha Móvel 2017020621000                           0 00VIVO RJ                                000000      SUBServiços Contratados          SAFPAC 50 MIN FLEX COMP                    +000000000050000000                                                                          
400000000025320170328201703070295608523               2100021967845699 LM-Linha Móvel 2017020621000                           0 00VIVO RJ                                000000      SUBServiços Contratados          SAFPAC CORP LD ROAMING FLEX                +000000000000000000                                                                          
400000000025420170328201703070295608523               2100021967845699 LM-Linha Móvel 2017020621000                           0 00VIVO RJ                                000000      SUBServiços Contratados          SAFPACOTE GESTAO COMPLETO                  +000000000000000000                                                                          
400000000025520170328201703070295608523               2100021967845699 LM-Linha Móvel 2017020621000                           0 00VIVO RJ                                000000      SUBServiços Contratados          SAFINTRAGRUPO LOCAL 2.000 MINUTOS          +000000000010000000                                                                          
400000000025620170328201703070295608523               2100021967845699 LM-Linha Móvel 2017020621000                           0 00VIVO RJ                                000000      SUBServiços Contratados          SAFPACOTE LD 01                            +000000000000000000                                                                          
100000000025702943355121    032017    20170328201703070300990067               00000AREA - 021               21968887778 SMP Serviço Móvel Pessoal              LM-Linha Móvel            00000000000000002017020620170305MIN  0000000+0000000000000+000000000000025+0000000000000+0000000000000000001288069+0000000000000                                    
400000000025820170328201703070300990067               2100021968887778 LM-Linha Móvel 2017022721000                           0 00VIVO RJ                                000000      SUBServiços Contratados          SAFVIVO EMPRESAS FLEX ASSIN                +000000000002500000                                                                          
400000000025920170328201703070300990067               2100021968887778 LM-Linha Móvel 2017022721000                           0 00VIVO RJ                                000000      SUBServiços Contratados          SAFVIVO EMPRESAS FLEX ASSIN                -000000000002500000                                                                          
400000000026020170328201703070300990067               2100021968887778 LM-Linha Móvel 2017022721000                           0 00VIVO RJ                                000000      SUBServiços Contratados          SAFSERVICO GESTAO                          +000000000000000000                                                                          
400000000026120170328201703070300990067               2100021968887778 LM-Linha Móvel 2017022721000                           0 00VIVO RJ                                000000      SUBServiços Contratados          SAFPAC 50 MIN FLEX COMP                    +000000000011200000                                                                          
400000000026220170328201703070300990067               2100021968887778 LM-Linha Móvel 2017022721000                           0 00VIVO RJ                                000000      SUBServiços Contratados          SAFPAC 50 MIN FLEX COMP                    -000000000011200000                                                                          
400000000026320170328201703070300990067               2100021968887778 LM-Linha Móvel 2017022721000                           0 00VIVO RJ                                000000      SUBServiços Contratados          SAFPAC CORP LD ROAMING FLEX                +000000000000000000                                                                          
400000000026420170328201703070300990067               2100021968887778 LM-Linha Móvel 2017022721000                           0 00VIVO RJ                                000000      SUBServiços Contratados          SAFPACOTE GESTAO COMPLETO                  +000000000000000000                                                                          
400000000026520170328201703070300990067               2100021968887778 LM-Linha Móvel 2017022721000                           0 00VIVO RJ                                000000      SUBServiços Contratados          SAFINTRAGRUPO LOCAL 2.000 MINUTOS          +000000000002500000                                                                          
400000000026620170328201703070300990067               2100021968887778 LM-Linha Móvel 2017022721000                           0 00VIVO RJ                                000000      SUBServiços Contratados          SAFINTRAGRUPO LOCAL 2.000 MINUTOS          -000000000002500000                                                                          
400000000026720170328201703070300990067               2100021968887778 LM-Linha Móvel 2017022721000                           0 00VIVO RJ                                000000      SUBServiços Contratados          SAFPACOTE LD 01                            +000000000000000000                                                                          
100000000026802943355121    032017    20170328201703070300990142               00000AREA - 021               21968887809 SMP Serviço Móvel Pessoal              LM-Linha Móvel            00000000000000002017020620170305MIN  0000000+0000000000000+000000000000025+0000000000041+0000000000000000001288069+0000000000162                                    
400000000026920170328201703070300990142               2100021968887809 LM-Linha Móvel 2017022721000                           0 00VIVO RJ                                000000      SUBServiços Contratados          SAFVIVO EMPRESAS FLEX ASSIN                +000000000002500000                                                                          
400000000027020170328201703070300990142               2100021968887809 LM-Linha Móvel 2017022721000                           0 00VIVO RJ                                000000      SUBServiços Contratados          SAFSERVICO GESTAO                          +000000000000000000                                                                          
400000000027120170328201703070300990142               2100021968887809 LM-Linha Móvel 2017022721000                           0 00VIVO RJ                                000000      SUBServiços Contratados          SAFPAC 50 MIN FLEX COMP                    +000000000011200000                                                                          
400000000027220170328201703070300990142               2100021968887809 LM-Linha Móvel 2017022721000                           0 00VIVO RJ                                000000      SUBServiços Contratados          SAFPAC CORP LD ROAMING FLEX                +000000000000000000                                                                          
400000000027320170328201703070300990142               2100021968887809 LM-Linha Móvel 2017022721000                           0 00VIVO RJ                                000000      SUBServiços Contratados          SAFPACOTE GESTAO COMPLETO                  +000000000000000000                                                                          
400000000027420170328201703070300990142               2100021968887809 LM-Linha Móvel 2017022721000                           0 00VIVO RJ                                000000      SUBServiços Contratados          SAFINTRAGRUPO LOCAL 2.000 MINUTOS          +000000000002500000                                                                          
400000000027520170328201703070300990142               2100021968887809 LM-Linha Móvel 2017022721000                           0 00VIVO RJ                                000000      SUBServiços Contratados          SAFPACOTE LD 01                            +000000000000000000                                                                          
400000000027620170328201703070300990142               2100021968887809 LM-Linha Móvel 2017022721000                           0 00VIVO RJ                                000000      SUBServiços Contratados          SAFINTERNET MOVEL 3GB EMP 4G               +000000000212200000                                                                          
400000000027720170328201703070300990142               2100021968887809 LM-Linha Móvel 2017022721000                           0 00VIVO RJ                                307394020757USOVIVO Internet                 ZAPINTERNET MÓVEL 2                        +000000000000000000                                                                          
400000000027820170328201703070300990142               2100021968887809 LM-Linha Móvel 2017022721000                           0 00VIVO RJ                                011264200822USOVIVO Internet                 ZAPINTERNET MÓVEL 2                        +000000000000000000                                                                          
400000000027920170328201703070300990142               2100021968887809 LM-Linha Móvel 2017022821000                           0 00VIVO RJ                                000049005609USOVIVO Internet                 ZAPINTERNET MÓVEL 2                        +000000000000000000                                                                          
400000000028020170328201703070300990142               2100021968887809 LM-Linha Móvel 2017022821000                           0 00VIVO RJ                                011673015616USOVIVO Internet                 ZAPINTERNET MÓVEL 2                        +000000000000000000                                                                          
400000000028120170328201703070300990142               2100021968887809 LM-Linha Móvel 2017022821000                           0 00VIVO RJ                                000482083550USOVIVO Internet                 ZAPINTERNET MÓVEL 2                        +000000000000000000                                                                          
400000000028220170328201703070300990142               2100021968887809 LM-Linha Móvel 2017022821000                           0 00VIVO RJ                                000182101057USOVIVO Internet                 ZAPINTERNET MÓVEL 2                        +000000000000000000                                                                          
400000000028320170328201703070300990142               2100021968887809 LM-Linha Móvel 2017022821000                           0 00VIVO RJ                                000030104049USOVIVO Internet                 ZAPINTERNET MÓVEL 2                        +000000000000000000                                                                          
400000000028420170328201703070300990142               2100021968887809 LM-Linha Móvel 2017022821000                           0 00VIVO RJ                                000092111708USOVIVO Internet                 ZAPINTERNET MÓVEL 2                        +000000000000000000                                                                          
