00000000000001100387217                201704102017042017041420170425018CLARO S/A (RJ) 040432544006269RJ939144068      SOB MEDIDA RJ                 008453543000176V3R000000000004282140084830000076178730001201270425100387321704282144103COBRANCA SIMPLES    000000000000000000                                                                           .
50000000000002100387217                20170410201704                                         C404DSPDESCONTO                 000000000000010428214     00000-00000000071182017031000000020170409000000                                                                                                                                                      .
70000000000003100387217                20170410201704                                         C502MULMULTA                                   000000000000000000+00000000000012017031000000020170409000000                                                                                                                                                    .
70000000000004100387217                20170410201704                                         C502MULMULTA                                   000000000000000000+00000000000072017031000000020170409000000                                                                                                                                                    .
70000000000005100387217                20170410201704                                         C502MULMULTA                                   000000000000000000+00000000003322017031000000020170409000000                                                                                                                                                    .
70000000000006100387217                20170410201704                                         C502MULMULTA                                   000000000000000000+00000000003562017031000000020170409000000                                                                                                                                                    .
70000000000007100387217                20170410201704                                         C502MULMULTA                                   000000000000000000+00000000022412017031000000020170409000000                                                                                                                                                    .
70000000000008100387217                20170410201704                                         C502MULMULTA                                   000000000000000000+00000000041892017031000000020170409000000                                                                                                                                                    .
70000000000009100387217                20170410201704                                         C505AJAAJUSTE FATURA ANTERIOR                  000000000000000000+00000001599302017031000000020170409000000                                                                                                                                                    .
70000000000010100387217                20170410201704                                         C505AJAAJUSTE FATURA ANTERIOR                  000000000000000000+00000002129352017031000000020170409000000                                                                                                                                                    .
70000000000011100387217                20170410201704                                         C599AOTGESTOR ONLINE - CONTROLE COMPLETO       000000000000000000+00000000000002017031000000020170409000000                                                                                                                                                    .
70000000000012100387217                20170410201704                                         C599AOTGESTOR ONLINE - CONTROLE COMPLETO       000000000000000000+00000000000002017031000000020170409000000                                                                                                                                                    .
70000000000013100387217                20170410201704                                         C599AOTGESTOR ONLINE - CONTROLE COMPLETO       000000000000000000+00000000000002017031000000020170409000000                                                                                                                                                    .
70000000000014100387217                20170410201704                                         C599AOTGESTOR ONLINE - CONTROLE COMPLETO       000000000000000000+00000000000002017031000000020170409000000                                                                                                                                                    .
70000000000015100387217                20170410201704                                         C599AOTGESTOR ONLINE - CONTROLE COMPLETO       000000000000000000+00000000000002017031000000020170409000000                                                                                                                                                    .
70000000000016100387217                20170410201704                                         C599AOTGESTOR ONLINE - CONTROLE COMPLETO       000000000000000000+00000000000002017031000000020170409000000                                                                                                                                                    .
70000000000017100387217                20170410201704                                         C599AOTGESTOR ONLINE - CONTROLE COMPLETO       000000000000000000+00000000000002017031000000020170409000000                                                                                                                                                    .
70000000000018100387217                20170410201704                                         C599AOTGESTOR ONLINE - CONTROLE COMPLETO       000000000000000000+00000000000002017031000000020170409000000                                                                                                                                                    .
70000000000019100387217                20170410201704                                         C599AOTGESTOR ONLINE - CONTROLE COMPLETO       000000000000000000+00000000000002017031000000020170409000000                                                                                                                                                    .
70000000000020100387217                20170410201704                                         C599AOTGESTOR ONLINE - CONTROLE COMPLETO       000000000000000000+00000000000002017031000000020170409000000                                                                                                                                                    .
70000000000021100387217                20170410201704                                         C599AOTGESTOR ONLINE - CONTROLE COMPLETO       000000000000000000+00000000000002017031000000020170409000000                                                                                                                                                    .
70000000000022100387217                20170410201704                                         C599AOTGESTOR ONLINE - CONTROLE COMPLETO       000000000000000000+00000000000002017031000000020170409000000                                                                                                                                                    .
70000000000023100387217                20170410201704                                         C599AOTGESTOR ONLINE - CONTROLE COMPLETO       000000000000000000+00000000000002017031000000020170409000000                                                                                                                                                    .
70000000000024100387217                20170410201704                                         C599AOTGESTOR ONLINE - CONTROLE COMPLETO       000000000000000000+00000000000002017031000000020170409000000                                                                                                                                                    .
70000000000025100387217                20170410201704                                         C599AOTGESTOR ONLINE - CONTROLE COMPLETO       000000000000000000+00000000000002017031000000020170409000000                                                                                                                                                    .
70000000000026100387217                20170410201704                                         C599AOTGESTOR ONLINE - CONTROLE COMPLETO       000000000000000000+00000000000002017031000000020170409000000                                                                                                                                                    .
70000000000027100387217                20170410201704                                         C599AOTGESTOR ONLINE - CONTROLE COMPLETO       000000000000000000+00000000000002017031000000020170409000000                                                                                                                                                    .
70000000000028100387217                20170410201704                                         C599AOTGESTOR ONLINE - CONTROLE COMPLETO       000000000000000000+00000000000002017031000000020170409000000                                                                                                                                                    .
70000000000029100387217                20170410201704                                         C599AOTGESTOR ONLINE - CONTROLE COMPLETO       000000000000000000+00000000000002017031000000020170409000000                                                                                                                                                    .
70000000000030100387217                20170410201704                                         C599AOTGESTOR ONLINE - CONTROLE COMPLETO       000000000000000000+00000000000002017031000000020170409000000                                                                                                                                                    .
70000000000031100387217                20170410201704                                         C599AOTGESTOR ONLINE - CONTROLE COMPLETO       000000000000000000+00000000000002017031000000020170409000000                                                                                                                                                    .
70000000000032100387217                20170410201704                                         C599AOTGESTOR ONLINE - CONTROLE COMPLETO       000000000000000000+00000000000002017031000000020170409000000                                                                                                                                                    .
70000000000033100387217                20170410201704                                         C599AOTGESTOR ONLINE - CONTROLE COMPLETO       000000000000000000+00000000000002017031000000020170409000000                                                                                                                                                    .
70000000000034100387217                20170410201704                                         C599AOTGESTOR ONLINE - CONTROLE COMPLETO       000000000000000000+00000000000002017031000000020170409000000                                                                                                                                                    .
70000000000035100387217                20170410201704                                         C599AOTGESTOR ONLINE - CONTROLE COMPLETO       000000000000000000+00000000000002017031000000020170409000000                                                                                                                                                    .
70000000000036100387217                20170410201704                                         C599AOTGESTOR ONLINE - CONTROLE COMPLETO       000000000000000000+00000000000002017031000000020170409000000                                                                                                                                                    .
70000000000037100387217                20170410201704                                         C599AOTGESTOR ONLINE - CONTROLE COMPLETO       000000000000000000+00000000000002017031000000020170409000000                                                                                                                                                    .
70000000000038100387217                20170410201704                                         C599AOTGESTOR ONLINE - CONTROLE COMPLETO       000000000000000000+00000000000002017031000000020170409000000                                                                                                                                                    .
70000000000039100387217                20170410201704                                         C599AOTGESTOR ONLINE - CONTROLE COMPLETO       000000000000000000+00000000000002017031000000020170409000000                                                                                                                                                    .
70000000000040100387217                20170410201704                                         C599AOTGESTOR ONLINE - CONTROLE COMPLETO       000000000000000000+00000000000002017031000000020170409000000                                                                                                                                                    .
70000000000041100387217                20170410201704                                         C599AOTGESTOR ONLINE - CONTROLE COMPLETO       000000000000000000+00000000000002017031000000020170409000000                                                                                                                                                    .
70000000000042100387217                20170410201704                                         C599AOTGESTOR ONLINE - CONTROLE COMPLETO       000000000000000000+00000000000002017031000000020170409000000                                                                                                                                                    .
70000000000043100387217                20170410201704                                         C599AOTGESTOR ONLINE - CONTROLE COMPLETO       000000000000000000+00000000000002017031000000020170409000000                                                                                                                                                    .
70000000000044100387217                20170410201704                                         C599AOTGESTOR ONLINE - CONTROLE COMPLETO       000000000000000000+00000000000002017031000000020170409000000                                                                                                                                                    .
70000000000045100387217                20170410201704                                         C599AOTGESTOR ONLINE - CONTROLE COMPLETO       000000000000000000+00000000000002017031000000020170409000000                                                                                                                                                    .
70000000000046100387217                20170410201704                                         C599AOTGESTOR ONLINE - CONTROLE COMPLETO       000000000000000000+00000000000002017031000000020170409000000                                                                                                                                                    .
70000000000047100387217                20170410201704                                         C599AOTGESTOR ONLINE - CONTROLE COMPLETO       000000000000000000+00000000000002017031000000020170409000000                                                                                                                                                    .
70000000000048100387217                20170410201704                                         C599AOTGESTOR ONLINE - CONTROLE COMPLETO       000000000000000000+00000000000002017031000000020170409000000                                                                                                                                                    .
70000000000049100387217                20170410201704                                         C599AOTGESTOR ONLINE - CONTROLE COMPLETO       000000000000000000+00000000000002017031000000020170409000000                                                                                                                                                    .
70000000000050100387217                20170410201704                                         C599AOTGESTOR ONLINE - CONTROLE COMPLETO       000000000000000000+00000000000002017031000000020170409000000                                                                                                                                                    .
70000000000051100387217                20170410201704                                         C599AOTGESTOR ONLINE - CONTROLE COMPLETO       000000000000000000+00000000000002017031000000020170409000000                                                                                                                                                    .
70000000000052100387217                20170410201704                                         C599AOTGESTOR ONLINE - CONTROLE COMPLETO       000000000000000000+00000000000002017031000000020170409000000                                                                                                                                                    .
70000000000053100387217                20170410201704                                         C599AOTGESTOR ONLINE - CONTROLE COMPLETO       000000000000000000+00000000000412017031000000020170409000000                                                                                                                                                    .
70000000000054100387217                20170410201704                                         C599AOTGESTOR ONLINE - CONTROLE COMPLETO       000000000000000000+00000000000412017031000000020170409000000                                                                                                                                                    .
70000000000055100387217                20170410201704                                         C599AOTGESTOR ONLINE - CONTROLE COMPLETO       000000000000000000+00000000000412017031000000020170409000000                                                                                                                                                    .
70000000000056100387217                20170410201704                                         C599AOTGESTOR ONLINE - CONTROLE COMPLETO       000000000000000000+00000000000412017031000000020170409000000                                                                                                                                                    .
70000000000057100387217                20170410201704                                         C599AOTGESTOR ONLINE - CONTROLE COMPLETO       000000000000000000+00000000000412017031000000020170409000000                                                                                                                                                    .
70000000000058100387217                20170410201704                                         C599AOTGESTOR ONLINE - CONTROLE COMPLETO       000000000000000000+00000000000412017031000000020170409000000                                                                                                                                                    .
70000000000059100387217                20170410201704                                         C599AOTGESTOR ONLINE - CONTROLE COMPLETO       000000000000000000+00000000000412017031000000020170409000000                                                                                                                                                    .
70000000000060100387217                20170410201704                                         C599AOTGESTOR ONLINE - CONTROLE COMPLETO       000000000000000000+00000000000412017031000000020170409000000                                                                                                                                                    .
70000000000061100387217                20170410201704                                         C599AOTGESTOR ONLINE - CONTROLE COMPLETO       000000000000000000+00000000000412017031000000020170409000000                                                                                                                                                    .
70000000000062100387217                20170410201704                                         C599AOTGESTOR ONLINE - CONTROLE COMPLETO       000000000000000000+00000000000412017031000000020170409000000                                                                                                                                                    .
70000000000063100387217                20170410201704                                         C599AOTGESTOR ONLINE - CONTROLE COMPLETO       000000000000000000+00000000000412017031000000020170409000000                                                                                                                                                    .
70000000000064100387217                20170410201704                                         C599AOTGESTOR ONLINE - CONTROLE COMPLETO       000000000000000000+00000000000412017031000000020170409000000                                                                                                                                                    .
70000000000065100387217                20170410201704                                         C599AOTGESTOR ONLINE - CONTROLE COMPLETO       000000000000000000+00000000000412017031000000020170409000000                                                                                                                                                    .
70000000000066100387217                20170410201704                                         C599AOTGESTOR ONLINE - CONTROLE COMPLETO       000000000000000000+00000000000412017031000000020170409000000                                                                                                                                                    .
70000000000067100387217                20170410201704                                         C599AOTGESTOR ONLINE - CONTROLE COMPLETO       000000000000000000+00000000000412017031000000020170409000000                                                                                                                                                    .
70000000000068100387217                20170410201704                                         C599AOTGESTOR ONLINE - CONTROLE COMPLETO       000000000000000000+00000000000412017031000000020170409000000                                                                                                                                                    .
70000000000069100387217                20170410201704                                         C599AOTGESTOR ONLINE - CONTROLE COMPLETO       000000000000000000+00000000000412017031000000020170409000000                                                                                                                                                    .
70000000000070100387217                20170410201704                                         C599AOTGESTOR ONLINE - CONTROLE COMPLETO       000000000000000000+00000000000412017031000000020170409000000                                                                                                                                                    .
70000000000071100387217                20170410201704                                         C599AOTGESTOR ONLINE - CONTROLE COMPLETO       000000000000000000+00000000000412017031000000020170409000000                                                                                                                                                    .
70000000000072100387217                20170410201704                                         C599AOTGESTOR ONLINE - CONTROLE COMPLETO       000000000000000000+00000000000412017031000000020170409000000                                                                                                                                                    .
70000000000073100387217                20170410201704                                         C599AOTGESTOR ONLINE - CONTROLE COMPLETO       000000000000000000+00000000000412017031000000020170409000000                                                                                                                                                    .
70000000000074100387217                20170410201704                                         C599AOTGESTOR ONLINE - CONTROLE COMPLETO       000000000000000000+00000000000412017031000000020170409000000                                                                                                                                                    .
70000000000075100387217                20170410201704                                         C599AOTGESTOR ONLINE - CONTROLE COMPLETO       000000000000000000+00000000000412017031000000020170409000000                                                                                                                                                    .
70000000000076100387217                20170410201704                                         C599AOTGESTOR ONLINE - CONTROLE COMPLETO       000000000000000000+00000000000412017031000000020170409000000                                                                                                                                                    .
70000000000077100387217                20170410201704                                         C599AOTGESTOR ONLINE - CONTROLE COMPLETO       000000000000000000+00000000000412017031000000020170409000000                                                                                                                                                    .
70000000000078100387217                20170410201704                                         C599AOTGESTOR ONLINE - CONTROLE COMPLETO       000000000000000000+00000000000412017031000000020170409000000                                                                                                                                                    .
70000000000079100387217                20170410201704                                         C599AOTGESTOR ONLINE - CONTROLE COMPLETO       000000000000000000+00000000000412017031000000020170409000000                                                                                                                                                    .
70000000000080100387217                20170410201704                                         C599AOTGESTOR ONLINE - CONTROLE COMPLETO       000000000000000000+00000000000412017031000000020170409000000                                                                                                                                                    .
70000000000081100387217                20170410201704                                         C599AOTGESTOR ONLINE - CONTROLE COMPLETO       000000000000000000+00000000000412017031000000020170409000000                                                                                                                                                    .
70000000000082100387217                20170410201704                                         C599AOTGESTOR ONLINE - CONTROLE COMPLETO       000000000000000000+00000000000412017031000000020170409000000                                                                                                                                                    .
70000000000083100387217                20170410201704                                         C599AOTGESTOR ONLINE - CONTROLE COMPLETO       000000000000000000+00000000000412017031000000020170409000000                                                                                                                                                    .
70000000000084100387217                20170410201704                                         C599AOTGESTOR ONLINE - CONTROLE COMPLETO       000000000000000000+00000000000412017031000000020170409000000                                                                                                                                                    .
70000000000085100387217                20170410201704                                         C599AOTGESTOR ONLINE - CONTROLE COMPLETO       000000000000000000+00000000000412017031000000020170409000000                                                                                                                                                    .
70000000000086100387217                20170410201704                                         C599AOTGESTOR ONLINE - CONTROLE COMPLETO       000000000000000000+00000000000412017031000000020170409000000                                                                                                                                                    .
70000000000087100387217                20170410201704                                         C599AOTGESTOR ONLINE - CONTROLE COMPLETO       000000000000000000+00000000000412017031000000020170409000000                                                                                                                                                    .
70000000000088100387217                20170410201704                                         C599AOTGESTOR ONLINE - CONTROLE COMPLETO       000000000000000000+00000000000412017031000000020170409000000                                                                                                                                                    .
70000000000089100387217                20170410201704                                         C599AOTGESTOR ONLINE - CONTROLE COMPLETO       000000000000000000+00000000000412017031000000020170409000000                                                                                                                                                    .
70000000000090100387217                20170410201704                                         C599AOTGESTOR ONLINE - CONTROLE COMPLETO       000000000000000000+00000000000412017031000000020170409000000                                                                                                                                                    .
70000000000091100387217                20170410201704                                         C599AOTGESTOR ONLINE - CONTROLE COMPLETO       000000000000000000+00000000000412017031000000020170409000000                                                                                                                                                    .
70000000000092100387217                20170410201704                                         C599AOTGESTOR ONLINE - CONTROLE COMPLETO       000000000000000000+00000000000412017031000000020170409000000                                                                                                                                                    .
70000000000093100387217                20170410201704                                         C599AOTGESTOR ONLINE - CONTROLE COMPLETO       000000000000000000+00000000000412017031000000020170409000000                                                                                                                                                    .
70000000000094100387217                20170410201704                                         C599AOTGESTOR ONLINE - CONTROLE COMPLETO       000000000000000000+00000000000412017031000000020170409000000                                                                                                                                                    .
70000000000095100387217                20170410201704                                         C599AOTGESTOR ONLINE - CONTROLE COMPLETO       000000000000000000+00000000000412017031000000020170409000000                                                                                                                                                    .
70000000000096100387217                20170410201704                                         C599AOTGESTOR ONLINE - CONTROLE COMPLETO       000000000000000000+00000000000412017031000000020170409000000                                                                                                                                                    .
70000000000097100387217                20170410201704                                         C599AOTGESTOR ONLINE - CONTROLE COMPLETO       000000000000000000+00000000000412017031000000020170409000000                                                                                                                                                    .
70000000000098100387217                20170410201704                                         C599AOTGESTOR ONLINE - CONTROLE COMPLETO       000000000000000000+00000000000412017031000000020170409000000                                                                                                                                                    .
70000000000099100387217                20170410201704                                         C599AOTGESTOR ONLINE - CONTROLE COMPLETO       000000000000000000+00000000000412017031000000020170409000000                                                                                                                                                    .
70000000000100100387217                20170410201704                                         C599AOTGESTOR ONLINE - CONTROLE COMPLETO       000000000000000000+00000000000412017031000000020170409000000                                                                                                                                                    .
70000000000101100387217                20170410201704                                         C599AOTGESTOR ONLINE - CONTROLE COMPLETO       000000000000000000+00000000000412017031000000020170409000000                                                                                                                                                    .
70000000000102100387217                20170410201704                                         C599AOTGESTOR ONLINE - CONTROLE COMPLETO       000000000000000000+00000000000412017031000000020170409000000                                                                                                                                                    .
70000000000103100387217                20170410201704                                         C599AOTGESTOR ONLINE - CONTROLE COMPLETO       000000000000000000+00000000000412017031000000020170409000000                                                                                                                                                    .
70000000000104100387217                20170410201704                                         C599AOTGESTOR ONLINE - CONTROLE COMPLETO       000000000000000000+00000000000412017031000000020170409000000                                                                                                                                                    .
70000000000105100387217                20170410201704                                         C599AOTGESTOR ONLINE - CONTROLE COMPLETO       000000000000000000+00000000000412017031000000020170409000000                                                                                                                                                    .
70000000000106100387217                20170410201704                                         C599AOTGESTOR ONLINE - CONTROLE COMPLETO       000000000000000000+00000000000412017031000000020170409000000                                                                                                                                                    .
70000000000107100387217                20170410201704                                         C599AOTGESTOR ONLINE - CONTROLE COMPLETO       000000000000000000+00000000000412017031000000020170409000000                                                                                                                                                    .
70000000000108100387217                20170410201704                                         C599AOTGESTOR ONLINE - CONTROLE COMPLETO       000000000000000000+00000000000412017031000000020170409000000                                                                                                                                                    .
70000000000109100387217                20170410201704                                         C599AOTGESTOR ONLINE - CONTROLE COMPLETO       000000000000000000+00000000000412017031000000020170409000000                                                                                                                                                    .
70000000000110100387217                20170410201704                                         C599AOTGESTOR ONLINE - CONTROLE COMPLETO       000000000000000000+00000000000412017031000000020170409000000                                                                                                                                                    .
70000000000111100387217                20170410201704                                         C599AOTGESTOR ONLINE - CONTROLE COMPLETO       000000000000000000+00000000000412017031000000020170409000000                                                                                                                                                    .
70000000000112100387217                20170410201704                                         C599AOTGESTOR ONLINE - CONTROLE COMPLETO       000000000000000000+00000000000412017031000000020170409000000                                                                                                                                                    .
70000000000113100387217                20170410201704                                         C599AOTGESTOR ONLINE - CONTROLE COMPLETO       000000000000000000+00000000000412017031000000020170409000000                                                                                                                                                    .
70000000000114100387217                20170410201704                                         C599AOTGESTOR ONLINE - CONTROLE COMPLETO       000000000000000000+00000000000412017031000000020170409000000                                                                                                                                                    .
70000000000115100387217                20170410201704                                         C599AOTGESTOR ONLINE - CONTROLE COMPLETO       000000000000000000+00000000000412017031000000020170409000000                                                                                                                                                    .
70000000000116100387217                20170410201704                                         C599AOTGESTOR ONLINE - CONTROLE COMPLETO       000000000000000000+00000000000412017031000000020170409000000                                                                                                                                                    .
70000000000117100387217                20170410201704                                         C599AOTGESTOR ONLINE - CONTROLE COMPLETO       000000000000000000+00000000000412017031000000020170409000000                                                                                                                                                    .
70000000000118100387217                20170410201704                                         C599AOTGESTOR ONLINE - CONTROLE COMPLETO       000000000000000000+00000000000412017031000000020170409000000                                                                                                                                                    .
70000000000119100387217                20170410201704                                         C599AOTGESTOR ONLINE - CONTROLE COMPLETO       000000000000000000+00000000000412017031000000020170409000000                                                                                                                                                    .
70000000000120100387217                20170410201704                                         C599AOTGESTOR ONLINE - CONTROLE COMPLETO       000000000000000000+00000000000412017031000000020170409000000                                                                                                                                                    .
70000000000121100387217                20170410201704                                         C599AOTGESTOR ONLINE - CONTROLE COMPLETO       000000000000000000+00000000000412017031000000020170409000000                                                                                                                                                    .
70000000000122100387217                20170410201704                                         C599AOTGESTOR ONLINE - CONTROLE COMPLETO       000000000000000000+00000000000412017031000000020170409000000                                                                                                                                                    .
70000000000123100387217                20170410201704                                         C599AOTGESTOR ONLINE - CONTROLE COMPLETO       000000000000000000+00000000000412017031000000020170409000000                                                                                                                                                    .
70000000000124100387217                20170410201704                                         C599AOTGESTOR ONLINE - CONTROLE COMPLETO       000000000000000000+00000000000412017031000000020170409000000                                                                                                                                                    .
70000000000125100387217                20170410201704                                         C599AOTGESTOR ONLINE - CONTROLE COMPLETO       000000000000000000+00000000000412017031000000020170409000000                                                                                                                                                    .
70000000000126100387217                20170410201704                                         C599AOTGESTOR ONLINE - CONTROLE COMPLETO       000000000000000000+00000000000412017031000000020170409000000                                                                                                                                                    .
70000000000127100387217                20170410201704                                         C599AOTGESTOR ONLINE - CONTROLE COMPLETO       000000000000000000+00000000000412017031000000020170409000000                                                                                                                                                    .
70000000000128100387217                20170410201704                                         C599AOTGESTOR ONLINE - CONTROLE COMPLETO       000000000000000000+00000000000412017031000000020170409000000                                                                                                                                                    .
70000000000129100387217                20170410201704                                         C599AOTGESTOR ONLINE - CONTROLE COMPLETO       000000000000000000+00000000000412017031000000020170409000000                                                                                                                                                    .
70000000000130100387217                20170410201704                                         C599AOTGESTOR ONLINE - CONTROLE COMPLETO       000000000000000000+00000000000412017031000000020170409000000                                                                                                                                                    .
70000000000131100387217                20170410201704                                         C599AOTGESTOR ONLINE - CONTROLE COMPLETO       000000000000000000+00000000000412017031000000020170409000000                                                                                                                                                    .
70000000000132100387217                20170410201704                                         C599AOTGESTOR ONLINE - CONTROLE COMPLETO       000000000000000000+00000000000412017031000000020170409000000                                                                                                                                                    .
70000000000133100387217                20170410201704                                         C599AOTGESTOR ONLINE - CONTROLE COMPLETO       000000000000000000+00000000000412017031000000020170409000000                                                                                                                                                    .
70000000000134100387217                20170410201704                                         C599AOTGESTOR ONLINE - CONTROLE COMPLETO       000000000000000000+00000000000412017031000000020170409000000                                                                                                                                                    .
70000000000135100387217                20170410201704                                         C599AOTGESTOR ONLINE - CONTROLE COMPLETO       000000000000000000+00000000000412017031000000020170409000000                                                                                                                                                    .
70000000000136100387217                20170410201704                                         C599AOTGESTOR ONLINE - CONTROLE COMPLETO       000000000000000000+00000000000412017031000000020170409000000                                                                                                                                                    .
70000000000137100387217                20170410201704                                         C599AOTGESTOR ONLINE - CONTROLE COMPLETO       000000000000000000+00000000000412017031000000020170409000000                                                                                                                                                    .
70000000000138100387217                20170410201704                                         C599AOTGESTOR ONLINE - CONTROLE COMPLETO       000000000000000000+00000000000412017031000000020170409000000                                                                                                                                                    .
70000000000139100387217                20170410201704                                         C599AOTGESTOR ONLINE - CONTROLE COMPLETO       000000000000000000+00000000000412017031000000020170409000000                                                                                                                                                    .
70000000000140100387217                20170410201704                                         C599AOTGESTOR ONLINE - CONTROLE COMPLETO       000000000000000000+00000000000412017031000000020170409000000                                                                                                                                                    .
70000000000141100387217                20170410201704                                         C599AOTGESTOR ONLINE - CONTROLE COMPLETO       000000000000000000+00000000000412017031000000020170409000000                                                                                                                                                    .
70000000000142100387217                20170410201704                                         C599AOTGESTOR ONLINE - CONTROLE COMPLETO       000000000000000000+00000000000412017031000000020170409000000                                                                                                                                                    .
70000000000143100387217                20170410201704                                         C599AOTGESTOR ONLINE - CONTROLE COMPLETO       000000000000000000+00000000000412017031000000020170409000000                                                                                                                                                    .
70000000000144100387217                20170410201704                                         C599AOTGESTOR ONLINE - CONTROLE COMPLETO       000000000000000000+00000000000412017031000000020170409000000                                                                                                                                                    .
70000000000145100387217                20170410201704                                         C599AOTGESTOR ONLINE - CONTROLE COMPLETO       000000000000000000+00000000000412017031000000020170409000000                                                                                                                                                    .
70000000000146100387217                20170410201704                                         C599AOTGESTOR ONLINE - CONTROLE COMPLETO       000000000000000000+00000000000412017031000000020170409000000                                                                                                                                                    .
70000000000147100387217                20170410201704                                         C599AOTGESTOR ONLINE - CONTROLE COMPLETO       000000000000000000+00000000000412017031000000020170409000000                                                                                                                                                    .
70000000000148100387217                20170410201704                                         C599AOTGESTOR ONLINE - CONTROLE COMPLETO       000000000000000000+00000000000412017031000000020170409000000                                                                                                                                                    .
70000000000149100387217                20170410201704                                         C599AOTGESTOR ONLINE - CONTROLE COMPLETO       000000000000000000+00000000000412017031000000020170409000000                                                                                                                                                    .
70000000000150100387217                20170410201704                                         C599AOTGESTOR ONLINE - CONTROLE COMPLETO       000000000000000000+00000000000412017031000000020170409000000                                                                                                                                                    .
70000000000151100387217                20170410201704                                         C599AOTGESTOR ONLINE - CONTROLE COMPLETO       000000000000000000+00000000000412017031000000020170409000000                                                                                                                                                    .
70000000000152100387217                20170410201704                                         C599AOTGESTOR ONLINE - CONTROLE COMPLETO       000000000000000000+00000000000412017031000000020170409000000                                                                                                                                                    .
70000000000153100387217                20170410201704                                         C599AOTGESTOR ONLINE - CONTROLE COMPLETO       000000000000000000+00000000000412017031000000020170409000000                                                                                                                                                    .
70000000000154100387217                20170410201704                                         C599AOTGESTOR ONLINE - CONTROLE COMPLETO       000000000000000000+00000000000412017031000000020170409000000                                                                                                                                                    .
70000000000155100387217                20170410201704                                         C599AOTGESTOR ONLINE - CONTROLE COMPLETO       000000000000000000+00000000000412017031000000020170409000000                                                                                                                                                    .
70000000000156100387217                20170410201704                                         C599AOTGESTOR ONLINE - CONTROLE COMPLETO       000000000000000000+00000000000412017031000000020170409000000                                                                                                                                                    .
70000000000157100387217                20170410201704                                         C599AOTGESTOR ONLINE - CONTROLE COMPLETO       000000000000000000+00000000000412017031000000020170409000000                                                                                                                                                    .
70000000000158100387217                20170410201704                                         C599AOTGESTOR ONLINE - CONTROLE COMPLETO       000000000000000000+00000000000412017031000000020170409000000                                                                                                                                                    .
70000000000159100387217                20170410201704                                         C599AOTGESTOR ONLINE - CONTROLE COMPLETO       000000000000000000+00000000000412017031000000020170409000000                                                                                                                                                    .
70000000000160100387217                20170410201704                                         C599AOTGESTOR ONLINE - CONTROLE COMPLETO       000000000000000000+00000000000412017031000000020170409000000                                                                                                                                                    .
70000000000161100387217                20170410201704                                         C599AOTGESTOR ONLINE - CONTROLE COMPLETO       000000000000000000+00000000000412017031000000020170409000000                                                                                                                                                    .
70000000000162100387217                20170410201704                                         C599AOTGESTOR ONLINE - CONTROLE COMPLETO       000000000000000000+00000000000412017031000000020170409000000                                                                                                                                                    .
70000000000163100387217                20170410201704                                         C599AOTGESTOR ONLINE - CONTROLE COMPLETO       000000000000000000+00000000000412017031000000020170409000000                                                                                                                                                    .
70000000000164100387217                20170410201704                                         C599AOTGESTOR ONLINE - CONTROLE COMPLETO       000000000000000000+00000000000412017031000000020170409000000                                                                                                                                                    .
70000000000165100387217                20170410201704                                         C599AOTGESTOR ONLINE - CONTROLE COMPLETO       000000000000000000+00000000000412017031000000020170409000000                                                                                                                                                    .
70000000000166100387217                20170410201704                                         C599AOTGESTOR ONLINE - CONTROLE COMPLETO       000000000000000000+00000000000412017031000000020170409000000                                                                                                                                                    .
70000000000167100387217                20170410201704                                         C599AOTGESTOR ONLINE - CONTROLE COMPLETO       000000000000000000+00000000000412017031000000020170409000000                                                                                                                                                    .
70000000000168100387217                20170410201704                                         C599AOTGESTOR ONLINE - CONTROLE COMPLETO       000000000000000000+00000000000412017031000000020170409000000                                                                                                                                                    .
70000000000169100387217                20170410201704                                         C599AOTGESTOR ONLINE - CONTROLE COMPLETO       000000000000000000+00000000000412017031000000020170409000000                                                                                                                                                    .
70000000000170100387217                20170410201704                                         C599AOTGESTOR ONLINE - CONTROLE COMPLETO       000000000000000000+00000000000412017031000000020170409000000                                                                                                                                                    .
70000000000171100387217                20170410201704                                         C599AOTGESTOR ONLINE - CONTROLE COMPLETO       000000000000000000+00000000000412017031000000020170409000000                                                                                                                                                    .
70000000000172100387217                20170410201704                                         C599AOTGESTOR ONLINE - CONTROLE COMPLETO       000000000000000000+00000000000412017031000000020170409000000                                                                                                                                                    .
70000000000173100387217                20170410201704                                         C599AOTGESTOR ONLINE - CONTROLE COMPLETO       000000000000000000+00000000000412017031000000020170409000000                                                                                                                                                    .
70000000000174100387217                20170410201704                                         C599AOTGESTOR ONLINE - CONTROLE COMPLETO       000000000000000000+00000000000412017031000000020170409000000                                                                                                                                                    .
70000000000175100387217                20170410201704                                         C599AOTGESTOR ONLINE - CONTROLE COMPLETO       000000000000000000+00000000000412017031000000020170409000000                                                                                                                                                    .
70000000000176100387217                20170410201704                                         C599AOTGESTOR ONLINE - CONTROLE COMPLETO       000000000000000000+00000000000412017031000000020170409000000                                                                                                                                                    .
70000000000177100387217                20170410201704                                         C599AOTGESTOR ONLINE - CONTROLE COMPLETO       000000000000000000+00000000000412017031000000020170409000000                                                                                                                                                    .
70000000000178100387217                20170410201704                                         C599AOTGESTOR ONLINE - CONTROLE COMPLETO       000000000000000000+00000000000412017031000000020170409000000                                                                                                                                                    .
70000000000179100387217                20170410201704                                         C599AOTGESTOR ONLINE - CONTROLE COMPLETO       000000000000000000+00000000000412017031000000020170409000000                                                                                                                                                    .
70000000000180100387217                20170410201704                                         C599AOTGESTOR ONLINE - CONTROLE COMPLETO       000000000000000000+00000000000412017031000000020170409000000                                                                                                                                                    .
70000000000181100387217                20170410201704                                         C599AOTGESTOR ONLINE - CONTROLE COMPLETO       000000000000000000+00000000000412017031000000020170409000000                                                                                                                                                    .
70000000000182100387217                20170410201704                                         C599AOTGESTOR ONLINE - CONTROLE COMPLETO       000000000000000000+00000000000412017031000000020170409000000                                                                                                                                                    .
70000000000183100387217                20170410201704                                         C599AOTGESTOR ONLINE - CONTROLE COMPLETO       000000000000000000+00000000000412017031000000020170409000000                                                                                                                                                    .
70000000000184100387217                20170410201704                                         C599AOTGESTOR ONLINE - CONTROLE COMPLETO       000000000000000000+00000000000412017031000000020170409000000                                                                                                                                                    .
70000000000185100387217                20170410201704                                         C599AOTGESTOR ONLINE - CONTROLE COMPLETO       000000000000000000+00000000000412017031000000020170409000000                                                                                                                                                    .
70000000000186100387217                20170410201704                                         C599AOTGESTOR ONLINE - CONTROLE COMPLETO       000000000000000000+00000000000412017031000000020170409000000                                                                                                                                                    .
70000000000187100387217                20170410201704                                         C599AOTGESTOR ONLINE - CONTROLE COMPLETO       000000000000000000+00000000000412017031000000020170409000000                                                                                                                                                    .
70000000000188100387217                20170410201704                                         C599AOTGESTOR ONLINE - CONTROLE COMPLETO       000000000000000000+00000000000412017031000000020170409000000                                                                                                                                                    .
70000000000189100387217                20170410201704                                         C599AOTGESTOR ONLINE - CONTROLE COMPLETO       000000000000000000+00000000000412017031000000020170409000000                                                                                                                                                    .
70000000000190100387217                20170410201704                                         C599AOTGESTOR ONLINE - CONTROLE COMPLETO       000000000000000000+00000000000412017031000000020170409000000                                                                                                                                                    .
70000000000191100387217                20170410201704                                         C599AOTGESTOR ONLINE - CONTROLE COMPLETO       000000000000000000+00000000000412017031000000020170409000000                                                                                                                                                    .
70000000000192100387217                20170410201704                                         C599AOTGESTOR ONLINE - CONTROLE COMPLETO       000000000000000000+00000000000412017031000000020170409000000                                                                                                                                                    .
70000000000193100387217                20170410201704                                         C599AOTGESTOR ONLINE - CONTROLE COMPLETO       000000000000000000+00000000000412017031000000020170409000000                                                                                                                                                    .
70000000000194100387217                20170410201704                                         C599AOTGESTOR ONLINE - CONTROLE COMPLETO       000000000000000000+00000000000412017031000000020170409000000                                                                                                                                                    .
70000000000195100387217                20170410201704                                         C599AOTGESTOR ONLINE - CONTROLE COMPLETO       000000000000000000+00000000000412017031000000020170409000000                                                                                                                                                    .
70000000000196100387217                20170410201704                                         C599AOTGESTOR ONLINE - CONTROLE COMPLETO       000000000000000000+00000000000412017031000000020170409000000                                                                                                                                                    .
70000000000197100387217                20170410201704                                         C599AOTGESTOR ONLINE - CONTROLE COMPLETO       000000000000000000+00000000000412017031000000020170409000000                                                                                                                                                    .
70000000000198100387217                20170410201704                                         C599AOTGESTOR ONLINE - CONTROLE COMPLETO       000000000000000000+00000000000412017031000000020170409000000                                                                                                                                                    .
70000000000199100387217                20170410201704                                         C599AOTGESTOR ONLINE - CONTROLE COMPLETO       000000000000000000+00000000000412017031000000020170409000000                                                                                                                                                    .
70000000000200100387217                20170410201704                                         C599AOTGESTOR ONLINE - CONTROLE COMPLETO       000000000000000000+00000000000412017031000000020170409000000                                                                                                                                                    .
70000000000201100387217                20170410201704                                         C599AOTGESTOR ONLINE - CONTROLE COMPLETO       000000000000000000+00000000000412017031000000020170409000000                                                                                                                                                    .
70000000000202100387217                20170410201704                                         C599AOTGESTOR ONLINE - CONTROLE COMPLETO       000000000000000000+00000000000412017031000000020170409000000                                                                                                                                                    .
70000000000203100387217                20170410201704                                         C599AOTGESTOR ONLINE - CONTROLE COMPLETO       000000000000000000+00000000000412017031000000020170409000000                                                                                                                                                    .
70000000000204100387217                20170410201704                                         C599AOTGESTOR ONLINE - CONTROLE COMPLETO       000000000000000000+00000000000412017031000000020170409000000                                                                                                                                                    .
70000000000205100387217                20170410201704                                         C599AOTGESTOR ONLINE - CONTROLE COMPLETO       000000000000000000+00000000000412017031000000020170409000000                                                                                                                                                    .
70000000000206100387217                20170410201704                                         C599AOTGESTOR ONLINE - CONTROLE COMPLETO       000000000000000000+00000000000412017031000000020170409000000                                                                                                                                                    .
70000000000207100387217                20170410201704                                         C599AOTGESTOR ONLINE - CONTROLE COMPLETO       000000000000000000+00000000000412017031000000020170409000000                                                                                                                                                    .
70000000000208100387217                20170410201704                                         C599AOTGESTOR ONLINE - CONTROLE COMPLETO       000000000000000000+00000000000412017031000000020170409000000                                                                                                                                                    .
70000000000209100387217                20170410201704                                         C599AOTGESTOR ONLINE - CONTROLE COMPLETO       000000000000000000+00000000000412017031000000020170409000000                                                                                                                                                    .
70000000000210100387217                20170410201704                                         C599AOTGESTOR ONLINE - CONTROLE COMPLETO       000000000000000000+00000000000412017031000000020170409000000                                                                                                                                                    .
70000000000211100387217                20170410201704                                         C599AOTGESTOR ONLINE - CONTROLE COMPLETO       000000000000000000+00000000000412017031000000020170409000000                                                                                                                                                    .
70000000000212100387217                20170410201704                                         C599AOTGESTOR ONLINE - CONTROLE COMPLETO       000000000000000000+00000000000412017031000000020170409000000                                                                                                                                                    .
70000000000213100387217                20170410201704                                         C599AOTGESTOR ONLINE - CONTROLE COMPLETO       000000000000000000+00000000000412017031000000020170409000000                                                                                                                                                    .
70000000000214100387217                20170410201704                                         C599AOTGESTOR ONLINE - CONTROLE COMPLETO       000000000000000000+00000000000412017031000000020170409000000                                                                                                                                                    .
70000000000215100387217                20170410201704                                         C599AOTGESTOR ONLINE - CONTROLE COMPLETO       000000000000000000+00000000000412017031000000020170409000000                                                                                                                                                    .
70000000000216100387217                20170410201704                                         C599AOTGESTOR ONLINE - CONTROLE COMPLETO       000000000000000000+00000000000412017031000000020170409000000                                                                                                                                                    .
70000000000217100387217                20170410201704                                         C599AOTGESTOR ONLINE - CONTROLE COMPLETO       000000000000000000+00000000000412017031000000020170409000000                                                                                                                                                    .
70000000000218100387217                20170410201704                                         C599AOTGESTOR ONLINE - CONTROLE COMPLETO       000000000000000000+00000000000412017031000000020170409000000                                                                                                                                                    .
70000000000219100387217                20170410201704                                         C599AOTGESTOR ONLINE - CONTROLE COMPLETO       000000000000000000+00000000000412017031000000020170409000000                                                                                                                                                    .
70000000000220100387217                20170410201704                                         C599AOTGESTOR ONLINE - CONTROLE COMPLETO       000000000000000000+00000000000412017031000000020170409000000                                                                                                                                                    .
70000000000221100387217                20170410201704                                         C599AOTGESTOR ONLINE - CONTROLE COMPLETO       000000000000000000+00000000000412017031000000020170409000000                                                                                                                                                    .
70000000000222100387217                20170410201704                                         C599AOTGESTOR ONLINE - CONTROLE COMPLETO       000000000000000000+00000000000412017031000000020170409000000                                                                                                                                                    .
70000000000223100387217                20170410201704                                         C599AOTGESTOR ONLINE - CONTROLE COMPLETO       000000000000000000+00000000000412017031000000020170409000000                                                                                                                                                    .
70000000000224100387217                20170410201704                                         C599AOTGESTOR ONLINE - CONTROLE COMPLETO       000000000000000000+00000000000412017031000000020170409000000                                                                                                                                                    .
70000000000225100387217                20170410201704                                         C599AOTGESTOR ONLINE - CONTROLE COMPLETO       000000000000000000+00000000000482017031000000020170409000000                                                                                                                                                    .
70000000000226100387217                20170410201704                                         C599AOTGESTOR ONLINE - CONTROLE COMPLETO       000000000000000000+00000000001062017031000000020170409000000                                                                                                                                                    .
70000000000227100387217                20170410201704                                         C599AOTGESTOR ONLINE - CONTROLE COMPLETO       000000000000000000+00000000001062017031000000020170409000000                                                                                                                                                    .
70000000000228100387217                20170410201704                                         C599AOTGESTOR ONLINE - CONTROLE COMPLETO       000000000000000000+00000000001062017031000000020170409000000                                                                                                                                                    .
70000000000229100387217                20170410201704                                         C599AOTGESTOR ONLINE - CONTROLE COMPLETO       000000000000000000+00000000001062017031000000020170409000000                                                                                                                                                    .
70000000000230100387217                20170410201704                                         C599AOTGESTOR ONLINE - CONTROLE COMPLETO       000000000000000000+00000000001062017031000000020170409000000                                                                                                                                                    .
70000000000231100387217                20170410201704                                         C599AOTGESTOR ONLINE - CONTROLE COMPLETO       000000000000000000+00000000001162017031000000020170409000000                                                                                                                                                    .
70000000000232100387217                20170410201704                                         C599AOTGESTOR ONLINE - CONTROLE COMPLETO       000000000000000000+00000000001452017031000000020170409000000                                                                                                                                                    .
70000000000233100387217                20170410201704                                         C599AOTGESTOR ONLINE - CONTROLE COMPLETO       000000000000000000+00000000001452017031000000020170409000000                                                                                                                                                    .
70000000000234100387217                20170410201704                                         C599AOTGESTOR ONLINE - CONTROLE COMPLETO       000000000000000000+00000000001452017031000000020170409000000                                                                                                                                                    .
70000000000235100387217                20170410201704                                         C599AOTGESTOR ONLINE - CONTROLE COMPLETO       000000000000000000+00000000001742017031000000020170409000000                                                                                                                                                    .
70000000000236100387217                20170410201704                                         C599AOTGESTOR ONLINE - CONTROLE COMPLETO       000000000000000000+00000000001742017031000000020170409000000                                                                                                                                                    .
70000000000237100387217                20170410201704                                         C599AOTGESTOR ONLINE - CONTROLE COMPLETO       000000000000000000+00000000001742017031000000020170409000000                                                                                                                                                    .
70000000000238100387217                20170410201704                                         C599AOTGESTOR ONLINE - CONTROLE COMPLETO       000000000000000000+00000000001742017031000000020170409000000                                                                                                                                                    .
70000000000239100387217                20170410201704                                         C599AOTGESTOR ONLINE - CONTROLE COMPLETO       000000000000000000+00000000001742017031000000020170409000000                                                                                                                                                    .
70000000000240100387217                20170410201704                                         C599AOTGESTOR ONLINE - CONTROLE COMPLETO       000000000000000000+00000000001742017031000000020170409000000                                                                                                                                                    .
70000000000241100387217                20170410201704                                         C599AOTGESTOR ONLINE - CONTROLE COMPLETO       000000000000000000+00000000001742017031000000020170409000000                                                                                                                                                    .
70000000000242100387217                20170410201704                                         C599AOTGESTOR ONLINE - CONTROLE COMPLETO       000000000000000000+00000000001742017031000000020170409000000                                                                                                                                                    .
70000000000243100387217                20170410201704                                         C599AOTGESTOR ONLINE - CONTROLE COMPLETO       000000000000000000+00000000001742017031000000020170409000000                                                                                                                                                    .
70000000000244100387217                20170410201704                                         C599AOTGESTOR ONLINE - CONTROLE COMPLETO       000000000000000000+00000000001742017031000000020170409000000                                                                                                                                                    .
70000000000245100387217                20170410201704                                         C599AOTGESTOR ONLINE - CONTROLE COMPLETO       000000000000000000+00000000001742017031000000020170409000000                                                                                                                                                    .
70000000000246100387217                20170410201704                                         C599AOTGESTOR ONLINE - CONTROLE COMPLETO       000000000000000000+00000000001742017031000000020170409000000                                                                                                                                                    .
70000000000247100387217                20170410201704                                         C599AOTGESTOR ONLINE - CONTROLE COMPLETO       000000000000000000+00000000001742017031000000020170409000000                                                                                                                                                    .
70000000000248100387217                20170410201704                                         C599AOTGESTOR ONLINE - CONTROLE COMPLETO       000000000000000000+00000000001742017031000000020170409000000                                                                                                                                                    .
70000000000249100387217                20170410201704                                         C599AOTGESTOR ONLINE - CONTROLE COMPLETO       000000000000000000+00000000001742017031000000020170409000000                                                                                                                                                    .
70000000000250100387217                20170410201704                                         C599AOTGESTOR ONLINE - CONTROLE COMPLETO       000000000000000000+00000000001742017031000000020170409000000                                                                                                                                                    .
70000000000251100387217                20170410201704                                         C599AOTGESTOR ONLINE - CONTROLE COMPLETO       000000000000000000+00000000001742017031000000020170409000000                                                                                                                                                    .
70000000000252100387217                20170410201704                                         C599AOTGESTOR ONLINE - CONTROLE COMPLETO       000000000000000000+00000000001742017031000000020170409000000                                                                                                                                                    .
70000000000253100387217                20170410201704                                         C599AOTGESTOR ONLINE - CONTROLE COMPLETO       000000000000000000+00000000001742017031000000020170409000000                                                                                                                                                    .
70000000000254100387217                20170410201704                                         C599AOTGESTOR ONLINE - CONTROLE COMPLETO       000000000000000000+00000000001742017031000000020170409000000                                                                                                                                                    .
70000000000255100387217                20170410201704                                         C599AOTGESTOR ONLINE - CONTROLE COMPLETO       000000000000000000+00000000001742017031000000020170409000000                                                                                                                                                    .
70000000000256100387217                20170410201704                                         C599AOTGESTOR ONLINE - CONTROLE COMPLETO       000000000000000000+00000000001742017031000000020170409000000                                                                                                                                                    .
70000000000257100387217                20170410201704                                         C599AOTGESTOR ONLINE - CONTROLE COMPLETO       000000000000000000+00000000001742017031000000020170409000000                                                                                                                                                    .
70000000000258100387217                20170410201704                                         C599AOTGESTOR ONLINE - CONTROLE COMPLETO       000000000000000000+00000000001742017031000000020170409000000                                                                                                                                                    .
70000000000259100387217                20170410201704                                         C599AOTGESTOR ONLINE - CONTROLE COMPLETO       000000000000000000+00000000001742017031000000020170409000000                                                                                                                                                    .
70000000000260100387217                20170410201704                                         C599AOTGESTOR ONLINE - CONTROLE COMPLETO       000000000000000000+00000000001742017031000000020170409000000                                                                                                                                                    .
70000000000261100387217                20170410201704                                         C599AOTGESTOR ONLINE - CONTROLE COMPLETO       000000000000000000+00000000001742017031000000020170409000000                                                                                                                                                    .
70000000000262100387217                20170410201704                                         C599AOTGESTOR ONLINE - CONTROLE COMPLETO       000000000000000000+00000000001742017031000000020170409000000                                                                                                                                                    .
70000000000263100387217                20170410201704                                         C599AOTGESTOR ONLINE - CONTROLE COMPLETO       000000000000000000+00000000001742017031000000020170409000000                                                                                                                                                    .
70000000000264100387217                20170410201704                                         C599AOTGESTOR ONLINE - CONTROLE COMPLETO       000000000000000000+00000000001742017031000000020170409000000                                                                                                                                                    .
70000000000265100387217                20170410201704                                         C599AOTGESTOR ONLINE - CONTROLE COMPLETO       000000000000000000+00000000001742017031000000020170409000000                                                                                                                                                    .
70000000000266100387217                20170410201704                                         C599AOTGESTOR ONLINE - CONTROLE COMPLETO       000000000000000000+00000000001742017031000000020170409000000                                                                                                                                                    .
70000000000267100387217                20170410201704                                         C599AOTGESTOR ONLINE - CONTROLE COMPLETO       000000000000000000+00000000001742017031000000020170409000000                                                                                                                                                    .
70000000000268100387217                20170410201704                                         C599AOTGESTOR ONLINE - CONTROLE COMPLETO       000000000000000000+00000000001742017031000000020170409000000                                                                                                                                                    .
70000000000269100387217                20170410201704                                         C599AOTGESTOR ONLINE - CONTROLE COMPLETO       000000000000000000+00000000001742017031000000020170409000000                                                                                                                                                    .
70000000000270100387217                20170410201704                                         C599AOTGESTOR ONLINE - CONTROLE COMPLETO       000000000000000000+00000000001742017031000000020170409000000                                                                                                                                                    .
70000000000271100387217                20170410201704                                         C599AOTGESTOR ONLINE - CONTROLE COMPLETO       000000000000000000+00000000001742017031000000020170409000000                                                                                                                                                    .
70000000000272100387217                20170410201704                                         C599AOTGESTOR ONLINE - CONTROLE COMPLETO       000000000000000000+00000000001742017031000000020170409000000                                                                                                                                                    .
70000000000273100387217                20170410201704                                         C599AOTGESTOR ONLINE - CONTROLE COMPLETO       000000000000000000+00000000001742017031000000020170409000000                                                                                                                                                    .
70000000000274100387217                20170410201704                                         C599AOTGESTOR ONLINE - CONTROLE COMPLETO       000000000000000000+00000000001742017031000000020170409000000                                                                                                                                                    .
70000000000275100387217                20170410201704                                         C599AOTGESTOR ONLINE - CONTROLE COMPLETO       000000000000000000+00000000001742017031000000020170409000000                                                                                                                                                    .
70000000000276100387217                20170410201704                                         C599AOTGESTOR ONLINE - CONTROLE COMPLETO       000000000000000000+00000000001742017031000000020170409000000                                                                                                                                                    .
70000000000277100387217                20170410201704                                         C599AOTGESTOR ONLINE - CONTROLE COMPLETO       000000000000000000+00000000001742017031000000020170409000000                                                                                                                                                    .
70000000000278100387217                20170410201704                                         C599AOTGESTOR ONLINE - CONTROLE COMPLETO       000000000000000000+00000000001742017031000000020170409000000                                                                                                                                                    .
70000000000279100387217                20170410201704                                         C599AOTGESTOR ONLINE - CONTROLE COMPLETO       000000000000000000+00000000001742017031000000020170409000000                                                                                                                                                    .
70000000000280100387217                20170410201704                                         C599AOTGESTOR ONLINE - CONTROLE COMPLETO       000000000000000000+00000000001742017031000000020170409000000                                                                                                                                                    .
70000000000281100387217                20170410201704                                         C599AOTGESTOR ONLINE - CONTROLE COMPLETO       000000000000000000+00000000001742017031000000020170409000000                                                                                                                                                    .
70000000000282100387217                20170410201704                                         C599AOTGESTOR ONLINE - CONTROLE COMPLETO       000000000000000000+00000000001742017031000000020170409000000                                                                                                                                                    .
70000000000283100387217                20170410201704                                         C599AOTGESTOR ONLINE - CONTROLE COMPLETO       000000000000000000+00000000001742017031000000020170409000000                                                                                                                                                    .
70000000000284100387217                20170410201704                                         C599AOTGESTOR ONLINE - CONTROLE COMPLETO       000000000000000000+00000000001742017031000000020170409000000                                                                                                                                                    .
