000000000000120170410VIVO           MG03003947950    CHOPP CONTROL AUDITORIA DE BEBIDAS      08453543000176 0300394795     042017    2017042820170406                                                                                                                                                                                                         
100000000000203003947950    042017    20170428201704060300987557               00000AREA - 032               32984039904 SMP Serviço Móvel Pessoal              LM-Linha Móvel            00000000000000002017030620170405MIN  0000000+0000000000000+000000000000025+0000000000163+0000000000000000001927685+0000000000650                                    
400000000000320170428201704060300987557               3200032984039904 LM-Linha Móvel 2017030632000                           0 00VIVO MG                                000000      SUBServiços Contratados          SAFVIVO EMPRESAS FLEX ASSIN                +000000000010000000                                                                          
400000000000420170428201704060300987557               3200032984039904 LM-Linha Móvel 2017030632000                           0 00VIVO MG                                000000      SUBServiços Contratados          SAFSERVICO GESTAO                          +000000000000000000                                                                          
400000000000520170428201704060300987557               3200032984039904 LM-Linha Móvel 2017030632000                           0 00VIVO MG                                000000      SUBServiços Contratados          SAFPACOTE GESTAO COMPLETO                  +000000000000000000                                                                          
400000000000620170428201704060300987557               3200032984039904 LM-Linha Móvel 2017030632000                           0 00VIVO MG                                000000      SUBServiços Contratados          SAFINTRAGRUPO LOCAL 2.000 MINUTOS          +000000000010000000                                                                          
400000000000720170428201704060300987557               3200032984039904 LM-Linha Móvel 2017030632000                           0 00VIVO MG                                000000      SUBServiços Contratados          SAFPACOTE LD 01                            +000000000000000000                                                                          
400000000000820170428201704060300987557               3200032984039904 LM-Linha Móvel 2017030632000                           0 00VIVO MG                                000000      SUBServiços Contratados          SAFPAC 50 MIN FLEX COMP                    +000000000045000000                                                                          
400000000000920170428201704060300987557               3200032984039904 LM-Linha Móvel 2017030632000                           0 00VIVO MG                                000000      SUBServiços Contratados          SAFPAC CORP LD ROAMING FLEX                +000000000000000000                                                                          
100000000001003003947950    042017    20170428201704060300987615               00000AREA - 032               32991451166 SMP Serviço Móvel Pessoal              LM-Linha Móvel            00000000000000002017030620170405MIN  0000000+0000000000000+000000000000025+0000000001535+0000000000000000001927685+0000000006140                                    
300000000001120170428201704060300987615               3200032991451166 LM-Linha Móvel   2017031032000AREA 32                  MG0 00VIVO MG                32  32152879    000010VC1Para Fixo de Outras Operadoras                    1729241KNormal                   00+02500000000000000000000                                                             
300000000001220170428201704060300987615               3200032991451166 LM-Linha Móvel   2017031132000AREA 32                  MG0 00VIVO MG                32  991451177   000013VC1Para Grupo                                        1040571KNormal                   00+02500000000000000000000                                                             
300000000001320170428201704060300987615               3200032991451166 LM-Linha Móvel   2017031132000AREA 32                  MG0 00VIVO MG                32  991451177   000008VC1Para Grupo                                        1040571KNormal                   00+02500000000000000000000                                                             
300000000001420170428201704060300987615               3200032991451166 LM-Linha Móvel   2017030632000AREA 31                  MG0 15TELEFONICA             32  991451400   000029VC2Para Celulares Vivo                               1823541KNormal                   00+02500000000000002900000                                                             
300000000001520170428201704060300987615               3200032991451166 LM-Linha Móvel   2017030732000AREA 31                  MG0 15TELEFONICA             32  991451300   000054VC2Para Celulares Vivo                               1238201KNormal                   00+02500000000000005400000                                                             
300000000001620170428201704060300987615               3200032991451166 LM-Linha Móvel   2017030832000AREA 31                  MG0 15TELEFONICA             32  991451400   000092VC2Para Celulares Vivo                               1120181KNormal                   00+02500000000000009200000                                                             
300000000001720170428201704060300987615               3200032991451166 LM-Linha Móvel   2017031432000AREA 31                  MG0 15TELEFONICA             32  991451300   000072VC2Para Celulares Vivo                               0938241KNormal                   00+02500000000000007200000                                                             
300000000001820170428201704060300987615               3200032991451166 LM-Linha Móvel   2017031632000AREA 31                  MG0 15TELEFONICA             32  991451300   000009VC2Para Celulares Vivo                               1203461KNormal                   00+02500000000000000900000                                                             
300000000001920170428201704060300987615               3200032991451166 LM-Linha Móvel   2017031632000AREA 31                  MG0 15TELEFONICA             32  991451400   000023VC2Para Celulares Vivo                               1205261KNormal                   00+02500000000000002300000                                                             
300000000002020170428201704060300987615               3200032991451166 LM-Linha Móvel   2017032032000AREA 31                  MG0 15TELEFONICA             32  991451400   000094VC2Para Celulares Vivo                               0805491KNormal                   00+02500000000000009400000                                                             
300000000002120170428201704060300987615               3200032991451166 LM-Linha Móvel   2017032132000AREA 31                  MG0 15TELEFONICA             32  991451300   000027VC2Para Celulares Vivo                               1323471KNormal                   00+02500000000000002700000                                                             
300000000002220170428201704060300987615               3200032991451166 LM-Linha Móvel   2017032332000AREA 31                  MG0 15TELEFONICA             32  991451300   000006VC2Para Celulares Vivo                               1140091KNormal                   00+02500000000000000600000                                                             
300000000002320170428201704060300987615               3200032991451166 LM-Linha Móvel   2017032332000AREA 31                  MG0 15TELEFONICA             32  991451400   000071VC2Para Celulares Vivo                               1143371KNormal                   00+02500000000000007100000                                                             
300000000002420170428201704060300987615               3200032991451166 LM-Linha Móvel   2017032432000AREA 31                  MG0 15TELEFONICA             32  991451400   000023VC2Para Celulares Vivo                               0845271KNormal                   00+02500000000000002300000                                                             
300000000002520170428201704060300987615               3200032991451166 LM-Linha Móvel   2017032732000AREA 31                  MG0 15TELEFONICA             32  991451300   000030VC2Para Celulares Vivo                               0921081KNormal                   00+02500000000000003000000                                                             
300000000002620170428201704060300987615               3200032991451166 LM-Linha Móvel   2017032832000AREA 31                  MG0 15TELEFONICA             32  991451300   000018VC2Para Celulares Vivo                               1217371KNormal                   00+02500000000000001800000                                                             
300000000002720170428201704060300987615               3200032991451166 LM-Linha Móvel   2017032821000AREA 31                  MG0 15TELEFONICA             21  994586922   000108VC3Para Celulares Vivo                               1226581KNormal                   00+02500000000000010800000                                                             
300000000002820170428201704060300987615               3200032991451166 LM-Linha Móvel   2017032832000AREA 31                  MG0 15TELEFONICA             32  991451400   000137VC2Para Celulares Vivo                               1705011KNormal                   00+02500000000000013700000                                                             
300000000002920170428201704060300987615               3200032991451166 LM-Linha Móvel   2017032832000AREA 31                  MG0 15TELEFONICA             32  991451400   000077VC2Para Celulares Vivo                               1718591KNormal                   00+02500000000000007700000                                                             
300000000003020170428201704060300987615               3200032991451166 LM-Linha Móvel   2017032932000AREA 31                  MG0 15TELEFONICA             32  991451300   000006VC2Para Celulares Vivo                               1149521KNormal                   00+02500000000000000600000                                                             
300000000003120170428201704060300987615               3200032991451166 LM-Linha Móvel   2017033032000AREA 31                  MG0 15TELEFONICA             32  991451300   000108VC2Para Celulares Vivo                               0949521KNormal                   00+02500000000000010800000                                                             
300000000003220170428201704060300987615               3200032991451166 LM-Linha Móvel   2017033032000AREA 31                  MG0 15TELEFONICA             32  991451400   000087VC2Para Celulares Vivo                               1316171KNormal                   00+02500000000000008700000                                                             
300000000003320170428201704060300987615               3200032991451166 LM-Linha Móvel   2017040432000AREA 31                  MG0 15TELEFONICA             32  991451300   000021VC2Para Celulares Vivo                               1057501KNormal                   00+02500000000000002100000                                                             
300000000003420170428201704060300987615               3200032991451166 LM-Linha Móvel   2017031432000AREA 31                  MG0 15TELEFONICA             32  984023179   000037VC2Para Celulares de Outras Operadoras               1033061KNormal                   00+02500000000000014800000                                                             
300000000003520170428201704060300987615               3200032991451166 LM-Linha Móvel   2017031732000AREA 31                  MG0 15TELEFONICA             32  988671972   000315VC2Para Celulares de Outras Operadoras               0856451KNormal                   00+02500000000000126000000                                                             
400000000003620170428201704060300987615               3200032991451166 LM-Linha Móvel 2017030632000                           0 00VIVO MG                                000000      SUBServiços Contratados          SAFVIVO EMPRESAS FLEX ASSIN                +000000000010000000                                                                          
400000000003720170428201704060300987615               3200032991451166 LM-Linha Móvel 2017030632000                           0 00VIVO MG                                000000      SUBServiços Contratados          SAFSERVICO GESTAO                          +000000000000000000                                                                          
400000000003820170428201704060300987615               3200032991451166 LM-Linha Móvel 2017030632000                           0 00VIVO MG                                000000      SUBServiços Contratados          SAFPACOTE GESTAO COMPLETO                  +000000000000000000                                                                          
400000000003920170428201704060300987615               3200032991451166 LM-Linha Móvel 2017030632000                           0 00VIVO MG                                000000      SUBServiços Contratados          SAFINTRAGRUPO LOCAL 2.000 MINUTOS          +000000000010000000                                                                          
400000000004020170428201704060300987615               3200032991451166 LM-Linha Móvel 2017030632000                           0 00VIVO MG                                000000      SUBServiços Contratados          SAFPACOTE LD 01                            +000000000000000000                                                                          
400000000004120170428201704060300987615               3200032991451166 LM-Linha Móvel 2017030632000                           0 00VIVO MG                                000000      SUBServiços Contratados          SAFPAC 50 MIN FLEX COMP                    +000000000045000000                                                                          
400000000004220170428201704060300987615               3200032991451166 LM-Linha Móvel 2017030632000                           0 00VIVO MG                                000000      SUBServiços Contratados          SAFPAC CORP LD ROAMING FLEX                +000000000000000000                                                                          
400000000004320170428201704060300987615               3200032991451166 LM-Linha Móvel 2017030632000                           0 00VIVO MG                                000000      SUBServiços Contratados          SAFINTERNET MOVEL 3GB EMP 4G               +000000000849000000                                                                          
400000000004420170428201704060300987615               3200032991451166 LM-Linha Móvel 2017030632000                           0 00VIVO MG                                014960071143USOVIVO Internet                 ZAPINTERNET MÓVEL 2                        +000000000000000000                                                                          
400000000004520170428201704060300987615               3200032991451166 LM-Linha Móvel 2017030632000                           0 00VIVO MG                                000155140714USOVIVO Internet                 ZAPINTERNET MÓVEL 2                        +000000000000000000                                                                          
400000000004620170428201704060300987615               3200032991451166 LM-Linha Móvel 2017030632000                           0 00VIVO MG                                064819171146USOVIVO Internet                 ZAPINTERNET MÓVEL 2                        +000000000000000000                                                                          
400000000004720170428201704060300987615               3200032991451166 LM-Linha Móvel 2017030732000                           0 00VIVO MG                                022589071354USOVIVO Internet                 ZAPINTERNET MÓVEL 2                        +000000000000000000                                                                          
400000000004820170428201704060300987615               3200032991451166 LM-Linha Móvel 2017030732000                           0 00VIVO MG                                000236152001USOVIVO Internet                 ZAPINTERNET MÓVEL 2                        +000000000000000000                                                                          
400000000004920170428201704060300987615               3200032991451166 LM-Linha Móvel 2017030732000                           0 00VIVO MG                                000037193140USOVIVO Internet                 ZAPINTERNET MÓVEL 2                        +000000000000000000                                                                          
400000000005020170428201704060300987615               3200032991451166 LM-Linha Móvel 2017030832000                           0 00VIVO MG                                000253060311USOVIVO Internet                 ZAPINTERNET MÓVEL 2                        +000000000000000000                                                                          
400000000005120170428201704060300987615               3200032991451166 LM-Linha Móvel 2017030832000                           0 00VIVO MG                                078848071217USOVIVO Internet                 ZAPINTERNET MÓVEL 2                        +000000000000000000                                                                          
400000000005220170428201704060300987615               3200032991451166 LM-Linha Móvel 2017030932000                           0 00VIVO MG                                057241071316USOVIVO Internet                 ZAPINTERNET MÓVEL 2                        +000000000000000000                                                                          
400000000005320170428201704060300987615               3200032991451166 LM-Linha Móvel 2017030932000                           0 00VIVO MG                                010444164342USOVIVO Internet                 ZAPINTERNET MÓVEL 2                        +000000000000000000                                                                          
400000000005420170428201704060300987615               3200032991451166 LM-Linha Móvel 2017031032000                           0 00VIVO MG                                040140060339USOVIVO Internet                 ZAPINTERNET MÓVEL 2                        +000000000000000000                                                                          
400000000005520170428201704060300987615               3200032991451166 LM-Linha Móvel 2017031032000                           0 00VIVO MG                                000109132528USOVIVO Internet                 ZAPINTERNET MÓVEL 2                        +000000000000000000                                                                          
400000000005620170428201704060300987615               3200032991451166 LM-Linha Móvel 2017031032000                           0 00VIVO MG                                000853161541USOVIVO Internet                 ZAPINTERNET MÓVEL 2                        +000000000000000000                                                                          
400000000005720170428201704060300987615               3200032991451166 LM-Linha Móvel 2017031032000                           0 00VIVO MG                                000031165103USOVIVO Internet                 ZAPINTERNET MÓVEL 2                        +000000000000000000                                                                          
400000000005820170428201704060300987615               3200032991451166 LM-Linha Móvel 2017031032000                           0 00VIVO MG                                000016165949USOVIVO Internet                 ZAPINTERNET MÓVEL 2                        +000000000000000000                                                                          
400000000005920170428201704060300987615               3200032991451166 LM-Linha Móvel 2017031032000                           0 00VIVO MG                                000030170124USOVIVO Internet                 ZAPINTERNET MÓVEL 2                        +000000000000000000                                                                          
400000000006020170428201704060300987615               3200032991451166 LM-Linha Móvel 2017031032000                           0 00VIVO MG                                000036170255USOVIVO Internet                 ZAPINTERNET MÓVEL 2                        +000000000000000000                                                                          
400000000006120170428201704060300987615               3200032991451166 LM-Linha Móvel 2017031032000                           0 00VIVO MG                                025907172846USOVIVO Internet                 ZAPINTERNET MÓVEL 2                        +000000000000000000                                                                          
400000000006220170428201704060300987615               3200032991451166 LM-Linha Móvel 2017031032000                           0 00VIVO MG                                000024224528USOVIVO Internet                 ZAPINTERNET MÓVEL 2                        +000000000000000000                                                                          
400000000006320170428201704060300987615               3200032991451166 LM-Linha Móvel 2017031132000                           0 00VIVO MG                                000005080652USOVIVO Internet                 ZAPINTERNET MÓVEL 2                        +000000000000000000                                                                          
400000000006420170428201704060300987615               3200032991451166 LM-Linha Móvel 2017031132000                           0 00VIVO MG                                492021081429USOVIVO Internet                 ZAPINTERNET MÓVEL 2                        +000000000000000000                                                                          
400000000006520170428201704060300987615               3200032991451166 LM-Linha Móvel 2017031232000                           0 00VIVO MG                                000004093126USOVIVO Internet                 ZAPINTERNET MÓVEL 2                        +000000000000000000                                                                          
400000000006620170428201704060300987615               3200032991451166 LM-Linha Móvel 2017031232000                           0 00VIVO MG                                000090111208USOVIVO Internet                 ZAPINTERNET MÓVEL 2                        +000000000000000000                                                                          
400000000006720170428201704060300987615               3200032991451166 LM-Linha Móvel 2017031232000                           0 00VIVO MG                                000059134218USOVIVO Internet                 ZAPINTERNET MÓVEL 2                        +000000000000000000                                                                          
400000000006820170428201704060300987615               3200032991451166 LM-Linha Móvel 2017031232000                           0 00VIVO MG                                031180140414USOVIVO Internet                 ZAPINTERNET MÓVEL 2                        +000000000000000000                                                                          
400000000006920170428201704060300987615               3200032991451166 LM-Linha Móvel 2017031232000                           0 00VIVO MG                                000062160355USOVIVO Internet                 ZAPINTERNET MÓVEL 2                        +000000000000000000                                                                          
400000000007020170428201704060300987615               3200032991451166 LM-Linha Móvel 2017031332000                           0 00VIVO MG                                060518071253USOVIVO Internet                 ZAPINTERNET MÓVEL 2                        +000000000000000000                                                                          
400000000007120170428201704060300987615               3200032991451166 LM-Linha Móvel 2017031332000                           0 00VIVO MG                                058368142018USOVIVO Internet                 ZAPINTERNET MÓVEL 2                        +000000000000000000                                                                          
400000000007220170428201704060300987615               3200032991451166 LM-Linha Móvel 2017031332000                           0 00VIVO MG                                026419164156USOVIVO Internet                 ZAPINTERNET MÓVEL 2                        +000000000000000000                                                                          
400000000007320170428201704060300987615               3200032991451166 LM-Linha Móvel 2017031332000                           0 00VIVO MG                                000108195701USOVIVO Internet                 ZAPINTERNET MÓVEL 2                        +000000000000000000                                                                          
400000000007420170428201704060300987615               3200032991451166 LM-Linha Móvel 2017031432000                           0 00VIVO MG                                000252063447USOVIVO Internet                 ZAPINTERNET MÓVEL 2                        +000000000000000000                                                                          
400000000007520170428201704060300987615               3200032991451166 LM-Linha Móvel 2017031432000                           0 00VIVO MG                                075776071701USOVIVO Internet                 ZAPINTERNET MÓVEL 2                        +000000000000000000                                                                          
400000000007620170428201704060300987615               3200032991451166 LM-Linha Móvel 2017031432000                           0 00VIVO MG                                000059140441USOVIVO Internet                 ZAPINTERNET MÓVEL 2                        +000000000000000000                                                                          
400000000007720170428201704060300987615               3200032991451166 LM-Linha Móvel 2017031432000                           0 00VIVO MG                                000028155307USOVIVO Internet                 ZAPINTERNET MÓVEL 2                        +000000000000000000                                                                          
400000000007820170428201704060300987615               3200032991451166 LM-Linha Móvel 2017031432000                           0 00VIVO MG                                000026164440USOVIVO Internet                 ZAPINTERNET MÓVEL 2                        +000000000000000000                                                                          
400000000007920170428201704060300987615               3200032991451166 LM-Linha Móvel 2017031432000                           0 00VIVO MG                                000053164519USOVIVO Internet                 ZAPINTERNET MÓVEL 2                        +000000000000000000                                                                          
400000000008020170428201704060300987615               3200032991451166 LM-Linha Móvel 2017031432000                           0 00VIVO MG                                000028164743USOVIVO Internet                 ZAPINTERNET MÓVEL 2                        +000000000000000000                                                                          
400000000008120170428201704060300987615               3200032991451166 LM-Linha Móvel 2017031432000                           0 00VIVO MG                                000090173355USOVIVO Internet                 ZAPINTERNET MÓVEL 2                        +000000000000000000                                                                          
400000000008220170428201704060300987615               3200032991451166 LM-Linha Móvel 2017031432000                           0 00VIVO MG                                000001192500USOVIVO Internet                 ZAPINTERNET MÓVEL 2                        +000000000000000000                                                                          
400000000008320170428201704060300987615               3200032991451166 LM-Linha Móvel 2017031432000                           0 00VIVO MG                                010230193138USOVIVO Internet                 ZAPINTERNET MÓVEL 2                        +000000000000000000                                                                          
400000000008420170428201704060300987615               3200032991451166 LM-Linha Móvel 2017031532000                           0 00VIVO MG                                000212063156USOVIVO Internet                 ZAPINTERNET MÓVEL 2                        +000000000000000000                                                                          
400000000008520170428201704060300987615               3200032991451166 LM-Linha Móvel 2017031532000                           0 00VIVO MG                                136837085325USOVIVO Internet                 ZAPINTERNET MÓVEL 2                        +000000000000000000                                                                          
400000000008620170428201704060300987615               3200032991451166 LM-Linha Móvel 2017031532000                           0 00VIVO MG                                000459154819USOVIVO Internet                 ZAPINTERNET MÓVEL 2                        +000000000000000000                                                                          
400000000008720170428201704060300987615               3200032991451166 LM-Linha Móvel 2017031632000                           0 00VIVO MG                                023623065553USOVIVO Internet                 ZAPINTERNET MÓVEL 2                        +000000000000000000                                                                          
400000000008820170428201704060300987615               3200032991451166 LM-Linha Móvel 2017031632000                           0 00VIVO MG                                033310141226USOVIVO Internet                 ZAPINTERNET MÓVEL 2                        +000000000000000000                                                                          
400000000008920170428201704060300987615               3200032991451166 LM-Linha Móvel 2017031632000                           0 00VIVO MG                                000683183720USOVIVO Internet                 ZAPINTERNET MÓVEL 2                        +000000000000000000                                                                          
400000000009020170428201704060300987615               3200032991451166 LM-Linha Móvel 2017031732000                           0 00VIVO MG                                016967060638USOVIVO Internet                 ZAPINTERNET MÓVEL 2                        +000000000000000000                                                                          
400000000009120170428201704060300987615               3200032991451166 LM-Linha Móvel 2017031732000                           0 00VIVO MG                                000512085642USOVIVO Internet                 ZAPINTERNET MÓVEL 2                        +000000000000000000                                                                          
400000000009220170428201704060300987615               3200032991451166 LM-Linha Móvel 2017031732000                           0 00VIVO MG                                057344165245USOVIVO Internet                 ZAPINTERNET MÓVEL 2                        +000000000000000000                                                                          
400000000009320170428201704060300987615               3200032991451166 LM-Linha Móvel 2017031732000                           0 00VIVO MG                                000048184141USOVIVO Internet                 ZAPINTERNET MÓVEL 2                        +000000000000000000                                                                          
400000000009420170428201704060300987615               3200032991451166 LM-Linha Móvel 2017031732000                           0 00VIVO MG                                000001191009USOVIVO Internet                 ZAPINTERNET MÓVEL 2                        +000000000000000000                                                                          
400000000009520170428201704060300987615               3200032991451166 LM-Linha Móvel 2017031832000                           0 00VIVO MG                                000146075132USOVIVO Internet                 ZAPINTERNET MÓVEL 2                        +000000000000000000                                                                          
400000000009620170428201704060300987615               3200032991451166 LM-Linha Móvel 2017031832000                           0 00VIVO MG                                000012093248USOVIVO Internet                 ZAPINTERNET MÓVEL 2                        +000000000000000000                                                                          
400000000009720170428201704060300987615               3200032991451166 LM-Linha Móvel 2017031832000                           0 00VIVO MG                                000073094439USOVIVO Internet                 ZAPINTERNET MÓVEL 2                        +000000000000000000                                                                          
400000000009820170428201704060300987615               3200032991451166 LM-Linha Móvel 2017031832000                           0 00VIVO MG                                000321171404USOVIVO Internet                 ZAPINTERNET MÓVEL 2                        +000000000000000000                                                                          
400000000009920170428201704060300987615               3200032991451166 LM-Linha Móvel 2017031832000                           0 00VIVO MG                                000083195819USOVIVO Internet                 ZAPINTERNET MÓVEL 2                        +000000000000000000                                                                          
400000000010020170428201704060300987615               3200032991451166 LM-Linha Móvel 2017031932000                           0 00VIVO MG                                000035091940USOVIVO Internet                 ZAPINTERNET MÓVEL 2                        +000000000000000000                                                                          
400000000010120170428201704060300987615               3200032991451166 LM-Linha Móvel 2017031932000                           0 00VIVO MG                                000376105328USOVIVO Internet                 ZAPINTERNET MÓVEL 2                        +000000000000000000                                                                          
400000000010220170428201704060300987615               3200032991451166 LM-Linha Móvel 2017031932000                           0 00VIVO MG                                000010105631USOVIVO Internet                 ZAPINTERNET MÓVEL 2                        +000000000000000000                                                                          
400000000010320170428201704060300987615               3200032991451166 LM-Linha Móvel 2017031932000                           0 00VIVO MG                                000009111512USOVIVO Internet                 ZAPINTERNET MÓVEL 2                        +000000000000000000                                                                          
400000000010420170428201704060300987615               3200032991451166 LM-Linha Móvel 2017031932000                           0 00VIVO MG                                000020130250USOVIVO Internet                 ZAPINTERNET MÓVEL 2                        +000000000000000000                                                                          
400000000010520170428201704060300987615               3200032991451166 LM-Linha Móvel 2017031932000                           0 00VIVO MG                                000782220911USOVIVO Internet                 ZAPINTERNET MÓVEL 2                        +000000000000000000                                                                          
400000000010620170428201704060300987615               3200032991451166 LM-Linha Móvel 2017031932000                           0 00VIVO MG                                000009223248USOVIVO Internet                 ZAPINTERNET MÓVEL 2                        +000000000000000000                                                                          
400000000010720170428201704060300987615               3200032991451166 LM-Linha Móvel 2017032032000                           0 00VIVO MG                                000156071721USOVIVO Internet                 ZAPINTERNET MÓVEL 2                        +000000000000000000                                                                          
400000000010820170428201704060300987615               3200032991451166 LM-Linha Móvel 2017032032000                           0 00VIVO MG                                022016071753USOVIVO Internet                 ZAPINTERNET MÓVEL 2                        +000000000000000000                                                                          
400000000010920170428201704060300987615               3200032991451166 LM-Linha Móvel 2017032032000                           0 00VIVO MG                                011591155553USOVIVO Internet                 ZAPINTERNET MÓVEL 2                        +000000000000000000                                                                          
400000000011020170428201704060300987615               3200032991451166 LM-Linha Móvel 2017032132000                           0 00VIVO MG                                016547081902USOVIVO Internet                 ZAPINTERNET MÓVEL 2                        +000000000000000000                                                                          
400000000011120170428201704060300987615               3200032991451166 LM-Linha Móvel 2017032132000                           0 00VIVO MG                                025804155358USOVIVO Internet                 ZAPINTERNET MÓVEL 2                        +000000000000000000                                                                          
400000000011220170428201704060300987615               3200032991451166 LM-Linha Móvel 2017032132000                           0 00VIVO MG                                012595165359USOVIVO Internet                 ZAPINTERNET MÓVEL 2                        +000000000000000000                                                                          
400000000011320170428201704060300987615               3200032991451166 LM-Linha Móvel 2017032132000                           0 00VIVO MG                                000877195023USOVIVO Internet                 ZAPINTERNET MÓVEL 2                        +000000000000000000                                                                          
400000000011420170428201704060300987615               3200032991451166 LM-Linha Móvel 2017032132000                           0 00VIVO MG                                000016211948USOVIVO Internet                 ZAPINTERNET MÓVEL 2                        +000000000000000000                                                                          
400000000011520170428201704060300987615               3200032991451166 LM-Linha Móvel 2017032132000                           0 00VIVO MG                                000029214302USOVIVO Internet                 ZAPINTERNET MÓVEL 2                        +000000000000000000                                                                          
400000000011620170428201704060300987615               3200032991451166 LM-Linha Móvel 2017032232000                           0 00VIVO MG                                030924072134USOVIVO Internet                 ZAPINTERNET MÓVEL 2                        +000000000000000000                                                                          
400000000011720170428201704060300987615               3200032991451166 LM-Linha Móvel 2017032232000                           0 00VIVO MG                                000175161222USOVIVO Internet                 ZAPINTERNET MÓVEL 2                        +000000000000000000                                                                          
400000000011820170428201704060300987615               3200032991451166 LM-Linha Móvel 2017032232000                           0 00VIVO MG                                000143164830USOVIVO Internet                 ZAPINTERNET MÓVEL 2                        +000000000000000000                                                                          
400000000011920170428201704060300987615               3200032991451166 LM-Linha Móvel 2017032232000                           0 00VIVO MG                                000020212353USOVIVO Internet                 ZAPINTERNET MÓVEL 2                        +000000000000000000                                                                          
400000000012020170428201704060300987615               3200032991451166 LM-Linha Móvel 2017032332000                           0 00VIVO MG                                080998071913USOVIVO Internet                 ZAPINTERNET MÓVEL 2                        +000000000000000000                                                                          
400000000012120170428201704060300987615               3200032991451166 LM-Linha Móvel 2017032332000                           0 00VIVO MG                                000001114001USOVIVO Internet                 ZAPINTERNET MÓVEL 2                        +000000000000000000                                                                          
400000000012220170428201704060300987615               3200032991451166 LM-Linha Móvel 2017032332000                           0 00VIVO MG                                000001114220USOVIVO Internet                 ZAPINTERNET MÓVEL 2                        +000000000000000000                                                                          
400000000012320170428201704060300987615               3200032991451166 LM-Linha Móvel 2017032332000                           0 00VIVO MG                                000028114524USOVIVO Internet                 ZAPINTERNET MÓVEL 2                        +000000000000000000                                                                          
400000000012420170428201704060300987615               3200032991451166 LM-Linha Móvel 2017032332000                           0 00VIVO MG                                000076135302USOVIVO Internet                 ZAPINTERNET MÓVEL 2                        +000000000000000000                                                                          
400000000012520170428201704060300987615               3200032991451166 LM-Linha Móvel 2017032332000                           0 00VIVO MG                                000036183817USOVIVO Internet                 ZAPINTERNET MÓVEL 2                        +000000000000000000                                                                          
400000000012620170428201704060300987615               3200032991451166 LM-Linha Móvel 2017032332000                           0 00VIVO MG                                000034185023USOVIVO Internet                 ZAPINTERNET MÓVEL 2                        +000000000000000000                                                                          
400000000012720170428201704060300987615               3200032991451166 LM-Linha Móvel 2017032432000                           0 00VIVO MG                                000194061018USOVIVO Internet                 ZAPINTERNET MÓVEL 2                        +000000000000000000                                                                          
400000000012820170428201704060300987615               3200032991451166 LM-Linha Móvel 2017032432000                           0 00VIVO MG                                016916071449USOVIVO Internet                 ZAPINTERNET MÓVEL 2                        +000000000000000000                                                                          
400000000012920170428201704060300987615               3200032991451166 LM-Linha Móvel 2017032432000                           0 00VIVO MG                                010219144314USOVIVO Internet                 ZAPINTERNET MÓVEL 2                        +000000000000000000                                                                          
400000000013020170428201704060300987615               3200032991451166 LM-Linha Móvel 2017032432000                           0 00VIVO MG                                013875181230USOVIVO Internet                 ZAPINTERNET MÓVEL 2                        +000000000000000000                                                                          
400000000013120170428201704060300987615               3200032991451166 LM-Linha Móvel 2017032532000                           0 00VIVO MG                                070553100718USOVIVO Internet                 ZAPINTERNET MÓVEL 2                        +000000000000000000                                                                          
400000000013220170428201704060300987615               3200032991451166 LM-Linha Móvel 2017032532000                           0 00VIVO MG                                026245185052USOVIVO Internet                 ZAPINTERNET MÓVEL 2                        +000000000000000000                                                                          
400000000013320170428201704060300987615               3200032991451166 LM-Linha Móvel 2017032632000                           0 00VIVO MG                                000317134122USOVIVO Internet                 ZAPINTERNET MÓVEL 2                        +000000000000000000                                                                          
400000000013420170428201704060300987615               3200032991451166 LM-Linha Móvel 2017032632000                           0 00VIVO MG                                000066195514USOVIVO Internet                 ZAPINTERNET MÓVEL 2                        +000000000000000000                                                                          
400000000013520170428201704060300987615               3200032991451166 LM-Linha Móvel 2017032732000                           0 00VIVO MG                                000888071949USOVIVO Internet                 ZAPINTERNET MÓVEL 2                        +000000000000000000                                                                          
400000000013620170428201704060300987615               3200032991451166 LM-Linha Móvel 2017032732000                           0 00VIVO MG                                000367092420USOVIVO Internet                 ZAPINTERNET MÓVEL 2                        +000000000000000000                                                                          
400000000013720170428201704060300987615               3200032991451166 LM-Linha Móvel 2017032732000                           0 00VIVO MG                                024186104404USOVIVO Internet                 ZAPINTERNET MÓVEL 2                        +000000000000000000                                                                          
400000000013820170428201704060300987615               3200032991451166 LM-Linha Móvel 2017032832000                           0 00VIVO MG                                000042070046USOVIVO Internet                 ZAPINTERNET MÓVEL 2                        +000000000000000000                                                                          
400000000013920170428201704060300987615               3200032991451166 LM-Linha Móvel 2017032832000                           0 00VIVO MG                                066785100117USOVIVO Internet                 ZAPINTERNET MÓVEL 2                        +000000000000000000                                                                          
400000000014020170428201704060300987615               3200032991451166 LM-Linha Móvel 2017032932000                           0 00VIVO MG                                026685060204USOVIVO Internet                 ZAPINTERNET MÓVEL 2                        +000000000000000000                                                                          
400000000014120170428201704060300987615               3200032991451166 LM-Linha Móvel 2017033032000                           0 00VIVO MG                                000652060449USOVIVO Internet                 ZAPINTERNET MÓVEL 2                        +000000000000000000                                                                          
400000000014220170428201704060300987615               3200032991451166 LM-Linha Móvel 2017033032000                           0 00VIVO MG                                017141131530USOVIVO Internet                 ZAPINTERNET MÓVEL 2                        +000000000000000000                                                                          
400000000014320170428201704060300987615               3200032991451166 LM-Linha Móvel 2017033032000                           0 00VIVO MG                                000520213618USOVIVO Internet                 ZAPINTERNET MÓVEL 2                        +000000000000000000                                                                          
400000000014420170428201704060300987615               3200032991451166 LM-Linha Móvel 2017033132000                           0 00VIVO MG                                028672081840USOVIVO Internet                 ZAPINTERNET MÓVEL 2                        +000000000000000000                                                                          
400000000014520170428201704060300987615               3200032991451166 LM-Linha Móvel 2017033132000                           0 00VIVO MG                                010168140558USOVIVO Internet                 ZAPINTERNET MÓVEL 2                        +000000000000000000                                                                          
400000000014620170428201704060300987615               3200032991451166 LM-Linha Móvel 2017033132000                           0 00VIVO MG                                000140142912USOVIVO Internet                 ZAPINTERNET MÓVEL 2                        +000000000000000000                                                                          
400000000014720170428201704060300987615               3200032991451166 LM-Linha Móvel 2017040132000                           0 00VIVO MG                                000487112713USOVIVO Internet                 ZAPINTERNET MÓVEL 2                        +000000000000000000                                                                          
400000000014820170428201704060300987615               3200032991451166 LM-Linha Móvel 2017040232000                           0 00VIVO MG                                000010090728USOVIVO Internet                 ZAPINTERNET MÓVEL 2                        +000000000000000000                                                                          
400000000014920170428201704060300987615               3200032991451166 LM-Linha Móvel 2017040232000                           0 00VIVO MG                                000098100723USOVIVO Internet                 ZAPINTERNET MÓVEL 2                        +000000000000000000                                                                          
400000000015020170428201704060300987615               3200032991451166 LM-Linha Móvel 2017040232000                           0 00VIVO MG                                054497123153USOVIVO Internet                 ZAPINTERNET MÓVEL 2                        +000000000000000000                                                                          
400000000015120170428201704060300987615               3200032991451166 LM-Linha Móvel 2017040232000                           0 00VIVO MG                                000429161248USOVIVO Internet                 ZAPINTERNET MÓVEL 2                        +000000000000000000                                                                          
400000000015220170428201704060300987615               3200032991451166 LM-Linha Móvel 2017040232000                           0 00VIVO MG                                210257163925USOVIVO Internet                 ZAPINTERNET MÓVEL 2                        +000000000000000000                                                                          
400000000015320170428201704060300987615               3200032991451166 LM-Linha Móvel 2017040232000                           0 00VIVO MG                                039219165909USOVIVO Internet                 ZAPINTERNET MÓVEL 2                        +000000000000000000                                                                          
400000000015420170428201704060300987615               3200032991451166 LM-Linha Móvel 2017040232000                           0 00VIVO MG                                016762182301USOVIVO Internet                 ZAPINTERNET MÓVEL 2                        +000000000000000000                                                                          
400000000015520170428201704060300987615               3200032991451166 LM-Linha Móvel 2017040332000                           0 00VIVO MG                                035942071808USOVIVO Internet                 ZAPINTERNET MÓVEL 2                        +000000000000000000                                                                          
400000000015620170428201704060300987615               3200032991451166 LM-Linha Móvel 2017040332000                           0 00VIVO MG                                019240160224USOVIVO Internet                 ZAPINTERNET MÓVEL 2                        +000000000000000000                                                                          
400000000015720170428201704060300987615               3200032991451166 LM-Linha Móvel 2017022832000                           0 00VIVO MG                                000982102548USOVIVO Internet                 ZAPINTERNET MÓVEL 2                        +000000000000000000                                                                          
400000000015820170428201704060300987615               3200032991451166 LM-Linha Móvel 2017030132000                           0 00VIVO MG                                000288095047USOVIVO Internet                 ZAPINTERNET MÓVEL 2                        +000000000000000000                                                                          
400000000015920170428201704060300987615               3200032991451166 LM-Linha Móvel 2017030132000                           0 00VIVO MG                                000533123922USOVIVO Internet                 ZAPINTERNET MÓVEL 2                        +000000000000000000                                                                          
400000000016020170428201704060300987615               3200032991451166 LM-Linha Móvel 2017030132000                           0 00VIVO MG                                000018190914USOVIVO Internet                 ZAPINTERNET MÓVEL 2                        +000000000000000000                                                                          
400000000016120170428201704060300987615               3200032991451166 LM-Linha Móvel 2017030232000                           0 00VIVO MG                                029388061804USOVIVO Internet                 ZAPINTERNET MÓVEL 2                        +000000000000000000                                                                          
400000000016220170428201704060300987615               3200032991451166 LM-Linha Móvel 2017030232000                           0 00VIVO MG                                000054100056USOVIVO Internet                 ZAPINTERNET MÓVEL 2                        +000000000000000000                                                                          
400000000016320170428201704060300987615               3200032991451166 LM-Linha Móvel 2017030232000                           0 00VIVO MG                                000023100145USOVIVO Internet                 ZAPINTERNET MÓVEL 2                        +000000000000000000                                                                          
400000000016420170428201704060300987615               3200032991451166 LM-Linha Móvel 2017030232000                           0 00VIVO MG                                000100113931USOVIVO Internet                 ZAPINTERNET MÓVEL 2                        +000000000000000000                                                                          
400000000016520170428201704060300987615               3200032991451166 LM-Linha Móvel 2017030232000                           0 00VIVO MG                                015605133331USOVIVO Internet                 ZAPINTERNET MÓVEL 2                        +000000000000000000                                                                          
400000000016620170428201704060300987615               3200032991451166 LM-Linha Móvel 2017030332000                           0 00VIVO MG                                000752063354USOVIVO Internet                 ZAPINTERNET MÓVEL 2                        +000000000000000000                                                                          
400000000016720170428201704060300987615               3200032991451166 LM-Linha Móvel 2017030332000                           0 00VIVO MG                                000002132114USOVIVO Internet                 ZAPINTERNET MÓVEL 2                        +000000000000000000                                                                          
400000000016820170428201704060300987615               3200032991451166 LM-Linha Móvel 2017030332000                           0 00VIVO MG                                000001132757USOVIVO Internet                 ZAPINTERNET MÓVEL 2                        +000000000000000000                                                                          
400000000016920170428201704060300987615               3200032991451166 LM-Linha Móvel 2017030332000                           0 00VIVO MG                                000009133230USOVIVO Internet                 ZAPINTERNET MÓVEL 2                        +000000000000000000                                                                          
400000000017020170428201704060300987615               3200032991451166 LM-Linha Móvel 2017030332000                           0 00VIVO MG                                000057153333USOVIVO Internet                 ZAPINTERNET MÓVEL 2                        +000000000000000000                                                                          
400000000017120170428201704060300987615               3200032991451166 LM-Linha Móvel 2017030332000                           0 00VIVO MG                                000107154248USOVIVO Internet                 ZAPINTERNET MÓVEL 2                        +000000000000000000                                                                          
400000000017220170428201704060300987615               3200032991451166 LM-Linha Móvel 2017030332000                           0 00VIVO MG                                000108163430USOVIVO Internet                 ZAPINTERNET MÓVEL 2                        +000000000000000000                                                                          
400000000017320170428201704060300987615               3200032991451166 LM-Linha Móvel 2017030332000                           0 00VIVO MG                                000137165313USOVIVO Internet                 ZAPINTERNET MÓVEL 2                        +000000000000000000                                                                          
400000000017420170428201704060300987615               3200032991451166 LM-Linha Móvel 2017030332000                           0 00VIVO MG                                000044171842USOVIVO Internet                 ZAPINTERNET MÓVEL 2                        +000000000000000000                                                                          
400000000017520170428201704060300987615               3200032991451166 LM-Linha Móvel 2017030332000                           0 00VIVO MG                                000001191616USOVIVO Internet                 ZAPINTERNET MÓVEL 2                        +000000000000000000                                                                          
400000000017620170428201704060300987615               3200032991451166 LM-Linha Móvel 2017030332000                           0 00VIVO MG                                000056192055USOVIVO Internet                 ZAPINTERNET MÓVEL 2                        +000000000000000000                                                                          
400000000017720170428201704060300987615               3200032991451166 LM-Linha Móvel 2017030432000                           0 00VIVO MG                                014479085122USOVIVO Internet                 ZAPINTERNET MÓVEL 2                        +000000000000000000                                                                          
400000000017820170428201704060300987615               3200032991451166 LM-Linha Móvel 2017030532000                           0 00VIVO MG                                011059120923USOVIVO Internet                 ZAPINTERNET MÓVEL 2                        +000000000000000000                                                                          
400000000017920170428201704060300987615               3200032991451166 LM-Linha Móvel 2017030532000                           0 00VIVO MG                                000155203834USOVIVO Internet                 ZAPINTERNET MÓVEL 2                        +000000000000000000                                                                          
500000000018020170428201704060300987615               03003947950    042017    3200032991451166 CREDESCONTO 12MESES INTERNET R$55 - 32-99145-1166                                  -0000000000000000000000000005500201703060000002017040500000000000                                                                                                          
100000000018103003947950    042017    20170428201704060300987622               00000AREA - 032               32991451177 SMP Serviço Móvel Pessoal              LM-Linha Móvel            00000000000000002017030620170405MIN  0000000+0000000000000+000000000000025+0000000000940+0000000000000000001927685+0000000003760                                    
300000000018220170428201704060300987622               3200032991451177 LM-Linha Móvel   2017031132000AREA 32                  MG0 00VIVO MG                32  988896388   000013VC1Para Celulares Vivo                               1936421KNormal                   00+02500000000000000000000                                                             
300000000018320170428201704060300987622               3200032991451177 LM-Linha Móvel   2017031132000AREA 32                  MG0 00VIVO MG                32  991451166   000009VC1Para Grupo                                        1038391KNormal                   00+02500000000000000000000                                                             
300000000018420170428201704060300987622               3200032991451177 LM-Linha Móvel   2017040221000AREA 21                  RJ0 00VIVO RJ                21  992939747   000005VC1Para Grupo                                        1446121BReduzida                 00+02500000000000000000000                                                             
300000000018520170428201704060300987622               3200032991451177 LM-Linha Móvel   2017031132000AREA 32                  MG0 00VIVO MG                32  991451166   000005VC1Para Grupo                                        1038391KNormal                   00+02500000000000000000000                                                             
300000000018620170428201704060300987622               3200032991451177 LM-Linha Móvel   2017040221000AREA 21                  RJ0 00VIVO RJ                21  992939747   000000ADLAdicional por Ligações Realizadas                 1446121BReduzida                 00+02500000000000000000000                                                             
300000000018720170428201704060300987622               3200032991451177 LM-Linha Móvel   2017032732000AREA 31                  MG0 15TELEFONICA             32  37225487    000016VC2Para Fixo de Outras Operadoras                    0931191KNormal                   00+02500000000000006400000                                                             
300000000018820170428201704060300987622               3200032991451177 LM-Linha Móvel   2017032732000AREA 31                  MG0 15TELEFONICA             32  32122938    000014VC2Para Fixo de Outras Operadoras                    0933431KNormal                   00+02500000000000005600000                                                             
400000000018920170428201704060300987622               3200032991451177 LM-Linha Móvel 2017030632000                           0 00VIVO MG                                000000      SUBServiços Contratados          SAFVIVO EMPRESAS FLEX ASSIN                +000000000010000000                                                                          
400000000019020170428201704060300987622               3200032991451177 LM-Linha Móvel 2017030632000                           0 00VIVO MG                                000000      SUBServiços Contratados          SAFSERVICO GESTAO                          +000000000000000000                                                                          
400000000019120170428201704060300987622               3200032991451177 LM-Linha Móvel 2017030632000                           0 00VIVO MG                                000000      SUBServiços Contratados          SAFPACOTE GESTAO COMPLETO                  +000000000000000000                                                                          
400000000019220170428201704060300987622               3200032991451177 LM-Linha Móvel 2017030632000                           0 00VIVO MG                                000000      SUBServiços Contratados          SAFINTRAGRUPO LOCAL 2.000 MINUTOS          +000000000010000000                                                                          
400000000019320170428201704060300987622               3200032991451177 LM-Linha Móvel 2017030632000                           0 00VIVO MG                                000000      SUBServiços Contratados          SAFPACOTE LD 01                            +000000000000000000                                                                          
400000000019420170428201704060300987622               3200032991451177 LM-Linha Móvel 2017030632000                           0 00VIVO MG                                000000      SUBServiços Contratados          SAFPAC 50 MIN FLEX COMP                    +000000000045000000                                                                          
400000000019520170428201704060300987622               3200032991451177 LM-Linha Móvel 2017030632000                           0 00VIVO MG                                000000      SUBServiços Contratados          SAFPAC CORP LD ROAMING FLEX                +000000000000000000                                                                          
400000000019620170428201704060300987622               3200032991451177 LM-Linha Móvel 2017030632000                           0 00VIVO MG                                000000      SUBServiços Contratados          SAFINTERNET MOVEL 3GB EMP 4G               +000000000849000000                                                                          
400000000019720170428201704060300987622               3200032991451177 LM-Linha Móvel 2017030632000                           0 00VIVO MG                                000216065534USOVIVO Internet                 ZAPINTERNET MÓVEL 2                        +000000000000000000                                                                          
400000000019820170428201704060300987622               3200032991451177 LM-Linha Móvel 2017030632000                           0 00VIVO MG                                048332071137USOVIVO Internet                 ZAPINTERNET MÓVEL 2                        +000000000000000000                                                                          
400000000019920170428201704060300987622               3200032991451177 LM-Linha Móvel 2017030632000                           0 00VIVO MG                                036966085313USOVIVO Internet                 ZAPINTERNET MÓVEL 2                        +000000000000000000                                                                          
400000000020020170428201704060300987622               3200032991451177 LM-Linha Móvel 2017030632000                           0 00VIVO MG                                022425105524USOVIVO Internet                 ZAPINTERNET MÓVEL 2                        +000000000000000000                                                                          
400000000020120170428201704060300987622               3200032991451177 LM-Linha Móvel 2017030632000                           0 00VIVO MG                                078131143451USOVIVO Internet                 ZAPINTERNET MÓVEL 2                        +000000000000000000                                                                          
400000000020220170428201704060300987622               3200032991451177 LM-Linha Móvel 2017030632000                           0 00VIVO MG                                076390164248USOVIVO Internet                 ZAPINTERNET MÓVEL 2                        +000000000000000000                                                                          
400000000020320170428201704060300987622               3200032991451177 LM-Linha Móvel 2017030632000                           0 00VIVO MG                                000822174516USOVIVO Internet                 ZAPINTERNET MÓVEL 2                        +000000000000000000                                                                          
400000000020420170428201704060300987622               3200032991451177 LM-Linha Móvel 2017030732000                           0 00VIVO MG                                029900065657USOVIVO Internet                 ZAPINTERNET MÓVEL 2                        +000000000000000000                                                                          
400000000020520170428201704060300987622               3200032991451177 LM-Linha Móvel 2017030732000                           0 00VIVO MG                                000657092357USOVIVO Internet                 ZAPINTERNET MÓVEL 2                        +000000000000000000                                                                          
400000000020620170428201704060300987622               3200032991451177 LM-Linha Móvel 2017030732000                           0 00VIVO MG                                000124104156USOVIVO Internet                 ZAPINTERNET MÓVEL 2                        +000000000000000000                                                                          
400000000020720170428201704060300987622               3200032991451177 LM-Linha Móvel 2017030732000                           0 00VIVO MG                                000143113253USOVIVO Internet                 ZAPINTERNET MÓVEL 2                        +000000000000000000                                                                          
400000000020820170428201704060300987622               3200032991451177 LM-Linha Móvel 2017030732000                           0 00VIVO MG                                010465114004USOVIVO Internet                 ZAPINTERNET MÓVEL 2                        +000000000000000000                                                                          
400000000020920170428201704060300987622               3200032991451177 LM-Linha Móvel 2017030732000                           0 00VIVO MG                                000198170230USOVIVO Internet                 ZAPINTERNET MÓVEL 2                        +000000000000000000                                                                          
400000000021020170428201704060300987622               3200032991451177 LM-Linha Móvel 2017030732000                           0 00VIVO MG                                000172223721USOVIVO Internet                 ZAPINTERNET MÓVEL 2                        +000000000000000000                                                                          
400000000021120170428201704060300987622               3200032991451177 LM-Linha Móvel 2017030832000                           0 00VIVO MG                                000034023722USOVIVO Internet                 ZAPINTERNET MÓVEL 2                        +000000000000000000                                                                          
400000000021220170428201704060300987622               3200032991451177 LM-Linha Móvel 2017030832000                           0 00VIVO MG                                012288023730USOVIVO Internet                 ZAPINTERNET MÓVEL 2                        +000000000000000000                                                                          
400000000021320170428201704060300987622               3200032991451177 LM-Linha Móvel 2017030832000                           0 00VIVO MG                                000370075126USOVIVO Internet                 ZAPINTERNET MÓVEL 2                        +000000000000000000                                                                          
400000000021420170428201704060300987622               3200032991451177 LM-Linha Móvel 2017030832000                           0 00VIVO MG                                069427092233USOVIVO Internet                 ZAPINTERNET MÓVEL 2                        +000000000000000000                                                                          
400000000021520170428201704060300987622               3200032991451177 LM-Linha Móvel 2017030832000                           0 00VIVO MG                                022528120617USOVIVO Internet                 ZAPINTERNET MÓVEL 2                        +000000000000000000                                                                          
400000000021620170428201704060300987622               3200032991451177 LM-Linha Móvel 2017030832000                           0 00VIVO MG                                011735121000USOVIVO Internet                 ZAPINTERNET MÓVEL 2                        +000000000000000000                                                                          
400000000021720170428201704060300987622               3200032991451177 LM-Linha Móvel 2017030832000                           0 00VIVO MG                                012800141711USOVIVO Internet                 ZAPINTERNET MÓVEL 2                        +000000000000000000                                                                          
400000000021820170428201704060300987622               3200032991451177 LM-Linha Móvel 2017030832000                           0 00VIVO MG                                092569152312USOVIVO Internet                 ZAPINTERNET MÓVEL 2                        +000000000000000000                                                                          
400000000021920170428201704060300987622               3200032991451177 LM-Linha Móvel 2017030932000                           0 00VIVO MG                                033177065706USOVIVO Internet                 ZAPINTERNET MÓVEL 2                        +000000000000000000                                                                          
400000000022020170428201704060300987622               3200032991451177 LM-Linha Móvel 2017030932000                           0 00VIVO MG                                000568081929USOVIVO Internet                 ZAPINTERNET MÓVEL 2                        +000000000000000000                                                                          
400000000022120170428201704060300987622               3200032991451177 LM-Linha Móvel 2017030932000                           0 00VIVO MG                                043008093134USOVIVO Internet                 ZAPINTERNET MÓVEL 2                        +000000000000000000                                                                          
400000000022220170428201704060300987622               3200032991451177 LM-Linha Móvel 2017030932000                           0 00VIVO MG                                013260143144USOVIVO Internet                 ZAPINTERNET MÓVEL 2                        +000000000000000000                                                                          
400000000022320170428201704060300987622               3200032991451177 LM-Linha Móvel 2017031032000                           0 00VIVO MG                                041164074837USOVIVO Internet                 ZAPINTERNET MÓVEL 2                        +000000000000000000                                                                          
400000000022420170428201704060300987622               3200032991451177 LM-Linha Móvel 2017031032000                           0 00VIVO MG                                029706094425USOVIVO Internet                 ZAPINTERNET MÓVEL 2                        +000000000000000000                                                                          
400000000022520170428201704060300987622               3200032991451177 LM-Linha Móvel 2017031032000                           0 00VIVO MG                                036044120206USOVIVO Internet                 ZAPINTERNET MÓVEL 2                        +000000000000000000                                                                          
400000000022620170428201704060300987622               3200032991451177 LM-Linha Móvel 2017031032000                           0 00VIVO MG                                000030143617USOVIVO Internet                 ZAPINTERNET MÓVEL 2                        +000000000000000000                                                                          
400000000022720170428201704060300987622               3200032991451177 LM-Linha Móvel 2017031032000                           0 00VIVO MG                                000115144212USOVIVO Internet                 ZAPINTERNET MÓVEL 2                        +000000000000000000                                                                          
400000000022820170428201704060300987622               3200032991451177 LM-Linha Móvel 2017031032000                           0 00VIVO MG                                000014145630USOVIVO Internet                 ZAPINTERNET MÓVEL 2                        +000000000000000000                                                                          
400000000022920170428201704060300987622               3200032991451177 LM-Linha Móvel 2017031032000                           0 00VIVO MG                                000127150122USOVIVO Internet                 ZAPINTERNET MÓVEL 2                        +000000000000000000                                                                          
400000000023020170428201704060300987622               3200032991451177 LM-Linha Móvel 2017031032000                           0 00VIVO MG                                000023151047USOVIVO Internet                 ZAPINTERNET MÓVEL 2                        +000000000000000000                                                                          
400000000023120170428201704060300987622               3200032991451177 LM-Linha Móvel 2017031032000                           0 00VIVO MG                                000176151911USOVIVO Internet                 ZAPINTERNET MÓVEL 2                        +000000000000000000                                                                          
400000000023220170428201704060300987622               3200032991451177 LM-Linha Móvel 2017031032000                           0 00VIVO MG                                000257155227USOVIVO Internet                 ZAPINTERNET MÓVEL 2                        +000000000000000000                                                                          
400000000023320170428201704060300987622               3200032991451177 LM-Linha Móvel 2017031032000                           0 00VIVO MG                                000030170230USOVIVO Internet                 ZAPINTERNET MÓVEL 2                        +000000000000000000                                                                          
400000000023420170428201704060300987622               3200032991451177 LM-Linha Móvel 2017031032000                           0 00VIVO MG                                000018170924USOVIVO Internet                 ZAPINTERNET MÓVEL 2                        +000000000000000000                                                                          
400000000023520170428201704060300987622               3200032991451177 LM-Linha Móvel 2017031032000                           0 00VIVO MG                                000031171125USOVIVO Internet                 ZAPINTERNET MÓVEL 2                        +000000000000000000                                                                          
400000000023620170428201704060300987622               3200032991451177 LM-Linha Móvel 2017031032000                           0 00VIVO MG                                000990172254USOVIVO Internet                 ZAPINTERNET MÓVEL 2                        +000000000000000000                                                                          
400000000023720170428201704060300987622               3200032991451177 LM-Linha Móvel 2017031032000                           0 00VIVO MG                                050196173436USOVIVO Internet                 ZAPINTERNET MÓVEL 2                        +000000000000000000                                                                          
400000000023820170428201704060300987622               3200032991451177 LM-Linha Móvel 2017031132000                           0 00VIVO MG                                025702020311USOVIVO Internet                 ZAPINTERNET MÓVEL 2                        +000000000000000000                                                                          
400000000023920170428201704060300987622               3200032991451177 LM-Linha Móvel 2017031132000                           0 00VIVO MG                                106854125715USOVIVO Internet                 ZAPINTERNET MÓVEL 2                        +000000000000000000                                                                          
400000000024020170428201704060300987622               3200032991451177 LM-Linha Móvel 2017031232000                           0 00VIVO MG                                017131104511USOVIVO Internet                 ZAPINTERNET MÓVEL 2                        +000000000000000000                                                                          
400000000024120170428201704060300987622               3200032991451177 LM-Linha Móvel 2017031232000                           0 00VIVO MG                                043417134144USOVIVO Internet                 ZAPINTERNET MÓVEL 2                        +000000000000000000                                                                          
400000000024220170428201704060300987622               3200032991451177 LM-Linha Móvel 2017031332000                           0 00VIVO MG                                082688070103USOVIVO Internet                 ZAPINTERNET MÓVEL 2                        +000000000000000000                                                                          
400000000024320170428201704060300987622               3200032991451177 LM-Linha Móvel 2017031432000                           0 00VIVO MG                                000065010111USOVIVO Internet                 ZAPINTERNET MÓVEL 2                        +000000000000000000                                                                          
400000000024420170428201704060300987622               3200032991451177 LM-Linha Móvel 2017031432000                           0 00VIVO MG                                000052030111USOVIVO Internet                 ZAPINTERNET MÓVEL 2                        +000000000000000000                                                                          
400000000024520170428201704060300987622               3200032991451177 LM-Linha Móvel 2017031432000                           0 00VIVO MG                                000170030118USOVIVO Internet                 ZAPINTERNET MÓVEL 2                        +000000000000000000                                                                          
400000000024620170428201704060300987622               3200032991451177 LM-Linha Móvel 2017031432000                           0 00VIVO MG                                053248070312USOVIVO Internet                 ZAPINTERNET MÓVEL 2                        +000000000000000000                                                                          
400000000024720170428201704060300987622               3200032991451177 LM-Linha Móvel 2017031432000                           0 00VIVO MG                                016158113554USOVIVO Internet                 ZAPINTERNET MÓVEL 2                        +000000000000000000                                                                          
400000000024820170428201704060300987622               3200032991451177 LM-Linha Móvel 2017031532000                           0 00VIVO MG                                000575082647USOVIVO Internet                 ZAPINTERNET MÓVEL 2                        +000000000000000000                                                                          
400000000024920170428201704060300987622               3200032991451177 LM-Linha Móvel 2017031532000                           0 00VIVO MG                                046397085925USOVIVO Internet                 ZAPINTERNET MÓVEL 2                        +000000000000000000                                                                          
400000000025020170428201704060300987622               3200032991451177 LM-Linha Móvel 2017031532000                           0 00VIVO MG                                000089120122USOVIVO Internet                 ZAPINTERNET MÓVEL 2                        +000000000000000000                                                                          
400000000025120170428201704060300987622               3200032991451177 LM-Linha Móvel 2017031532000                           0 00VIVO MG                                056320120834USOVIVO Internet                 ZAPINTERNET MÓVEL 2                        +000000000000000000                                                                          
400000000025220170428201704060300987622               3200032991451177 LM-Linha Móvel 2017031532000                           0 00VIVO MG                                000006210608USOVIVO Internet                 ZAPINTERNET MÓVEL 2                        +000000000000000000                                                                          
400000000025320170428201704060300987622               3200032991451177 LM-Linha Móvel 2017031632000                           0 00VIVO MG                                011479065941USOVIVO Internet                 ZAPINTERNET MÓVEL 2                        +000000000000000000                                                                          
400000000025420170428201704060300987622               3200032991451177 LM-Linha Móvel 2017031632000                           0 00VIVO MG                                062504113430USOVIVO Internet                 ZAPINTERNET MÓVEL 2                        +000000000000000000                                                                          
400000000025520170428201704060300987622               3200032991451177 LM-Linha Móvel 2017031632000                           0 00VIVO MG                                132167233711USOVIVO Internet                 ZAPINTERNET MÓVEL 2                        +000000000000000000                                                                          
400000000025620170428201704060300987622               3200032991451177 LM-Linha Móvel 2017031732000                           0 00VIVO MG                                066949070039USOVIVO Internet                 ZAPINTERNET MÓVEL 2                        +000000000000000000                                                                          
400000000025720170428201704060300987622               3200032991451177 LM-Linha Móvel 2017031732000                           0 00VIVO MG                                052633110532USOVIVO Internet                 ZAPINTERNET MÓVEL 2                        +000000000000000000                                                                          
400000000025820170428201704060300987622               3200032991451177 LM-Linha Móvel 2017031832000                           0 00VIVO MG                                019456074710USOVIVO Internet                 ZAPINTERNET MÓVEL 2                        +000000000000000000                                                                          
400000000025920170428201704060300987622               3200032991451177 LM-Linha Móvel 2017031932000                           0 00VIVO MG                                000546024726USOVIVO Internet                 ZAPINTERNET MÓVEL 2                        +000000000000000000                                                                          
400000000026020170428201704060300987622               3200032991451177 LM-Linha Móvel 2017031932000                           0 00VIVO MG                                013004192521USOVIVO Internet                 ZAPINTERNET MÓVEL 2                        +000000000000000000                                                                          
400000000026120170428201704060300987622               3200032991451177 LM-Linha Móvel 2017031932000                           0 00VIVO MG                                000334211714USOVIVO Internet                 ZAPINTERNET MÓVEL 2                        +000000000000000000                                                                          
400000000026220170428201704060300987622               3200032991451177 LM-Linha Móvel 2017031932000                           0 00VIVO MG                                000007231310USOVIVO Internet                 ZAPINTERNET MÓVEL 2                        +000000000000000000                                                                          
400000000026320170428201704060300987622               3200032991451177 LM-Linha Móvel 2017032032000                           0 00VIVO MG                                049356070122USOVIVO Internet                 ZAPINTERNET MÓVEL 2                        +000000000000000000                                                                          
400000000026420170428201704060300987622               3200032991451177 LM-Linha Móvel 2017032032000                           0 00VIVO MG                                015964102652USOVIVO Internet                 ZAPINTERNET MÓVEL 2                        +000000000000000000                                                                          
400000000026520170428201704060300987622               3200032991451177 LM-Linha Móvel 2017032132000                           0 00VIVO MG                                033884070550USOVIVO Internet                 ZAPINTERNET MÓVEL 2                        +000000000000000000                                                                          
400000000026620170428201704060300987622               3200032991451177 LM-Linha Móvel 2017032132000                           0 00VIVO MG                                000001223640USOVIVO Internet                 ZAPINTERNET MÓVEL 2                        +000000000000000000                                                                          
400000000026720170428201704060300987622               3200032991451177 LM-Linha Móvel 2017032232000                           0 00VIVO MG                                000457070315USOVIVO Internet                 ZAPINTERNET MÓVEL 2                        +000000000000000000                                                                          
400000000026820170428201704060300987622               3200032991451177 LM-Linha Móvel 2017032232000                           0 00VIVO MG                                340172071956USOVIVO Internet                 ZAPINTERNET MÓVEL 2                        +000000000000000000                                                                          
400000000026920170428201704060300987622               3200032991451177 LM-Linha Móvel 2017032332000                           0 00VIVO MG                                103116070344USOVIVO Internet                 ZAPINTERNET MÓVEL 2                        +000000000000000000                                                                          
400000000027020170428201704060300987622               3200032991451177 LM-Linha Móvel 2017032332000                           0 00VIVO MG                                098508124702USOVIVO Internet                 ZAPINTERNET MÓVEL 2                        +000000000000000000                                                                          
400000000027120170428201704060300987622               3200032991451177 LM-Linha Móvel 2017032432000                           0 00VIVO MG                                050053070124USOVIVO Internet                 ZAPINTERNET MÓVEL 2                        +000000000000000000                                                                          
400000000027220170428201704060300987622               3200032991451177 LM-Linha Móvel 2017032432000                           0 00VIVO MG                                000094114954USOVIVO Internet                 ZAPINTERNET MÓVEL 2                        +000000000000000000                                                                          
400000000027320170428201704060300987622               3200032991451177 LM-Linha Móvel 2017032432000                           0 00VIVO MG                                016896120408USOVIVO Internet                 ZAPINTERNET MÓVEL 2                        +000000000000000000                                                                          
400000000027420170428201704060300987622               3200032991451177 LM-Linha Móvel 2017032532000                           0 00VIVO MG                                000831093004USOVIVO Internet                 ZAPINTERNET MÓVEL 2                        +000000000000000000                                                                          
400000000027520170428201704060300987622               3200032991451177 LM-Linha Móvel 2017032532000                           0 00VIVO MG                                023449111125USOVIVO Internet                 ZAPINTERNET MÓVEL 2                        +000000000000000000                                                                          
400000000027620170428201704060300987622               3200032991451177 LM-Linha Móvel 2017032632000                           0 00VIVO MG                                022732090552USOVIVO Internet                 ZAPINTERNET MÓVEL 2                        +000000000000000000                                                                          
400000000027720170428201704060300987622               3200032991451177 LM-Linha Móvel 2017032732000                           0 00VIVO MG                                053227065942USOVIVO Internet                 ZAPINTERNET MÓVEL 2                        +000000000000000000                                                                          
400000000027820170428201704060300987622               3200032991451177 LM-Linha Móvel 2017032732000                           0 00VIVO MG                                052387174115USOVIVO Internet                 ZAPINTERNET MÓVEL 2                        +000000000000000000                                                                          
400000000027920170428201704060300987622               3200032991451177 LM-Linha Móvel 2017032832000                           0 00VIVO MG                                027361065259USOVIVO Internet                 ZAPINTERNET MÓVEL 2                        +000000000000000000                                                                          
400000000028020170428201704060300987622               3200032991451177 LM-Linha Móvel 2017032832000                           0 00VIVO MG                                000809173330USOVIVO Internet                 ZAPINTERNET MÓVEL 2                        +000000000000000000                                                                          
400000000028120170428201704060300987622               3200032991451177 LM-Linha Móvel 2017032932000                           0 00VIVO MG                                089722065646USOVIVO Internet                 ZAPINTERNET MÓVEL 2                        +000000000000000000                                                                          
400000000028220170428201704060300987622               3200032991451177 LM-Linha Móvel 2017032932000                           0 00VIVO MG                                017315114103USOVIVO Internet                 ZAPINTERNET MÓVEL 2                        +000000000000000000                                                                          
400000000028320170428201704060300987622               3200032991451177 LM-Linha Móvel 2017032932000                           0 00VIVO MG                                000258164708USOVIVO Internet                 ZAPINTERNET MÓVEL 2                        +000000000000000000                                                                          
400000000028420170428201704060300987622               3200032991451177 LM-Linha Móvel 2017032932000                           0 00VIVO MG                                000060172853USOVIVO Internet                 ZAPINTERNET MÓVEL 2                        +000000000000000000                                                                          
