000000000000120170310VIVO           MG03003947950    CHOPP CONTROL AUDITORIA DE BEBIDAS      08453543000176 0300394795     032017    2017032820170307                                                                                                                                                                                                         
100000000000203003947950    032017    20170328201703070300987557               00000AREA - 032               32984039904 SMP Serviço Móvel Pessoal              LM-Linha Móvel            00000000000000002017020620170305MIN  0000000+0000000000000+000000000000025+0000000000122+0000000000000000001886980+0000000000487                                    
400000000000320170328201703070300987557               3200032984039904 LM-Linha Móvel 2017021332000                           0 00VIVO MG                                000000      SUBServiços Contratados          SAFVIVO EMPRESAS FLEX ASSIN                +000000000007500000                                                                          
400000000000420170328201703070300987557               3200032984039904 LM-Linha Móvel 2017021332000                           0 00VIVO MG                                000000      SUBServiços Contratados          SAFSERVICO GESTAO                          +000000000000000000                                                                          
400000000000520170328201703070300987557               3200032984039904 LM-Linha Móvel 2017021332000                           0 00VIVO MG                                000000      SUBServiços Contratados          SAFPACOTE GESTAO COMPLETO                  +000000000000000000                                                                          
400000000000620170328201703070300987557               3200032984039904 LM-Linha Móvel 2017021332000                           0 00VIVO MG                                000000      SUBServiços Contratados          SAFINTRAGRUPO LOCAL 2.000 MINUTOS          +000000000007500000                                                                          
400000000000720170328201703070300987557               3200032984039904 LM-Linha Móvel 2017021332000                           0 00VIVO MG                                000000      SUBServiços Contratados          SAFPACOTE LD 01                            +000000000000000000                                                                          
400000000000820170328201703070300987557               3200032984039904 LM-Linha Móvel 2017021332000                           0 00VIVO MG                                000000      SUBServiços Contratados          SAFPAC 50 MIN FLEX COMP                    +000000000033700000                                                                          
400000000000920170328201703070300987557               3200032984039904 LM-Linha Móvel 2017021332000                           0 00VIVO MG                                000000      SUBServiços Contratados          SAFPAC CORP LD ROAMING FLEX                +000000000000000000                                                                          
100000000001003003947950    032017    20170328201703070300987615               00000AREA - 032               32991451166 SMP Serviço Móvel Pessoal              LM-Linha Móvel            00000000000000002017020620170305MIN  0000000+0000000000000+000000000000025+0000000000845+0000000000000000001886980+0000000003381                                    
300000000001120170328201703070300987615               3200032991451166 LM-Linha Móvel   2017030131000AREA 31                  MG0 00VIVO MG                31  996006560   000005VC1Para Celulares Vivo                               1239021KNormal                   00+02500000000000000000000                                                             
300000000001220170328201703070300987615               3200032991451166 LM-Linha Móvel   2017030331000AREA 31                  MG0 00VIVO MG                31  996006560   000005VC1Para Celulares Vivo                               1704591KNormal                   00+02500000000000000000000                                                             
300000000001320170328201703070300987615               3200032991451166 LM-Linha Móvel   2017021532000AREA 31                  MG0 15TELEFONICA             32  991451300   000005VC2Para Celulares Vivo                               1224031KNormal                   00+02500000000000000500000                                                             
300000000001420170328201703070300987615               3200032991451166 LM-Linha Móvel   2017021532000AREA 31                  MG0 15TELEFONICA             32  991451400   000058VC2Para Celulares Vivo                               1225061KNormal                   00+02500000000000005800000                                                             
300000000001520170328201703070300987615               3200032991451166 LM-Linha Móvel   2017021632000AREA 31                  MG0 15TELEFONICA             32  991451300   000023VC2Para Celulares Vivo                               1007071KNormal                   00+02500000000000002300000                                                             
300000000001620170328201703070300987615               3200032991451166 LM-Linha Móvel   2017021932000AREA 31                  MG0 15TELEFONICA             32  991451400   000055VC2Para Celulares Vivo                               1935531BReduzida                 00+02500000000000005500000                                                             
300000000001720170328201703070300987615               3200032991451166 LM-Linha Móvel   2017022232000AREA 31                  MG0 15TELEFONICA             32  991451400   000139VC2Para Celulares Vivo                               1149281KNormal                   00+02500000000000013900000                                                             
300000000001820170328201703070300987615               3200032991451166 LM-Linha Móvel   2017022221000AREA 31                  MG0 15TELEFONICA             21  994586922   000044VC3Para Celulares Vivo                               1952101KNormal                   00+02500000000000004400000                                                             
300000000001920170328201703070300987615               3200032991451166 LM-Linha Móvel   2017022321000AREA 31                  MG0 15TELEFONICA             21  994586922   000047VC3Para Celulares Vivo                               1106431KNormal                   00+02500000000000004700000                                                             
300000000002020170328201703070300987615               3200032991451166 LM-Linha Móvel   2017022321000AREA 31                  MG0 15TELEFONICA             21  994586922   000055VC3Para Celulares Vivo                               1112241KNormal                   00+02500000000000005500000                                                             
300000000002120170328201703070300987615               3200032991451166 LM-Linha Móvel   2017022732000AREA 31                  MG0 15TELEFONICA             32  991451300   000019VC2Para Celulares Vivo                               1016041KNormal                   00+02500000000000001900000                                                             
300000000002220170328201703070300987615               3200032991451166 LM-Linha Móvel   2017030132000AREA 31                  MG0 15TELEFONICA             32  991451400   000032VC2Para Celulares Vivo                               1909131KNormal                   00+02500000000000003200000                                                             
300000000002320170328201703070300987615               3200032991451166 LM-Linha Móvel   2017030232000AREA 31                  MG0 15TELEFONICA             32  991451300   000012VC2Para Celulares Vivo                               1650341KNormal                   00+02500000000000001200000                                                             
300000000002420170328201703070300987615               3200032991451166 LM-Linha Móvel   2017030332000AREA 31                  MG0 15TELEFONICA             32  991451400   000060VC2Para Celulares Vivo                               1321361KNormal                   00+02500000000000006000000                                                             
300000000002520170328201703070300987615               3200032991451166 LM-Linha Móvel   2017030432000AREA 31                  MG0 15TELEFONICA             32  991451400   000103VC2Para Celulares Vivo                               1020301KNormal                   00+02500000000000010300000                                                             
400000000002620170328201703070300987615               3200032991451166 LM-Linha Móvel 2017021332000                           0 00VIVO MG                                000000      SUBServiços Contratados          SAFVIVO EMPRESAS FLEX ASSIN                +000000000007500000                                                                          
400000000002720170328201703070300987615               3200032991451166 LM-Linha Móvel 2017021332000                           0 00VIVO MG                                000000      SUBServiços Contratados          SAFSERVICO GESTAO                          +000000000000000000                                                                          
400000000002820170328201703070300987615               3200032991451166 LM-Linha Móvel 2017021332000                           0 00VIVO MG                                000000      SUBServiços Contratados          SAFPACOTE GESTAO COMPLETO                  +000000000000000000                                                                          
400000000002920170328201703070300987615               3200032991451166 LM-Linha Móvel 2017021332000                           0 00VIVO MG                                000000      SUBServiços Contratados          SAFINTRAGRUPO LOCAL 2.000 MINUTOS          +000000000007500000                                                                          
400000000003020170328201703070300987615               3200032991451166 LM-Linha Móvel 2017021332000                           0 00VIVO MG                                000000      SUBServiços Contratados          SAFPACOTE LD 01                            +000000000000000000                                                                          
400000000003120170328201703070300987615               3200032991451166 LM-Linha Móvel 2017021332000                           0 00VIVO MG                                000000      SUBServiços Contratados          SAFPAC 50 MIN FLEX COMP                    +000000000033700000                                                                          
400000000003220170328201703070300987615               3200032991451166 LM-Linha Móvel 2017021332000                           0 00VIVO MG                                000000      SUBServiços Contratados          SAFPAC CORP LD ROAMING FLEX                +000000000000000000                                                                          
400000000003320170328201703070300987615               3200032991451166 LM-Linha Móvel 2017021332000                           0 00VIVO MG                                000000      SUBServiços Contratados          SAFINTERNET MOVEL 3GB EMP 4G               +000000000636700000                                                                          
400000000003420170328201703070300987615               3200032991451166 LM-Linha Móvel 2017021432000                           0 00VIVO MG                                064819071606USOVIVO Internet                 ZAPINTERNET MÓVEL 2                        +000000000000000000                                                                          
400000000003520170328201703070300987615               3200032991451166 LM-Linha Móvel 2017021532000                           0 00VIVO MG                                060518063037USOVIVO Internet                 ZAPINTERNET MÓVEL 2                        +000000000000000000                                                                          
400000000003620170328201703070300987615               3200032991451166 LM-Linha Móvel 2017021532000                           0 00VIVO MG                                000305155359USOVIVO Internet                 ZAPINTERNET MÓVEL 2                        +000000000000000000                                                                          
400000000003720170328201703070300987615               3200032991451166 LM-Linha Móvel 2017021632000                           0 00VIVO MG                                027525065211USOVIVO Internet                 ZAPINTERNET MÓVEL 2                        +000000000000000000                                                                          
400000000003820170328201703070300987615               3200032991451166 LM-Linha Móvel 2017021632000                           0 00VIVO MG                                010854154601USOVIVO Internet                 ZAPINTERNET MÓVEL 2                        +000000000000000000                                                                          
400000000003920170328201703070300987615               3200032991451166 LM-Linha Móvel 2017021632000                           0 00VIVO MG                                013004210319USOVIVO Internet                 ZAPINTERNET MÓVEL 2                        +000000000000000000                                                                          
400000000004020170328201703070300987615               3200032991451166 LM-Linha Móvel 2017021732000                           0 00VIVO MG                                063897110757USOVIVO Internet                 ZAPINTERNET MÓVEL 2                        +000000000000000000                                                                          
400000000004120170328201703070300987615               3200032991451166 LM-Linha Móvel 2017021732000                           0 00VIVO MG                                000070222725USOVIVO Internet                 ZAPINTERNET MÓVEL 2                        +000000000000000000                                                                          
400000000004220170328201703070300987615               3200032991451166 LM-Linha Móvel 2017021832000                           0 00VIVO MG                                000471094733USOVIVO Internet                 ZAPINTERNET MÓVEL 2                        +000000000000000000                                                                          
400000000004320170328201703070300987615               3200032991451166 LM-Linha Móvel 2017021832000                           0 00VIVO MG                                012083162837USOVIVO Internet                 ZAPINTERNET MÓVEL 2                        +000000000000000000                                                                          
400000000004420170328201703070300987615               3200032991451166 LM-Linha Móvel 2017021932000                           0 00VIVO MG                                000070084120USOVIVO Internet                 ZAPINTERNET MÓVEL 2                        +000000000000000000                                                                          
400000000004520170328201703070300987615               3200032991451166 LM-Linha Móvel 2017021932000                           0 00VIVO MG                                000001085354USOVIVO Internet                 ZAPINTERNET MÓVEL 2                        +000000000000000000                                                                          
400000000004620170328201703070300987615               3200032991451166 LM-Linha Móvel 2017021932000                           0 00VIVO MG                                000075085503USOVIVO Internet                 ZAPINTERNET MÓVEL 2                        +000000000000000000                                                                          
400000000004720170328201703070300987615               3200032991451166 LM-Linha Móvel 2017021932000                           0 00VIVO MG                                000002095226USOVIVO Internet                 ZAPINTERNET MÓVEL 2                        +000000000000000000                                                                          
400000000004820170328201703070300987615               3200032991451166 LM-Linha Móvel 2017021932000                           0 00VIVO MG                                000045100808USOVIVO Internet                 ZAPINTERNET MÓVEL 2                        +000000000000000000                                                                          
400000000004920170328201703070300987615               3200032991451166 LM-Linha Móvel 2017021932000                           0 00VIVO MG                                000103163656USOVIVO Internet                 ZAPINTERNET MÓVEL 2                        +000000000000000000                                                                          
400000000005020170328201703070300987615               3200032991451166 LM-Linha Móvel 2017021932000                           0 00VIVO MG                                000041174854USOVIVO Internet                 ZAPINTERNET MÓVEL 2                        +000000000000000000                                                                          
400000000005120170328201703070300987615               3200032991451166 LM-Linha Móvel 2017021932000                           0 00VIVO MG                                000021193503USOVIVO Internet                 ZAPINTERNET MÓVEL 2                        +000000000000000000                                                                          
400000000005220170328201703070300987615               3200032991451166 LM-Linha Móvel 2017021932000                           0 00VIVO MG                                000017193605USOVIVO Internet                 ZAPINTERNET MÓVEL 2                        +000000000000000000                                                                          
400000000005320170328201703070300987615               3200032991451166 LM-Linha Móvel 2017022032000                           0 00VIVO MG                                000148063035USOVIVO Internet                 ZAPINTERNET MÓVEL 2                        +000000000000000000                                                                          
400000000005420170328201703070300987615               3200032991451166 LM-Linha Móvel 2017022032000                           0 00VIVO MG                                000111084042USOVIVO Internet                 ZAPINTERNET MÓVEL 2                        +000000000000000000                                                                          
400000000005520170328201703070300987615               3200032991451166 LM-Linha Móvel 2017022032000                           0 00VIVO MG                                000164104626USOVIVO Internet                 ZAPINTERNET MÓVEL 2                        +000000000000000000                                                                          
400000000005620170328201703070300987615               3200032991451166 LM-Linha Móvel 2017022032000                           0 00VIVO MG                                000125140303USOVIVO Internet                 ZAPINTERNET MÓVEL 2                        +000000000000000000                                                                          
400000000005720170328201703070300987615               3200032991451166 LM-Linha Móvel 2017022132000                           0 00VIVO MG                                000152060907USOVIVO Internet                 ZAPINTERNET MÓVEL 2                        +000000000000000000                                                                          
400000000005820170328201703070300987615               3200032991451166 LM-Linha Móvel 2017022132000                           0 00VIVO MG                                000008061801USOVIVO Internet                 ZAPINTERNET MÓVEL 2                        +000000000000000000                                                                          
400000000005920170328201703070300987615               3200032991451166 LM-Linha Móvel 2017022132000                           0 00VIVO MG                                091648061822USOVIVO Internet                 ZAPINTERNET MÓVEL 2                        +000000000000000000                                                                          
400000000006020170328201703070300987615               3200032991451166 LM-Linha Móvel 2017022132000                           0 00VIVO MG                                000466123757USOVIVO Internet                 ZAPINTERNET MÓVEL 2                        +000000000000000000                                                                          
400000000006120170328201703070300987615               3200032991451166 LM-Linha Móvel 2017022232000                           0 00VIVO MG                                100229061559USOVIVO Internet                 ZAPINTERNET MÓVEL 2                        +000000000000000000                                                                          
400000000006220170328201703070300987615               3200032991451166 LM-Linha Móvel 2017022232000                           0 00VIVO MG                                000139150152USOVIVO Internet                 ZAPINTERNET MÓVEL 2                        +000000000000000000                                                                          
400000000006320170328201703070300987615               3200032991451166 LM-Linha Móvel 2017022232000                           0 00VIVO MG                                000017195652USOVIVO Internet                 ZAPINTERNET MÓVEL 2                        +000000000000000000                                                                          
400000000006420170328201703070300987615               3200032991451166 LM-Linha Móvel 2017022332000                           0 00VIVO MG                                034938065047USOVIVO Internet                 ZAPINTERNET MÓVEL 2                        +000000000000000000                                                                          
400000000006520170328201703070300987615               3200032991451166 LM-Linha Móvel 2017022332000                           0 00VIVO MG                                000554112555USOVIVO Internet                 ZAPINTERNET MÓVEL 2                        +000000000000000000                                                                          
400000000006620170328201703070300987615               3200032991451166 LM-Linha Móvel 2017022332000                           0 00VIVO MG                                038195170702USOVIVO Internet                 ZAPINTERNET MÓVEL 2                        +000000000000000000                                                                          
400000000006720170328201703070300987615               3200032991451166 LM-Linha Móvel 2017022432000                           0 00VIVO MG                                055296072140USOVIVO Internet                 ZAPINTERNET MÓVEL 2                        +000000000000000000                                                                          
400000000006820170328201703070300987615               3200032991451166 LM-Linha Móvel 2017022432000                           0 00VIVO MG                                000168171024USOVIVO Internet                 ZAPINTERNET MÓVEL 2                        +000000000000000000                                                                          
400000000006920170328201703070300987615               3200032991451166 LM-Linha Móvel 2017022532000                           0 00VIVO MG                                000345075355USOVIVO Internet                 ZAPINTERNET MÓVEL 2                        +000000000000000000                                                                          
400000000007020170328201703070300987615               3200032991451166 LM-Linha Móvel 2017022532000                           0 00VIVO MG                                053350091537USOVIVO Internet                 ZAPINTERNET MÓVEL 2                        +000000000000000000                                                                          
400000000007120170328201703070300987615               3200032991451166 LM-Linha Móvel 2017022632000                           0 00VIVO MG                                000073074042USOVIVO Internet                 ZAPINTERNET MÓVEL 2                        +000000000000000000                                                                          
400000000007220170328201703070300987615               3200032991451166 LM-Linha Móvel 2017022632000                           0 00VIVO MG                                000001084853USOVIVO Internet                 ZAPINTERNET MÓVEL 2                        +000000000000000000                                                                          
400000000007320170328201703070300987615               3200032991451166 LM-Linha Móvel 2017022632000                           0 00VIVO MG                                021862085816USOVIVO Internet                 ZAPINTERNET MÓVEL 2                        +000000000000000000                                                                          
400000000007420170328201703070300987615               3200032991451166 LM-Linha Móvel 2017022632000                           0 00VIVO MG                                000079173332USOVIVO Internet                 ZAPINTERNET MÓVEL 2                        +000000000000000000                                                                          
400000000007520170328201703070300987615               3200032991451166 LM-Linha Móvel 2017022632000                           0 00VIVO MG                                000058180459USOVIVO Internet                 ZAPINTERNET MÓVEL 2                        +000000000000000000                                                                          
400000000007620170328201703070300987615               3200032991451166 LM-Linha Móvel 2017022732000                           0 00VIVO MG                                000067092125USOVIVO Internet                 ZAPINTERNET MÓVEL 2                        +000000000000000000                                                                          
400000000007720170328201703070300987615               3200032991451166 LM-Linha Móvel 2017022732000                           0 00VIVO MG                                000001101552USOVIVO Internet                 ZAPINTERNET MÓVEL 2                        +000000000000000000                                                                          
400000000007820170328201703070300987615               3200032991451166 LM-Linha Móvel 2017022732000                           0 00VIVO MG                                000152102024USOVIVO Internet                 ZAPINTERNET MÓVEL 2                        +000000000000000000                                                                          
400000000007920170328201703070300987615               3200032991451166 LM-Linha Móvel 2017022732000                           0 00VIVO MG                                023142183600USOVIVO Internet                 ZAPINTERNET MÓVEL 2                        +000000000000000000                                                                          
400000000008020170328201703070300987615               3200032991451166 LM-Linha Móvel 2017022832000                           0 00VIVO MG                                000514081423USOVIVO Internet                 ZAPINTERNET MÓVEL 2                        +000000000000000000                                                                          
400000000008120170328201703070300987615               3200032991451166 LM-Linha Móvel 2017022832000                           0 00VIVO MG                                011673101530USOVIVO Internet                 ZAPINTERNET MÓVEL 2                        +000000000000000000                                                                          
500000000008220170328201703070300987615               03003947950    032017    3200032991451166 CREDESCONTO 12MESES INTERNET R$55 - 32-99145-1166                                  -0000000000000000000000000004125201702060000002017030500000000000                                                                                                          
100000000008303003947950    032017    20170328201703070300987622               00000AREA - 032               32991451177 SMP Serviço Móvel Pessoal              LM-Linha Móvel            00000000000000002017020620170305MIN  0000000+0000000000000+000000000000025+0000000000692+0000000000000000001886980+0000000002767                                    
300000000008420170328201703070300987622               3200032991451177 LM-Linha Móvel   2017021432000AREA 31                  MG0 15TELEFONICA             32  991451166   000005VC2Para Celulares Vivo                               0751111KNormal                   00+02500000000000003800000                                                             
400000000008520170328201703070300987622               3200032991451177 LM-Linha Móvel 2017021332000                           0 00VIVO MG                                000000      SUBServiços Contratados          SAFVIVO EMPRESAS FLEX ASSIN                +000000000007500000                                                                          
400000000008620170328201703070300987622               3200032991451177 LM-Linha Móvel 2017021332000                           0 00VIVO MG                                000000      SUBServiços Contratados          SAFSERVICO GESTAO                          +000000000000000000                                                                          
400000000008720170328201703070300987622               3200032991451177 LM-Linha Móvel 2017021332000                           0 00VIVO MG                                000000      SUBServiços Contratados          SAFPACOTE GESTAO COMPLETO                  +000000000000000000                                                                          
400000000008820170328201703070300987622               3200032991451177 LM-Linha Móvel 2017021332000                           0 00VIVO MG                                000000      SUBServiços Contratados          SAFINTRAGRUPO LOCAL 2.000 MINUTOS          +000000000007500000                                                                          
400000000008920170328201703070300987622               3200032991451177 LM-Linha Móvel 2017021332000                           0 00VIVO MG                                000000      SUBServiços Contratados          SAFPACOTE LD 01                            +000000000000000000                                                                          
400000000009020170328201703070300987622               3200032991451177 LM-Linha Móvel 2017021332000                           0 00VIVO MG                                000000      SUBServiços Contratados          SAFPAC 50 MIN FLEX COMP                    +000000000033700000                                                                          
400000000009120170328201703070300987622               3200032991451177 LM-Linha Móvel 2017021332000                           0 00VIVO MG                                000000      SUBServiços Contratados          SAFPAC CORP LD ROAMING FLEX                +000000000000000000                                                                          
400000000009220170328201703070300987622               3200032991451177 LM-Linha Móvel 2017021332000                           0 00VIVO MG                                000000      SUBServiços Contratados          SAFINTERNET MOVEL 3GB EMP 4G               +000000000636700000                                                                          
400000000009320170328201703070300987622               3200032991451177 LM-Linha Móvel 2017021432000                           0 00VIVO MG                                000401074645USOVIVO Internet                 ZAPINTERNET MÓVEL 2                        +000000000000000000                                                                          
400000000009420170328201703070300987622               3200032991451177 LM-Linha Móvel 2017021432000                           0 00VIVO MG                                047616074659USOVIVO Internet                 ZAPINTERNET MÓVEL 2                        +000000000000000000                                                                          
400000000009520170328201703070300987622               3200032991451177 LM-Linha Móvel 2017021432000                           0 00VIVO MG                                000245173922USOVIVO Internet                 ZAPINTERNET MÓVEL 2                        +000000000000000000                                                                          
400000000009620170328201703070300987622               3200032991451177 LM-Linha Móvel 2017021432000                           0 00VIVO MG                                000163213513USOVIVO Internet                 ZAPINTERNET MÓVEL 2                        +000000000000000000                                                                          
400000000009720170328201703070300987622               3200032991451177 LM-Linha Móvel 2017021532000                           0 00VIVO MG                                036014062422USOVIVO Internet                 ZAPINTERNET MÓVEL 2                        +000000000000000000                                                                          
400000000009820170328201703070300987622               3200032991451177 LM-Linha Móvel 2017021532000                           0 00VIVO MG                                000521173150USOVIVO Internet                 ZAPINTERNET MÓVEL 2                        +000000000000000000                                                                          
400000000009920170328201703070300987622               3200032991451177 LM-Linha Móvel 2017021632000                           0 00VIVO MG                                091279072021USOVIVO Internet                 ZAPINTERNET MÓVEL 2                        +000000000000000000                                                                          
400000000010020170328201703070300987622               3200032991451177 LM-Linha Móvel 2017021732000                           0 00VIVO MG                                023050070135USOVIVO Internet                 ZAPINTERNET MÓVEL 2                        +000000000000000000                                                                          
400000000010120170328201703070300987622               3200032991451177 LM-Linha Móvel 2017021732000                           0 00VIVO MG                                016793171333USOVIVO Internet                 ZAPINTERNET MÓVEL 2                        +000000000000000000                                                                          
400000000010220170328201703070300987622               3200032991451177 LM-Linha Móvel 2017021732000                           0 00VIVO MG                                000696190033USOVIVO Internet                 ZAPINTERNET MÓVEL 2                        +000000000000000000                                                                          
400000000010320170328201703070300987622               3200032991451177 LM-Linha Móvel 2017021832000                           0 00VIVO MG                                038912101532USOVIVO Internet                 ZAPINTERNET MÓVEL 2                        +000000000000000000                                                                          
400000000010420170328201703070300987622               3200032991451177 LM-Linha Móvel 2017021932000                           0 00VIVO MG                                092774143740USOVIVO Internet                 ZAPINTERNET MÓVEL 2                        +000000000000000000                                                                          
400000000010520170328201703070300987622               3200032991451177 LM-Linha Móvel 2017022032000                           0 00VIVO MG                                014059065148USOVIVO Internet                 ZAPINTERNET MÓVEL 2                        +000000000000000000                                                                          
400000000010620170328201703070300987622               3200032991451177 LM-Linha Móvel 2017022032000                           0 00VIVO MG                                000414174718USOVIVO Internet                 ZAPINTERNET MÓVEL 2                        +000000000000000000                                                                          
400000000010720170328201703070300987622               3200032991451177 LM-Linha Móvel 2017022132000                           0 00VIVO MG                                015872065353USOVIVO Internet                 ZAPINTERNET MÓVEL 2                        +000000000000000000                                                                          
400000000010820170328201703070300987622               3200032991451177 LM-Linha Móvel 2017022132000                           0 00VIVO MG                                032235072417USOVIVO Internet                 ZAPINTERNET MÓVEL 2                        +000000000000000000                                                                          
400000000010920170328201703070300987622               3200032991451177 LM-Linha Móvel 2017022132000                           0 00VIVO MG                                019046141034USOVIVO Internet                 ZAPINTERNET MÓVEL 2                        +000000000000000000                                                                          
400000000011020170328201703070300987622               3200032991451177 LM-Linha Móvel 2017022232000                           0 00VIVO MG                                012328071529USOVIVO Internet                 ZAPINTERNET MÓVEL 2                        +000000000000000000                                                                          
400000000011120170328201703070300987622               3200032991451177 LM-Linha Móvel 2017022232000                           0 00VIVO MG                                019046101835USOVIVO Internet                 ZAPINTERNET MÓVEL 2                        +000000000000000000                                                                          
400000000011220170328201703070300987622               3200032991451177 LM-Linha Móvel 2017022332000                           0 00VIVO MG                                016486070807USOVIVO Internet                 ZAPINTERNET MÓVEL 2                        +000000000000000000                                                                          
400000000011320170328201703070300987622               3200032991451177 LM-Linha Móvel 2017022432000                           0 00VIVO MG                                078028065546USOVIVO Internet                 ZAPINTERNET MÓVEL 2                        +000000000000000000                                                                          
400000000011420170328201703070300987622               3200032991451177 LM-Linha Móvel 2017022432000                           0 00VIVO MG                                000258230155USOVIVO Internet                 ZAPINTERNET MÓVEL 2                        +000000000000000000                                                                          
400000000011520170328201703070300987622               3200032991451177 LM-Linha Móvel 2017022432000                           0 00VIVO MG                                000726233122USOVIVO Internet                 ZAPINTERNET MÓVEL 2                        +000000000000000000                                                                          
400000000011620170328201703070300987622               3200032991451177 LM-Linha Móvel 2017022532000                           0 00VIVO MG                                000196001745USOVIVO Internet                 ZAPINTERNET MÓVEL 2                        +000000000000000000                                                                          
400000000011720170328201703070300987622               3200032991451177 LM-Linha Móvel 2017022532000                           0 00VIVO MG                                043008190500USOVIVO Internet                 ZAPINTERNET MÓVEL 2                        +000000000000000000                                                                          
400000000011820170328201703070300987622               3200032991451177 LM-Linha Móvel 2017022632000                           0 00VIVO MG                                010905110759USOVIVO Internet                 ZAPINTERNET MÓVEL 2                        +000000000000000000                                                                          
400000000011920170328201703070300987622               3200032991451177 LM-Linha Móvel 2017022632000                           0 00VIVO MG                                010567152853USOVIVO Internet                 ZAPINTERNET MÓVEL 2                        +000000000000000000                                                                          
400000000012020170328201703070300987622               3200032991451177 LM-Linha Móvel 2017022732000                           0 00VIVO MG                                095948092300USOVIVO Internet                 ZAPINTERNET MÓVEL 2                        +000000000000000000                                                                          
400000000012120170328201703070300987622               3200032991451177 LM-Linha Móvel 2017022832000                           0 00VIVO MG                                010444142541USOVIVO Internet                 ZAPINTERNET MÓVEL 2                        +000000000000000000                                                                          
400000000012220170328201703070300987622               3200032991451177 LM-Linha Móvel 2017022832000                           0 00VIVO MG                                000143194039USOVIVO Internet                 ZAPINTERNET MÓVEL 2                        +000000000000000000                                                                          
400000000012320170328201703070300987622               3200032991451177 LM-Linha Móvel 2017022832000                           0 00VIVO MG                                000303212852USOVIVO Internet                 ZAPINTERNET MÓVEL 2                        +000000000000000000                                                                          
400000000012420170328201703070300987622               3200032991451177 LM-Linha Móvel 2017030132000                           0 00VIVO MG                                000324093734USOVIVO Internet                 ZAPINTERNET MÓVEL 2                        +000000000000000000                                                                          
400000000012520170328201703070300987622               3200032991451177 LM-Linha Móvel 2017030132000                           0 00VIVO MG                                056320164656USOVIVO Internet                 ZAPINTERNET MÓVEL 2                        +000000000000000000                                                                          
400000000012620170328201703070300987622               3200032991451177 LM-Linha Móvel 2017030132000                           0 00VIVO MG                                010752180440USOVIVO Internet                 ZAPINTERNET MÓVEL 2                        +000000000000000000                                                                          
400000000012720170328201703070300987622               3200032991451177 LM-Linha Móvel 2017030132000                           0 00VIVO MG                                000014220415USOVIVO Internet                 ZAPINTERNET MÓVEL 2                        +000000000000000000                                                                          
400000000012820170328201703070300987622               3200032991451177 LM-Linha Móvel 2017030232000                           0 00VIVO MG                                081827065907USOVIVO Internet                 ZAPINTERNET MÓVEL 2                        +000000000000000000                                                                          
500000000012920170328201703070300987622               03003947950    032017    3200032991451177 CREDESCONTO 12MESES INTERNET R$55 - 32-99145-1177                                  -0000000000000000000000000004125201702060000002017030500000000000                                                                                                          
100000000013003003947950    032017    20170328201703070300987554               00000AREA - 032               32991451200 SMP Serviço Móvel Pessoal              LM-Linha Móvel            00000000000000002017020620170305MIN  0000000+0000000000000+000000000000025+0000000000122+0000000000000000001886980+0000000000487                                    
400000000013120170328201703070300987554               3200032991451200 LM-Linha Móvel 2017021332000                           0 00VIVO MG                                000000      SUBServiços Contratados          SAFVIVO EMPRESAS FLEX ASSIN                +000000000007500000                                                                          
400000000013220170328201703070300987554               3200032991451200 LM-Linha Móvel 2017021332000                           0 00VIVO MG                                000000      SUBServiços Contratados          SAFSERVICO GESTAO                          +000000000000000000                                                                          
400000000013320170328201703070300987554               3200032991451200 LM-Linha Móvel 2017021332000                           0 00VIVO MG                                000000      SUBServiços Contratados          SAFPACOTE GESTAO COMPLETO                  +000000000000000000                                                                          
400000000013420170328201703070300987554               3200032991451200 LM-Linha Móvel 2017021332000                           0 00VIVO MG                                000000      SUBServiços Contratados          SAFINTRAGRUPO LOCAL 2.000 MINUTOS          +000000000007500000                                                                          
400000000013520170328201703070300987554               3200032991451200 LM-Linha Móvel 2017021332000                           0 00VIVO MG                                000000      SUBServiços Contratados          SAFPACOTE LD 01                            +000000000000000000                                                                          
400000000013620170328201703070300987554               3200032991451200 LM-Linha Móvel 2017021332000                           0 00VIVO MG                                000000      SUBServiços Contratados          SAFPAC 50 MIN FLEX COMP                    +000000000033700000                                                                          
400000000013720170328201703070300987554               3200032991451200 LM-Linha Móvel 2017021332000                           0 00VIVO MG                                000000      SUBServiços Contratados          SAFPAC CORP LD ROAMING FLEX                +000000000000000000                                                                          
100000000013803003947950    032017    20170328201703070300987553               00000AREA - 032               32991451221 SMP Serviço Móvel Pessoal              LM-Linha Móvel            00000000000000002017020620170305MIN  0000000+0000000000000+000000000000025+0000000000702+0000000000000000001886980+0000000002809                                    
300000000013920170328201703070300987553               3200032991451221 LM-Linha Móvel   2017021432000AREA 32                  MG0 00VIVO MG                32  30033030    000094VC1Para Fixo Vivo                                    1439151KNormal                   00+02500000000000000000000                                                             
300000000014020170328201703070300987553               3200032991451221 LM-Linha Móvel   2017030432000AREA 32                  MG0 00VIVO MG                32  30033030    000188VC1Para Fixo Vivo                                    1125181KNormal                   00+02500000000000000000000                                                             
300000000014120170328201703070300987553               3200032991451221 LM-Linha Móvel   2017022032000AREA 32                  MG0 00VIVO MG                32  988139318   000027VC1Para Celulares de Outras Operadoras               0834241KNormal                   00+02500000000000000000000                                                             
300000000014220170328201703070300987553               3200032991451221 LM-Linha Móvel   2017022032000AREA 32                  MG0 00VIVO MG                32  988205226   000023VC1Para Celulares de Outras Operadoras               1605141KNormal                   00+02500000000000000000000                                                             
300000000014320170328201703070300987553               3200032991451221 LM-Linha Móvel   2017022132000AREA 32                  MG0 00VIVO MG                32  988205226   000017VC1Para Celulares de Outras Operadoras               1016291KNormal                   00+02500000000000000000000                                                             
300000000014420170328201703070300987553               3200032991451221 LM-Linha Móvel   2017022232000AREA 32                  MG0 00VIVO MG                32  988277714   000006VC1Para Celulares de Outras Operadoras               0828101KNormal                   00+02500000000000000000000                                                             
300000000014520170328201703070300987553               3200032991451221 LM-Linha Móvel   2017022232000AREA 32                  MG0 00VIVO MG                32  991825222   000008VC1Para Celulares de Outras Operadoras               0834341KNormal                   00+02500000000000000000000                                                             
300000000014620170328201703070300987553               3200032991451221 LM-Linha Móvel   2017022332000AREA 32                  MG0 00VIVO MG                32  988917974   000005VC1Para Celulares de Outras Operadoras               1630441KNormal                   00+02500000000000000000000                                                             
300000000014720170328201703070300987553               3200032991451221 LM-Linha Móvel   2017022332000AREA 32                  MG0 00VIVO MG                32  988917974   000005VC1Para Celulares de Outras Operadoras               1637001KNormal                   00+02500000000000000000000                                                             
300000000014820170328201703070300987553               3200032991451221 LM-Linha Móvel   2017030132000AREA 32                  MG0 00VIVO MG                32  991350951   000005VC1Para Celulares de Outras Operadoras               1109481KNormal                   00+02500000000000000000000                                                             
300000000014920170328201703070300987553               3200032991451221 LM-Linha Móvel   2017030232000AREA 32                  MG0 00VIVO MG                32  988086188   000007VC1Para Celulares de Outras Operadoras               1455081KNormal                   00+02500000000000000000000                                                             
300000000015020170328201703070300987553               3200032991451221 LM-Linha Móvel   2017022132000AREA 32                  MG0 00VIVO MG                32  32161114    000006VC1Para Fixo de Outras Operadoras                    1400471KNormal                   00+02500000000000000000000                                                             
300000000015120170328201703070300987553               3200032991451221 LM-Linha Móvel   2017022132000AREA 32                  MG0 00VIVO MG                32  32161114    000005VC1Para Fixo de Outras Operadoras                    1518341KNormal                   00+02500000000000000000000                                                             
300000000015220170328201703070300987553               3200032991451221 LM-Linha Móvel   2017022132000AREA 32                  MG0 00VIVO MG                32  32161114    000005VC1Para Fixo de Outras Operadoras                    1529361KNormal                   00+02500000000000000000000                                                             
300000000015320170328201703070300987553               3200032991451221 LM-Linha Móvel   2017022332000AREA 32                  MG0 00VIVO MG                32  32161114    000005VC1Para Fixo de Outras Operadoras                    0809031KNormal                   00+02500000000000000000000                                                             
300000000015420170328201703070300987553               3200032991451221 LM-Linha Móvel   2017022332000AREA 32                  MG0 00VIVO MG                32  32174950    000007VC1Para Fixo de Outras Operadoras                    1527081KNormal                   00+02500000000000000000000                                                             
300000000015520170328201703070300987553               3200032991451221 LM-Linha Móvel   2017030332000AREA 32                  MG0 00VIVO MG                32  32161114    000008VC1Para Fixo de Outras Operadoras                    0910021KNormal                   00+02500000000000000000000                                                             
300000000015620170328201703070300987553               3200032991451221 LM-Linha Móvel   2017030332000AREA 32                  MG0 00VIVO MG                32  21021000    000111VC1Para Fixo de Outras Operadoras                    1158471KNormal                   00+02500000000000000000000                                                             
300000000015720170328201703070300987553               3200032991451221 LM-Linha Móvel   2017030332000AREA 32                  MG0 00VIVO MG                32  40095962    000024VC1Para Fixo de Outras Operadoras                    1241541KNormal                   00+02500000000000000000000                                                             
300000000015820170328201703070300987553               3200032991451221 LM-Linha Móvel   2017030332000AREA 32                  MG0 00VIVO MG                32  21021000    000115VC1Para Fixo de Outras Operadoras                    1255371KNormal                   00+02500000000000000000000                                                             
300000000015920170328201703070300987553               3200032991451221 LM-Linha Móvel   2017030332000AREA 32                  MG0 00VIVO MG                32  32161114    000005VC1Para Fixo de Outras Operadoras                    1437031KNormal                   00+02500000000000000000000                                                             
300000000016020170328201703070300987553               3200032991451221 LM-Linha Móvel   2017021632000AREA 32                  MG0 00VIVO MG                32  991451400   000012VC1Para Grupo                                        0821501KNormal                   00+02500000000000000000000                                                             
300000000016120170328201703070300987553               3200032991451221 LM-Linha Móvel   2017022832000                         RJ0 00VIVO RJ                32  984758526   000005ACBDe Celulares Vivo                                 1012564KNormal                   00+02500000000000000000000                                                             
300000000016220170328201703070300987553               3200032991451221 LM-Linha Móvel   2017022821000AREA 21                  RJ0 00VIVO RJ                21  996409090   000005VC1Para Celulares Vivo                               1017461KNormal                   00+02500000000000000000000                                                             
300000000016320170328201703070300987553               3200032991451221 LM-Linha Móvel   2017021632000AREA 32                  MG0 00VIVO MG                32  991451400   000007VC1Para Grupo                                        0821501KNormal                   00+02500000000000000000000                                                             
300000000016420170328201703070300987553               3200032991451221 LM-Linha Móvel   2017022035000AREA 32                  MG0 15TELEFONICA             35  30420552    000005VC2Para Fixo de Outras Operadoras                    0727221KNormal                   00+02500000000000002000000                                                             
300000000016520170328201703070300987553               3200032991451221 LM-Linha Móvel   2017022111000AREA 32                  MG0 15TELEFONICA             11  33860200    000005VC3Para Fixo Vivo                                    1350581KNormal                   00+02500000000000002000000                                                             
300000000016620170328201703070300987553               3200032991451221 LM-Linha Móvel   2017022321000AREA 32                  MG0 15TELEFONICA             21  981308130   000005VC3Para Celulares de Outras Operadoras               1633051KNormal                   00+02500000000000002000000                                                             
300000000016720170328201703070300987553               3200032991451221 LM-Linha Móvel   2017022413000AREA 32                  MG0 15TELEFONICA             13  40420868    000005VC3Para Fixo de Outras Operadoras                    1545061KNormal                   00+02500000000000002000000                                                             
300000000016820170328201703070300987553               3200032991451221 LM-Linha Móvel   2017022821000AREA 21                  RJ0 00VIVO RJ                21  996409090   000000ADLAdicional por Ligações Realizadas                 1017461KNormal                   00+02500000000000000000000                                                             
300000000016920170328201703070300987553               3200032991451221 LM-Linha Móvel   2017022800000AREA 21                  RJ0 00VIVO RJ                                000000ADLAdicional por Ligações Recebidas                  0928531KNormal                   00+02500000000000000000000                                                             
300000000017020170328201703070300987553               3200032991451221 LM-Linha Móvel   2017022800000AREA 21                  RJ0 00VIVO RJ                                000000ADLAdicional por Ligações Recebidas                  1012561KNormal                   00+02500000000000000000000                                                             
300000000017120170328201703070300987553               3200032991451221 LM-Linha Móvel   2017022800000AREA 21                  RJ0 00VIVO RJ                                000005DSLLigações Recebidas em Roaming                     0928531KNormal                   00+02500000000000000000000                                                             
300000000017220170328201703070300987553               3200032991451221 LM-Linha Móvel   2017022800000AREA 21                  RJ0 00VIVO RJ                                000005DSLLigações Recebidas em Roaming                     1012561KNormal                   00+02500000000000000000000                                                             
400000000017320170328201703070300987553               3200032991451221 LM-Linha Móvel 2017021332000                           0 00VIVO MG                                000000      SUBServiços Contratados          SAFVIVO EMPRESAS FLEX ASSIN                +000000000007500000                                                                          
400000000017420170328201703070300987553               3200032991451221 LM-Linha Móvel 2017021332000                           0 00VIVO MG                                000000      SUBServiços Contratados          SAFSERVICO GESTAO                          +000000000000000000                                                                          
400000000017520170328201703070300987553               3200032991451221 LM-Linha Móvel 2017030232000AREA 32                  MG0 00VIVO MG                5   55          000050092744USOServiços de Voz               VSCCX POST                                 +000000000000000000                                                                          
400000000017620170328201703070300987553               3200032991451221 LM-Linha Móvel 2017021332000                           0 00VIVO MG                                000000      SUBServiços Contratados          SAFPACOTE GESTAO COMPLETO                  +000000000000000000                                                                          
400000000017720170328201703070300987553               3200032991451221 LM-Linha Móvel 2017021332000                           0 00VIVO MG                                000000      SUBServiços Contratados          SAFINTRAGRUPO LOCAL 2.000 MINUTOS          +000000000007500000                                                                          
400000000017820170328201703070300987553               3200032991451221 LM-Linha Móvel 2017021332000                           0 00VIVO MG                                000000      SUBServiços Contratados          SAFPACOTE LD 01                            +000000000000000000                                                                          
400000000017920170328201703070300987553               3200032991451221 LM-Linha Móvel 2017021332000                           0 00VIVO MG                                000000      SUBServiços Contratados          SAFPAC 50 MIN FLEX COMP                    +000000000033700000                                                                          
400000000018020170328201703070300987553               3200032991451221 LM-Linha Móvel 2017021332000                           0 00VIVO MG                                000000      SUBServiços Contratados          SAFPAC CORP LD ROAMING FLEX                +000000000000000000                                                                          
400000000018120170328201703070300987553               3200032991451221 LM-Linha Móvel 2017021332000                           0 00VIVO MG                                000000      SUBServiços Contratados          SAFINTERNET MOVEL 3GB EMP 4G               +000000000636700000                                                                          
400000000018220170328201703070300987553               3200032991451221 LM-Linha Móvel 2017021432000                           0 00VIVO MG                                129464133824USOVIVO Internet                 ZAPINTERNET MÓVEL 2                        +000000000000000000                                                                          
400000000018320170328201703070300987553               3200032991451221 LM-Linha Móvel 2017021432000                           0 00VIVO MG                                038195210121USOVIVO Internet                 ZAPINTERNET MÓVEL 2                        +000000000000000000                                                                          
400000000018420170328201703070300987553               3200032991451221 LM-Linha Móvel 2017021432000                           0 00VIVO MG                                062586210904USOVIVO Internet                 ZAPINTERNET MÓVEL 2                        +000000000000000000                                                                          
400000000018520170328201703070300987553               3200032991451221 LM-Linha Móvel 2017021532000                           0 00VIVO MG                                370728024306USOVIVO Internet                 ZAPINTERNET MÓVEL 2                        +000000000000000000                                                                          
400000000018620170328201703070300987553               3200032991451221 LM-Linha Móvel 2017021532000                           0 00VIVO MG                                135782162703USOVIVO Internet                 ZAPINTERNET MÓVEL 2                        +000000000000000000                                                                          
400000000018720170328201703070300987553               3200032991451221 LM-Linha Móvel 2017021532000                           0 00VIVO MG                                114671210615USOVIVO Internet                 ZAPINTERNET MÓVEL 2                        +000000000000000000                                                                          
400000000018820170328201703070300987553               3200032991451221 LM-Linha Móvel 2017021632000                           0 00VIVO MG                                367994022814USOVIVO Internet                 ZAPINTERNET MÓVEL 2                        +000000000000000000                                                                          
400000000018920170328201703070300987553               3200032991451221 LM-Linha Móvel 2017021632000                           0 00VIVO MG                                021954180225USOVIVO Internet                 ZAPINTERNET MÓVEL 2                        +000000000000000000                                                                          
400000000019020170328201703070300987553               3200032991451221 LM-Linha Móvel 2017021632000                           0 00VIVO MG                                000001194809USOVIVO Internet                 ZAPINTERNET MÓVEL 2                        +000000000000000000                                                                          
400000000019120170328201703070300987553               3200032991451221 LM-Linha Móvel 2017021632000                           0 00VIVO MG                                205803195223USOVIVO Internet                 ZAPINTERNET MÓVEL 2                        +000000000000000000                                                                          
400000000019220170328201703070300987553               3200032991451221 LM-Linha Móvel 2017021732000                           0 00VIVO MG                                038615022431USOVIVO Internet                 ZAPINTERNET MÓVEL 2                        +000000000000000000                                                                          
400000000019320170328201703070300987553               3200032991451221 LM-Linha Móvel 2017021732000                           0 00VIVO MG                                074188145114USOVIVO Internet                 ZAPINTERNET MÓVEL 2                        +000000000000000000                                                                          
400000000019420170328201703070300987553               3200032991451221 LM-Linha Móvel 2017021832000                           0 00VIVO MG                                013209021001USOVIVO Internet                 ZAPINTERNET MÓVEL 2                        +000000000000000000                                                                          
400000000019520170328201703070300987553               3200032991451221 LM-Linha Móvel 2017021832000                           0 00VIVO MG                                018124030758USOVIVO Internet                 ZAPINTERNET MÓVEL 2                        +000000000000000000                                                                          
400000000019620170328201703070300987553               3200032991451221 LM-Linha Móvel 2017021832000                           0 00VIVO MG                                011294031659USOVIVO Internet                 ZAPINTERNET MÓVEL 2                        +000000000000000000                                                                          
400000000019720170328201703070300987553               3200032991451221 LM-Linha Móvel 2017021832000                           0 00VIVO MG                                017408123353USOVIVO Internet                 ZAPINTERNET MÓVEL 2                        +000000000000000000                                                                          
400000000019820170328201703070300987553               3200032991451221 LM-Linha Móvel 2017021832000                           0 00VIVO MG                                339537124404USOVIVO Internet                 ZAPINTERNET MÓVEL 2                        +000000000000000000                                                                          
400000000019920170328201703070300987553               3200032991451221 LM-Linha Móvel 2017021832000                           0 00VIVO MG                                169830191243USOVIVO Internet                 ZAPINTERNET MÓVEL 2                        +000000000000000000                                                                          
400000000020020170328201703070300987553               3200032991451221 LM-Linha Móvel 2017021832000                           0 00VIVO MG                                062534191243USOVIVO Internet                 ZAPINTERNET MÓVEL 2                        +000000000000000000                                                                          
400000000020120170328201703070300987553               3200032991451221 LM-Linha Móvel 2017021832000                           0 00VIVO MG                                169739191243USOVIVO Internet                 ZAPINTERNET MÓVEL 2                        +000000000000000000                                                                          
400000000020220170328201703070300987553               3200032991451221 LM-Linha Móvel 2017021832000                           0 00VIVO MG                                037273223551USOVIVO Internet                 ZAPINTERNET MÓVEL 2                        +000000000000000000                                                                          
400000000020320170328201703070300987553               3200032991451221 LM-Linha Móvel 2017021932000                           0 00VIVO MG                                066549023629USOVIVO Internet                 ZAPINTERNET MÓVEL 2                        +000000000000000000                                                                          
400000000020420170328201703070300987553               3200032991451221 LM-Linha Móvel 2017021932000                           0 00VIVO MG                                148674113924USOVIVO Internet                 ZAPINTERNET MÓVEL 2                        +000000000000000000                                                                          
400000000020520170328201703070300987553               3200032991451221 LM-Linha Móvel 2017021932000                           0 00VIVO MG                                016998151730USOVIVO Internet                 ZAPINTERNET MÓVEL 2                        +000000000000000000                                                                          
400000000020620170328201703070300987553               3200032991451221 LM-Linha Móvel 2017021932000                           0 00VIVO MG                                016076171618USOVIVO Internet                 ZAPINTERNET MÓVEL 2                        +000000000000000000                                                                          
400000000020720170328201703070300987553               3200032991451221 LM-Linha Móvel 2017022032000                           0 00VIVO MG                                084623020742USOVIVO Internet                 ZAPINTERNET MÓVEL 2                        +000000000000000000                                                                          
400000000020820170328201703070300987553               3200032991451221 LM-Linha Móvel 2017022032000                           0 00VIVO MG                                486010121501USOVIVO Internet                 ZAPINTERNET MÓVEL 2                        +000000000000000000                                                                          
400000000020920170328201703070300987553               3200032991451221 LM-Linha Móvel 2017022132000                           0 00VIVO MG                                016281023222USOVIVO Internet                 ZAPINTERNET MÓVEL 2                        +000000000000000000                                                                          
400000000021020170328201703070300987553               3200032991451221 LM-Linha Móvel 2017022132000                           0 00VIVO MG                                046469052703USOVIVO Internet                 ZAPINTERNET MÓVEL 2                        +000000000000000000                                                                          
400000000021120170328201703070300987553               3200032991451221 LM-Linha Móvel 2017022132000                           0 00VIVO MG                                000403091925USOVIVO Internet                 ZAPINTERNET MÓVEL 2                        +000000000000000000                                                                          
400000000021220170328201703070300987553               3200032991451221 LM-Linha Móvel 2017022132000                           0 00VIVO MG                                000007092000USOVIVO Internet                 ZAPINTERNET MÓVEL 2                        +000000000000000000                                                                          
400000000021320170328201703070300987553               3200032991451221 LM-Linha Móvel 2017022132000                           0 00VIVO MG                                000031092244USOVIVO Internet                 ZAPINTERNET MÓVEL 2                        +000000000000000000                                                                          
400000000021420170328201703070300987553               3200032991451221 LM-Linha Móvel 2017022132000                           0 00VIVO MG                                000002101337USOVIVO Internet                 ZAPINTERNET MÓVEL 2                        +000000000000000000                                                                          
400000000021520170328201703070300987553               3200032991451221 LM-Linha Móvel 2017022132000                           0 00VIVO MG                                000002101409USOVIVO Internet                 ZAPINTERNET MÓVEL 2                        +000000000000000000                                                                          
400000000021620170328201703070300987553               3200032991451221 LM-Linha Móvel 2017022132000                           0 00VIVO MG                                000276101424USOVIVO Internet                 ZAPINTERNET MÓVEL 2                        +000000000000000000                                                                          
400000000021720170328201703070300987553               3200032991451221 LM-Linha Móvel 2017022132000                           0 00VIVO MG                                000007101545USOVIVO Internet                 ZAPINTERNET MÓVEL 2                        +000000000000000000                                                                          
400000000021820170328201703070300987553               3200032991451221 LM-Linha Móvel 2017022132000                           0 00VIVO MG                                377077101841USOVIVO Internet                 ZAPINTERNET MÓVEL 2                        +000000000000000000                                                                          
400000000021920170328201703070300987553               3200032991451221 LM-Linha Móvel 2017022232000                           0 00VIVO MG                                014950014705USOVIVO Internet                 ZAPINTERNET MÓVEL 2                        +000000000000000000                                                                          
400000000022020170328201703070300987553               3200032991451221 LM-Linha Móvel 2017022232000                           0 00VIVO MG                                013414024708USOVIVO Internet                 ZAPINTERNET MÓVEL 2                        +000000000000000000                                                                          
400000000022120170328201703070300987553               3200032991451221 LM-Linha Móvel 2017022232000                           0 00VIVO MG                                027187074328USOVIVO Internet                 ZAPINTERNET MÓVEL 2                        +000000000000000000                                                                          
400000000022220170328201703070300987553               3200032991451221 LM-Linha Móvel 2017022232000                           0 00VIVO MG                                048332094912USOVIVO Internet                 ZAPINTERNET MÓVEL 2                        +000000000000000000                                                                          
400000000022320170328201703070300987553               3200032991451221 LM-Linha Móvel 2017022232000                           0 00VIVO MG                                042014171156USOVIVO Internet                 ZAPINTERNET MÓVEL 2                        +000000000000000000                                                                          
400000000022420170328201703070300987553               3200032991451221 LM-Linha Móvel 2017022232000                           0 00VIVO MG                                000508183525USOVIVO Internet                 ZAPINTERNET MÓVEL 2                        +000000000000000000                                                                          
400000000022520170328201703070300987553               3200032991451221 LM-Linha Móvel 2017022232000                           0 00VIVO MG                                050585184155USOVIVO Internet                 ZAPINTERNET MÓVEL 2                        +000000000000000000                                                                          
400000000022620170328201703070300987553               3200032991451221 LM-Linha Móvel 2017022232000                           0 00VIVO MG                                048424193405USOVIVO Internet                 ZAPINTERNET MÓVEL 2                        +000000000000000000                                                                          
400000000022720170328201703070300987553               3200032991451221 LM-Linha Móvel 2017022332000                           0 00VIVO MG                                068894022329USOVIVO Internet                 ZAPINTERNET MÓVEL 2                        +000000000000000000                                                                          
400000000022820170328201703070300987553               3200032991451221 LM-Linha Móvel 2017022332000                           0 00VIVO MG                                071372163136USOVIVO Internet                 ZAPINTERNET MÓVEL 2                        +000000000000000000                                                                          
400000000022920170328201703070300987553               3200032991451221 LM-Linha Móvel 2017022432000                           0 00VIVO MG                                102768015905USOVIVO Internet                 ZAPINTERNET MÓVEL 2                        +000000000000000000                                                                          
400000000023020170328201703070300987553               3200032991451221 LM-Linha Móvel 2017022432000                           0 00VIVO MG                                026664102258USOVIVO Internet                 ZAPINTERNET MÓVEL 2                        +000000000000000000                                                                          
400000000023120170328201703070300987553               3200032991451221 LM-Linha Móvel 2017022432000                           0 00VIVO MG                                000066113507USOVIVO Internet                 ZAPINTERNET MÓVEL 2                        +000000000000000000                                                                          
400000000023220170328201703070300987553               3200032991451221 LM-Linha Móvel 2017022432000                           0 00VIVO MG                                100771113659USOVIVO Internet                 ZAPINTERNET MÓVEL 2                        +000000000000000000                                                                          
400000000023320170328201703070300987553               3200032991451221 LM-Linha Móvel 2017022432000                           0 00VIVO MG                                092364125305USOVIVO Internet                 ZAPINTERNET MÓVEL 2                        +000000000000000000                                                                          
400000000023420170328201703070300987553               3200032991451221 LM-Linha Móvel 2017022432000                           0 00VIVO MG                                085985125644USOVIVO Internet                 ZAPINTERNET MÓVEL 2                        +000000000000000000                                                                          
400000000023520170328201703070300987553               3200032991451221 LM-Linha Móvel 2017022432000                           0 00VIVO MG                                092160204504USOVIVO Internet                 ZAPINTERNET MÓVEL 2                        +000000000000000000                                                                          
400000000023620170328201703070300987553               3200032991451221 LM-Linha Móvel 2017022532000                           0 00VIVO MG                                151664024508USOVIVO Internet                 ZAPINTERNET MÓVEL 2                        +000000000000000000                                                                          
400000000023720170328201703070300987553               3200032991451221 LM-Linha Móvel 2017022532000                           0 00VIVO MG                                294492095501USOVIVO Internet                 ZAPINTERNET MÓVEL 2                        +000000000000000000                                                                          
400000000023820170328201703070300987553               3200032991451221 LM-Linha Móvel 2017022632000                           0 00VIVO MG                                822292020059USOVIVO Internet                 ZAPINTERNET MÓVEL 2                        +000000000000000000                                                                          
400000000023920170328201703070300987553               3200032991451221 LM-Linha Móvel 2017022632000                           0 00VIVO MG                                182824200058USOVIVO Internet                 ZAPINTERNET MÓVEL 2                        +000000000000000000                                                                          
400000000024020170328201703070300987553               3200032991451221 LM-Linha Móvel 2017022732000                           0 00VIVO MG                                038451020102USOVIVO Internet                 ZAPINTERNET MÓVEL 2                        +000000000000000000                                                                          
400000000024120170328201703070300987553               3200032991451221 LM-Linha Móvel 2017022732000                           0 00VIVO MG                                353382084942USOVIVO Internet                 ZAPINTERNET MÓVEL 2                        +000000000000000000                                                                          
400000000024220170328201703070300987553               3200032991451221 LM-Linha Móvel 2017022732000                           0 00VIVO MG                                000061210632USOVIVO Internet                 ZAPINTERNET MÓVEL 2                        +000000000000000000                                                                          
400000000024320170328201703070300987553               3200032991451221 LM-Linha Móvel 2017022732000                           0 00VIVO MG                                000108211342USOVIVO Internet                 ZAPINTERNET MÓVEL 2                        +000000000000000000                                                                          
400000000024420170328201703070300987553               3200032991451221 LM-Linha Móvel 2017022732000                           0 00VIVO MG                                075079212746USOVIVO Internet                 ZAPINTERNET MÓVEL 2                        +000000000000000000                                                                          
400000000024520170328201703070300987553               3200032991451221 LM-Linha Móvel 2017022832000                           0 00VIVO MG                                038041024217USOVIVO Internet                 ZAPINTERNET MÓVEL 2                        +000000000000000000                                                                          
400000000024620170328201703070300987553               3200032991451221 LM-Linha Móvel 2017022832000                           0 00VIVO MG                                012001075411USOVIVO Internet                 ZAPINTERNET MÓVEL 2                        +000000000000000000                                                                          
400000000024720170328201703070300987553               3200032991451221 LM-Linha Móvel 2017022832000                           0 00VIVO MG                                000001081706USOVIVO Internet                 ZAPINTERNET MÓVEL 2                        +000000000000000000                                                                          
400000000024820170328201703070300987553               3200032991451221 LM-Linha Móvel 2017022832000                           0 00VIVO MG                                000117081717USOVIVO Internet                 ZAPINTERNET MÓVEL 2                        +000000000000000000                                                                          
400000000024920170328201703070300987553               3200032991451221 LM-Linha Móvel 2017022832000                           0 00VIVO MG                                000050081738USOVIVO Internet                 ZAPINTERNET MÓVEL 2                        +000000000000000000                                                                          
400000000025020170328201703070300987553               3200032991451221 LM-Linha Móvel 2017022832000                           0 00VIVO MG                                000003081759USOVIVO Internet                 ZAPINTERNET MÓVEL 2                        +000000000000000000                                                                          
400000000025120170328201703070300987553               3200032991451221 LM-Linha Móvel 2017022832000                           0 00VIVO MG                                000030081813USOVIVO Internet                 ZAPINTERNET MÓVEL 2                        +000000000000000000                                                                          
400000000025220170328201703070300987553               3200032991451221 LM-Linha Móvel 2017022832000                           0 00VIVO MG                                000043081826USOVIVO Internet                 ZAPINTERNET MÓVEL 2                        +000000000000000000                                                                          
400000000025320170328201703070300987553               3200032991451221 LM-Linha Móvel 2017022832000                           0 00VIVO MG                                033177081849USOVIVO Internet                 ZAPINTERNET MÓVEL 2                        +000000000000000000                                                                          
400000000025420170328201703070300987553               3200032991451221 LM-Linha Móvel 2017022832000                           0 00VIVO MG                                000001084055USOVIVO Internet                 ZAPINTERNET MÓVEL 2                        +000000000000000000                                                                          
400000000025520170328201703070300987553               3200032991451221 LM-Linha Móvel 2017022832000                           0 00VIVO MG                                000018085341USOVIVO Internet                 ZAPINTERNET MÓVEL 2                        +000000000000000000                                                                          
400000000025620170328201703070300987553               3200032991451221 LM-Linha Móvel 2017022832000                           0 00VIVO MG                                000001091338USOVIVO Internet                 ZAPINTERNET MÓVEL 2                        +000000000000000000                                                                          
400000000025720170328201703070300987553               3200032991451221 LM-Linha Móvel 2017022832000                           0 00VIVO MG                                000007092230USOVIVO Internet                 ZAPINTERNET MÓVEL 2                        +000000000000000000                                                                          
400000000025820170328201703070300987553               3200032991451221 LM-Linha Móvel 2017022832000                           0 00VIVO MG                                000028093035USOVIVO Internet                 ZAPINTERNET MÓVEL 2                        +000000000000000000                                                                          
400000000025920170328201703070300987553               3200032991451221 LM-Linha Móvel 2017022832000                           0 00VIVO MG                                000008101305USOVIVO Internet                 ZAPINTERNET MÓVEL 2                        +000000000000000000                                                                          
400000000026020170328201703070300987553               3200032991451221 LM-Linha Móvel 2017022832000                           0 00VIVO MG                                000003101339USOVIVO Internet                 ZAPINTERNET MÓVEL 2                        +000000000000000000                                                                          
400000000026120170328201703070300987553               3200032991451221 LM-Linha Móvel 2017022832000                           0 00VIVO MG                                000016102627USOVIVO Internet                 ZAPINTERNET MÓVEL 2                        +000000000000000000                                                                          
400000000026220170328201703070300987553               3200032991451221 LM-Linha Móvel 2017022832000                           0 00VIVO MG                                000019104319USOVIVO Internet                 ZAPINTERNET MÓVEL 2                        +000000000000000000                                                                          
400000000026320170328201703070300987553               3200032991451221 LM-Linha Móvel 2017022832000                           0 00VIVO MG                                000007112611USOVIVO Internet                 ZAPINTERNET MÓVEL 2                        +000000000000000000                                                                          
400000000026420170328201703070300987553               3200032991451221 LM-Linha Móvel 2017022832000                           0 00VIVO MG                                000007112621USOVIVO Internet                 ZAPINTERNET MÓVEL 2                        +000000000000000000                                                                          
400000000026520170328201703070300987553               3200032991451221 LM-Linha Móvel 2017022832000                           0 00VIVO MG                                000012113608USOVIVO Internet                 ZAPINTERNET MÓVEL 2                        +000000000000000000                                                                          
400000000026620170328201703070300987553               3200032991451221 LM-Linha Móvel 2017022832000                           0 00VIVO MG                                000516124540USOVIVO Internet                 ZAPINTERNET MÓVEL 2                        +000000000000000000                                                                          
400000000026720170328201703070300987553               3200032991451221 LM-Linha Móvel 2017022832000                           0 00VIVO MG                                421847125849USOVIVO Internet                 ZAPINTERNET MÓVEL 2                        +000000000000000000                                                                          
400000000026820170328201703070300987553               3200032991451221 LM-Linha Móvel 2017030132000                           0 00VIVO MG                                260628015929USOVIVO Internet                 ZAPINTERNET MÓVEL 2                        +000000000000000000                                                                          
400000000026920170328201703070300987553               3200032991451221 LM-Linha Móvel 2017030132000                           0 00VIVO MG                                085534120907USOVIVO Internet                 ZAPINTERNET MÓVEL 2                        +000000000000000000                                                                          
400000000027020170328201703070300987553               3200032991451221 LM-Linha Móvel 2017030132000                           0 00VIVO MG                                328990194347USOVIVO Internet                 ZAPINTERNET MÓVEL 2                        +000000000000000000                                                                          
400000000027120170328201703070300987553               3200032991451221 LM-Linha Móvel 2017030132000                           0 00VIVO MG                                064040224659USOVIVO Internet                 ZAPINTERNET MÓVEL 2                        +000000000000000000                                                                          
400000000027220170328201703070300987553               3200032991451221 LM-Linha Móvel 2017030232000                           0 00VIVO MG                                192870024711USOVIVO Internet                 ZAPINTERNET MÓVEL 2                        +000000000000000000                                                                          
400000000027320170328201703070300987553               3200032991451221 LM-Linha Móvel 2017030232000                           0 00VIVO MG                                035870131917USOVIVO Internet                 ZAPINTERNET MÓVEL 2                        +000000000000000000                                                                          
400000000027420170328201703070300987553               3200032991451221 LM-Linha Móvel 2017030232000                           0 00VIVO MG                                014909160320USOVIVO Internet                 ZAPINTERNET MÓVEL 2                        +000000000000000000                                                                          
500000000027520170328201703070300987553               03003947950    032017    3200032991451221 CREDESCONTO 12MESES INTERNET R$55 - 32-99145-1221                                  -0000000000000000000000000004125201702060000002017030500000000000                                                                                                          
100000000027603003947950    032017    20170328201703070300987555               00000AREA - 032               32991451300 SMP Serviço Móvel Pessoal              LM-Linha Móvel            00000000000000002017020620170305MIN  0000000+0000000000000+000000000000025+0000000001103+0000000000000000001886980+0000000004412                                    
300000000027720170328201703070300987555               3200032991451300 LM-Linha Móvel   2017022032000AREA 32                  MG0 00VIVO MG                32  999425200   000010VC1Para Celulares Vivo                               1001091KNormal                   00+02500000000000000000000                                                             
300000000027820170328201703070300987555               3200032991451300 LM-Linha Móvel   2017022032000AREA 32                  MG0 00VIVO MG                32  999776824   000005VC1Para Celulares Vivo                               1415521KNormal                   00+02500000000000000000000                                                             
300000000027920170328201703070300987555               3200032991451300 LM-Linha Móvel   2017022032000AREA 32                  MG0 00VIVO MG                32  999776824   000105VC1Para Celulares Vivo                               1649191KNormal                   00+02500000000000000000000                                                             
300000000028020170328201703070300987555               3200032991451300 LM-Linha Móvel   2017022132000AREA 32                  MG0 00VIVO MG                32  999776824   000042VC1Para Celulares Vivo                               1330181KNormal                   00+02500000000000000000000                                                             
300000000028120170328201703070300987555               3200032991451300 LM-Linha Móvel   2017022132000AREA 32                  MG0 00VIVO MG                32  999776824   000006VC1Para Celulares Vivo                               1459451KNormal                   00+02500000000000000000000                                                             
300000000028220170328201703070300987555               3200032991451300 LM-Linha Móvel   2017022232000AREA 32                  MG0 00VIVO MG                32  999776824   000013VC1Para Celulares Vivo                               0838401KNormal                   00+02500000000000000000000                                                             
300000000028320170328201703070300987555               3200032991451300 LM-Linha Móvel   2017022232000AREA 32                  MG0 00VIVO MG                32  999476461   000021VC1Para Celulares Vivo                               1141261KNormal                   00+02500000000000000000000                                                             
300000000028420170328201703070300987555               3200032991451300 LM-Linha Móvel   2017022432000AREA 32                  MG0 00VIVO MG                32  999776824   000043VC1Para Celulares Vivo                               0900441KNormal                   00+02500000000000000000000                                                             
