000000000000120170301VIVO           RJ02943355121    CHOPP CONTROL AUDITORIA DE BEBIDAS      08453543000176 0294335512     022017    2017022820170208                                                                                                                                                                                                         
100000000000202943355121    022017    20170228201702080295608664               21000AREA - 021               21967001912 SMP Serviço Móvel Pessoal              LM-Linha Móvel            00000000000000002017010620170205MIN  0000000+0000000000000+000000000000025+0000000000175+0000000000000000000000001+0000000000700                                    
400000000000320170228201702080295608664               2100021967001912 LM-Linha Móvel 2017010600000                                                                      000000      SUBServiços Adicionais e FacilidaSAFVIVO EMPRESAS FLEX ASSIN                +000000000010000000                                                                          
400000000000420170228201702080295608664               2100021967001912 LM-Linha Móvel 2017010600000                                                                      000000      SUBServiços Adicionais e FacilidaSAFSERVICO GESTAO                          +000000000000000000                                                                          
400000000000520170228201702080295608664               2100021967001912 LM-Linha Móvel 2017010600000                                                                      000000      SUBServiços Adicionais e FacilidaSAFPAC 50 MIN FLEX COMP                    +000000000050000000                                                                          
400000000000620170228201702080295608664               2100021967001912 LM-Linha Móvel 2017010600000                                                                      000000      SUBServiços Adicionais e FacilidaSAFPAC CORP LD ROAMING FLEX                +000000000000000000                                                                          
400000000000720170228201702080295608664               2100021967001912 LM-Linha Móvel 2017010600000                                                                      000000      SUBServiços Adicionais e FacilidaSAFPACOTE GESTAO COMPLETO                  +000000000000000000                                                                          
400000000000820170228201702080295608664               2100021967001912 LM-Linha Móvel 2017010600000                                                                      000000      SUBServiços Adicionais e FacilidaSAFINTRAGRUPO LOCAL 2.000 MINUTOS          +000000000010000000                                                                          
400000000000920170228201702080295608664               2100021967001912 LM-Linha Móvel 2017010600000                                                                      00000001    SUBServiços Adicionais e FacilidaSAFPACOTE LD 01                            +000000000000000000                                                                          
100000000001002943355121    022017    20170228201702080295608658               21000AREA - 021               21967002790 SMP Serviço Móvel Pessoal              LM-Linha Móvel            00000000000000002017010620170205MIN  0000000+0000000000000+000000000000025+0000000000175+0000000000000000000000001+0000000000700                                    
400000000001120170228201702080295608658               2100021967002790 LM-Linha Móvel 2017010600000                                                                      000000      SUBServiços Adicionais e FacilidaSAFVIVO EMPRESAS FLEX ASSIN                +000000000010000000                                                                          
400000000001220170228201702080295608658               2100021967002790 LM-Linha Móvel 2017010600000                                                                      000000      SUBServiços Adicionais e FacilidaSAFSERVICO GESTAO                          +000000000000000000                                                                          
400000000001320170228201702080295608658               2100021967002790 LM-Linha Móvel 2017010600000                                                                      000000      SUBServiços Adicionais e FacilidaSAFPAC 50 MIN FLEX COMP                    +000000000050000000                                                                          
400000000001420170228201702080295608658               2100021967002790 LM-Linha Móvel 2017010600000                                                                      000000      SUBServiços Adicionais e FacilidaSAFPAC CORP LD ROAMING FLEX                +000000000000000000                                                                          
400000000001520170228201702080295608658               2100021967002790 LM-Linha Móvel 2017010600000                                                                      000000      SUBServiços Adicionais e FacilidaSAFPACOTE GESTAO COMPLETO                  +000000000000000000                                                                          
400000000001620170228201702080295608658               2100021967002790 LM-Linha Móvel 2017010600000                                                                      000000      SUBServiços Adicionais e FacilidaSAFINTRAGRUPO LOCAL 2.000 MINUTOS          +000000000010000000                                                                          
400000000001720170228201702080295608658               2100021967002790 LM-Linha Móvel 2017010600000                                                                      00000001    SUBServiços Adicionais e FacilidaSAFPACOTE LD 01                            +000000000000000000                                                                          
100000000001802943355121    022017    20170228201702080295608581               21000AREA - 021               21967024526 SMP Serviço Móvel Pessoal              LM-Linha Móvel            00000000000000002017010620170205MIN  0000000+0000000000000+000000000000025+0000000000797+0000000000000000000000001+0000000003190                                    
400000000001920170228201702080295608581               2100021967024526 LM-Linha Móvel 2017010600000                                                                      000000      SUBServiços Adicionais e FacilidaSAFVIVO EMPRESAS FLEX ASSIN                +000000000010000000                                                                          
400000000002020170228201702080295608581               2100021967024526 LM-Linha Móvel 2017010600000                                                                      000000      SUBServiços Adicionais e FacilidaSAFSERVICO GESTAO                          +000000000000000000                                                                          
400000000002120170228201702080295608581               2100021967024526 LM-Linha Móvel 2017010600000                                                                      000000      SUBServiços Adicionais e FacilidaSAFPAC 100 MIN FLEX COMP                   +000000000100000000                                                                          
400000000002220170228201702080295608581               2100021967024526 LM-Linha Móvel 2017010600000                                                                      000000      SUBServiços Adicionais e FacilidaSAFPAC CORP LD ROAMING FLEX                +000000000000000000                                                                          
400000000002320170228201702080295608581               2100021967024526 LM-Linha Móvel 2017010600000                                                                      000000      SUBServiços Adicionais e FacilidaSAFPACOTE GESTAO COMPLETO                  +000000000000000000                                                                          
400000000002420170228201702080295608581               2100021967024526 LM-Linha Móvel 2017010600000                                                                      000000      SUBServiços Adicionais e FacilidaSAFINTRAGRUPO LOCAL 2.000 MINUTOS          +000000000010000000                                                                          
400000000002520170228201702080295608581               2100021967024526 LM-Linha Móvel 2017010600000                                                                      00000001    SUBServiços Adicionais e FacilidaSAFPACOTE LD 01                            +000000000000000000                                                                          
400000000002620170228201702080295608581               2100021967024526 LM-Linha Móvel 2017010600000                                                                      000000      SUBServiços Adicionais e FacilidaSAFINTERNET MOVEL 3GB EMP 4G               +000000000849000000                                                                          
100000000002702943355121    022017    20170228201702080295608700               21000AREA - 021               21967027524 SMP Serviço Móvel Pessoal              LM-Linha Móvel            00000000000000002017010620170205MIN  0000000+0000000000000+000000000000025+0000000000175+0000000000000000000000001+0000000000700                                    
400000000002820170228201702080295608700               2100021967027524 LM-Linha Móvel 2017010600000                                                                      000000      SUBServiços Adicionais e FacilidaSAFVIVO EMPRESAS FLEX ASSIN                +000000000010000000                                                                          
400000000002920170228201702080295608700               2100021967027524 LM-Linha Móvel 2017010600000                                                                      000000      SUBServiços Adicionais e FacilidaSAFSERVICO GESTAO                          +000000000000000000                                                                          
400000000003020170228201702080295608700               2100021967027524 LM-Linha Móvel 2017010600000                                                                      000000      SUBServiços Adicionais e FacilidaSAFPAC 50 MIN FLEX COMP                    +000000000050000000                                                                          
400000000003120170228201702080295608700               2100021967027524 LM-Linha Móvel 2017010600000                                                                      000000      SUBServiços Adicionais e FacilidaSAFPAC CORP LD ROAMING FLEX                +000000000000000000                                                                          
400000000003220170228201702080295608700               2100021967027524 LM-Linha Móvel 2017010600000                                                                      000000      SUBServiços Adicionais e FacilidaSAFPACOTE GESTAO COMPLETO                  +000000000000000000                                                                          
400000000003320170228201702080295608700               2100021967027524 LM-Linha Móvel 2017010600000                                                                      000000      SUBServiços Adicionais e FacilidaSAFINTRAGRUPO LOCAL 2.000 MINUTOS          +000000000010000000                                                                          
400000000003420170228201702080295608700               2100021967027524 LM-Linha Móvel 2017010600000                                                                      00000001    SUBServiços Adicionais e FacilidaSAFPACOTE LD 01                            +000000000000000000                                                                          
100000000003502943355121    022017    20170228201702080295608624               21000AREA - 021               21967084489 SMP Serviço Móvel Pessoal              LM-Linha Móvel            00000000000000002017010620170205MIN  0000000+0000000000000+000000000000025+0000000000175+0000000000000000000000001+0000000000700                                    
400000000003620170228201702080295608624               2100021967084489 LM-Linha Móvel 2017010600000                                                                      000000      SUBServiços Adicionais e FacilidaSAFVIVO EMPRESAS FLEX ASSIN                +000000000010000000                                                                          
400000000003720170228201702080295608624               2100021967084489 LM-Linha Móvel 2017010600000                                                                      000000      SUBServiços Adicionais e FacilidaSAFSERVICO GESTAO                          +000000000000000000                                                                          
400000000003820170228201702080295608624               2100021967084489 LM-Linha Móvel 2017010600000                                                                      000000      SUBServiços Adicionais e FacilidaSAFPAC 50 MIN FLEX COMP                    +000000000050000000                                                                          
400000000003920170228201702080295608624               2100021967084489 LM-Linha Móvel 2017010600000                                                                      000000      SUBServiços Adicionais e FacilidaSAFPAC CORP LD ROAMING FLEX                +000000000000000000                                                                          
400000000004020170228201702080295608624               2100021967084489 LM-Linha Móvel 2017010600000                                                                      000000      SUBServiços Adicionais e FacilidaSAFPACOTE GESTAO COMPLETO                  +000000000000000000                                                                          
400000000004120170228201702080295608624               2100021967084489 LM-Linha Móvel 2017010600000                                                                      000000      SUBServiços Adicionais e FacilidaSAFINTRAGRUPO LOCAL 2.000 MINUTOS          +000000000010000000                                                                          
400000000004220170228201702080295608624               2100021967084489 LM-Linha Móvel 2017010600000                                                                      00000001    SUBServiços Adicionais e FacilidaSAFPACOTE LD 01                            +000000000000000000                                                                          
100000000004302943355121    022017    20170228201702080295608574               21000AREA - 021               21967121724 SMP Serviço Móvel Pessoal              LM-Linha Móvel            00000000000000002017010620170205MIN  0000000+0000000000000+000000000000025+0000000000672+0000000000000000000000001+0000000002690                                    
400000000004420170228201702080295608574               2100021967121724 LM-Linha Móvel 2017010600000                                                                      000000      SUBServiços Adicionais e FacilidaSAFVIVO EMPRESAS FLEX ASSIN                +000000000010000000                                                                          
400000000004520170228201702080295608574               2100021967121724 LM-Linha Móvel 2017010600000                                                                      000000      SUBServiços Adicionais e FacilidaSAFSERVICO GESTAO                          +000000000000000000                                                                          
400000000004620170228201702080295608574               2100021967121724 LM-Linha Móvel 2017010600000                                                                      000000      SUBServiços Adicionais e FacilidaSAFPAC 100 MIN FLEX COMP                   +000000000100000000                                                                          
400000000004720170228201702080295608574               2100021967121724 LM-Linha Móvel 2017010600000                                                                      000000      SUBServiços Adicionais e FacilidaSAFPAC CORP LD ROAMING FLEX                +000000000000000000                                                                          
400000000004820170228201702080295608574               2100021967121724 LM-Linha Móvel 2017010600000                                                                      000000      SUBServiços Adicionais e FacilidaSAFPACOTE GESTAO COMPLETO                  +000000000000000000                                                                          
400000000004920170228201702080295608574               2100021967121724 LM-Linha Móvel 2017010600000                                                                      000000      SUBServiços Adicionais e FacilidaSAFINTRAGRUPO LOCAL 2.000 MINUTOS          +000000000010000000                                                                          
400000000005020170228201702080295608574               2100021967121724 LM-Linha Móvel 2017010600000                                                                      00000001    SUBServiços Adicionais e FacilidaSAFPACOTE LD 01                            +000000000000000000                                                                          
400000000005120170228201702080295608574               2100021967121724 LM-Linha Móvel 2017010600000                                                                      000000      SUBServiços Adicionais e FacilidaSAFINTERNET MOVEL 1GB EMP 4G               +000000000699000000                                                                          
100000000005202943355121    022017    20170228201702080295608888               21000AREA - 021               21967125820 SMP Serviço Móvel Pessoal              LM-Linha Móvel            00000000000000002017010620170205MIN  0000000+0000000000000+000000000000025+0000000000175+0000000000000000000000001+0000000000700                                    
400000000005320170228201702080295608888               2100021967125820 LM-Linha Móvel 2017010600000                                                                      000000      SUBServiços Adicionais e FacilidaSAFVIVO EMPRESAS FLEX ASSIN                +000000000010000000                                                                          
400000000005420170228201702080295608888               2100021967125820 LM-Linha Móvel 2017010600000                                                                      000000      SUBServiços Adicionais e FacilidaSAFSERVICO GESTAO                          +000000000000000000                                                                          
400000000005520170228201702080295608888               2100021967125820 LM-Linha Móvel 2017010600000                                                                      000000      SUBServiços Adicionais e FacilidaSAFPAC 50 MIN FLEX COMP                    +000000000050000000                                                                          
400000000005620170228201702080295608888               2100021967125820 LM-Linha Móvel 2017010600000                                                                      000000      SUBServiços Adicionais e FacilidaSAFPAC CORP LD ROAMING FLEX                +000000000000000000                                                                          
400000000005720170228201702080295608888               2100021967125820 LM-Linha Móvel 2017010600000                                                                      000000      SUBServiços Adicionais e FacilidaSAFPACOTE GESTAO COMPLETO                  +000000000000000000                                                                          
400000000005820170228201702080295608888               2100021967125820 LM-Linha Móvel 2017010600000                                                                      000000      SUBServiços Adicionais e FacilidaSAFINTRAGRUPO LOCAL 2.000 MINUTOS          +000000000010000000                                                                          
400000000005920170228201702080295608888               2100021967125820 LM-Linha Móvel 2017010600000                                                                      00000001    SUBServiços Adicionais e FacilidaSAFPACOTE LD 01                            +000000000000000000                                                                          
100000000006002943355121    022017    20170228201702080295608556               21000AREA - 021               21967150942 SMP Serviço Móvel Pessoal              LM-Linha Móvel            00000000000000002017010620170205MIN  0000000+0000000000000+000000000000025+0000000000672+0000000000000000000000001+0000000002690                                    
400000000006120170228201702080295608556               2100021967150942 LM-Linha Móvel 2017010600000                                                                      000000      SUBServiços Adicionais e FacilidaSAFVIVO EMPRESAS FLEX ASSIN                +000000000010000000                                                                          
400000000006220170228201702080295608556               2100021967150942 LM-Linha Móvel 2017010600000                                                                      000000      SUBServiços Adicionais e FacilidaSAFSERVICO GESTAO                          +000000000000000000                                                                          
400000000006320170228201702080295608556               2100021967150942 LM-Linha Móvel 2017010600000                                                                      000000      SUBServiços Adicionais e FacilidaSAFPAC 100 MIN FLEX COMP                   +000000000100000000                                                                          
400000000006420170228201702080295608556               2100021967150942 LM-Linha Móvel 2017010600000                                                                      000000      SUBServiços Adicionais e FacilidaSAFPAC CORP LD ROAMING FLEX                +000000000000000000                                                                          
400000000006520170228201702080295608556               2100021967150942 LM-Linha Móvel 2017010600000                                                                      000000      SUBServiços Adicionais e FacilidaSAFPACOTE GESTAO COMPLETO                  +000000000000000000                                                                          
400000000006620170228201702080295608556               2100021967150942 LM-Linha Móvel 2017010600000                                                                      000000      SUBServiços Adicionais e FacilidaSAFINTRAGRUPO LOCAL 2.000 MINUTOS          +000000000010000000                                                                          
400000000006720170228201702080295608556               2100021967150942 LM-Linha Móvel 2017010600000                                                                      00000001    SUBServiços Adicionais e FacilidaSAFPACOTE LD 01                            +000000000000000000                                                                          
400000000006820170228201702080295608556               2100021967150942 LM-Linha Móvel 2017010600000                                                                      000000      SUBServiços Adicionais e FacilidaSAFINTERNET MOVEL 1GB EMP 4G               +000000000699000000                                                                          
100000000006902943355121    022017    20170228201702080295608746               21000AREA - 021               21967212664 SMP Serviço Móvel Pessoal              LM-Linha Móvel            00000000000000002017010620170205MIN  0000000+0000000000000+000000000000025+0000000000175+0000000000000000000000001+0000000000700                                    
400000000007020170228201702080295608746               2100021967212664 LM-Linha Móvel 2017010600000                                                                      000000      SUBServiços Adicionais e FacilidaSAFVIVO EMPRESAS FLEX ASSIN                +000000000010000000                                                                          
400000000007120170228201702080295608746               2100021967212664 LM-Linha Móvel 2017010600000                                                                      000000      SUBServiços Adicionais e FacilidaSAFSERVICO GESTAO                          +000000000000000000                                                                          
400000000007220170228201702080295608746               2100021967212664 LM-Linha Móvel 2017010600000                                                                      000000      SUBServiços Adicionais e FacilidaSAFPAC 50 MIN FLEX COMP                    +000000000050000000                                                                          
400000000007320170228201702080295608746               2100021967212664 LM-Linha Móvel 2017010600000                                                                      000000      SUBServiços Adicionais e FacilidaSAFPAC CORP LD ROAMING FLEX                +000000000000000000                                                                          
400000000007420170228201702080295608746               2100021967212664 LM-Linha Móvel 2017010600000                                                                      000000      SUBServiços Adicionais e FacilidaSAFPACOTE GESTAO COMPLETO                  +000000000000000000                                                                          
400000000007520170228201702080295608746               2100021967212664 LM-Linha Móvel 2017010600000                                                                      000000      SUBServiços Adicionais e FacilidaSAFINTRAGRUPO LOCAL 2.000 MINUTOS          +000000000010000000                                                                          
400000000007620170228201702080295608746               2100021967212664 LM-Linha Móvel 2017010600000                                                                      00000001    SUBServiços Adicionais e FacilidaSAFPACOTE LD 01                            +000000000000000000                                                                          
100000000007702943355121    022017    20170228201702080295608507               21000AREA - 021               21967237614 SMP Serviço Móvel Pessoal              LM-Linha Móvel            00000000000000002017010620170205MIN  0000000+0000000000000+000000000000025+0000000000175+0000000000000000000000001+0000000000700                                    
400000000007820170228201702080295608507               2100021967237614 LM-Linha Móvel 2017010600000                                                                      000000      SUBServiços Adicionais e FacilidaSAFVIVO EMPRESAS FLEX ASSIN                +000000000010000000                                                                          
400000000007920170228201702080295608507               2100021967237614 LM-Linha Móvel 2017010600000                                                                      000000      SUBServiços Adicionais e FacilidaSAFSERVICO GESTAO                          +000000000000000000                                                                          
400000000008020170228201702080295608507               2100021967237614 LM-Linha Móvel 2017010600000                                                                      000000      SUBServiços Adicionais e FacilidaSAFPAC 50 MIN FLEX COMP                    +000000000050000000                                                                          
400000000008120170228201702080295608507               2100021967237614 LM-Linha Móvel 2017010600000                                                                      000000      SUBServiços Adicionais e FacilidaSAFPAC CORP LD ROAMING FLEX                +000000000000000000                                                                          
400000000008220170228201702080295608507               2100021967237614 LM-Linha Móvel 2017010600000                                                                      000000      SUBServiços Adicionais e FacilidaSAFPACOTE GESTAO COMPLETO                  +000000000000000000                                                                          
400000000008320170228201702080295608507               2100021967237614 LM-Linha Móvel 2017010600000                                                                      000000      SUBServiços Adicionais e FacilidaSAFINTRAGRUPO LOCAL 2.000 MINUTOS          +000000000010000000                                                                          
400000000008420170228201702080295608507               2100021967237614 LM-Linha Móvel 2017010600000                                                                      00000001    SUBServiços Adicionais e FacilidaSAFPACOTE LD 01                            +000000000000000000                                                                          
100000000008502943355121    022017    20170228201702080295608682               21000AREA - 021               21967261180 SMP Serviço Móvel Pessoal              LM-Linha Móvel            00000000000000002017010620170205MIN  0000000+0000000000000+000000000000025+0000000000175+0000000000000000000000001+0000000000700                                    
400000000008620170228201702080295608682               2100021967261180 LM-Linha Móvel 2017010600000                                                                      000000      SUBServiços Adicionais e FacilidaSAFVIVO EMPRESAS FLEX ASSIN                +000000000010000000                                                                          
400000000008720170228201702080295608682               2100021967261180 LM-Linha Móvel 2017010600000                                                                      000000      SUBServiços Adicionais e FacilidaSAFSERVICO GESTAO                          +000000000000000000                                                                          
400000000008820170228201702080295608682               2100021967261180 LM-Linha Móvel 2017010600000                                                                      000000      SUBServiços Adicionais e FacilidaSAFPAC 50 MIN FLEX COMP                    +000000000050000000                                                                          
400000000008920170228201702080295608682               2100021967261180 LM-Linha Móvel 2017010600000                                                                      000000      SUBServiços Adicionais e FacilidaSAFPAC CORP LD ROAMING FLEX                +000000000000000000                                                                          
400000000009020170228201702080295608682               2100021967261180 LM-Linha Móvel 2017010600000                                                                      000000      SUBServiços Adicionais e FacilidaSAFPACOTE GESTAO COMPLETO                  +000000000000000000                                                                          
400000000009120170228201702080295608682               2100021967261180 LM-Linha Móvel 2017010600000                                                                      000000      SUBServiços Adicionais e FacilidaSAFINTRAGRUPO LOCAL 2.000 MINUTOS          +000000000010000000                                                                          
400000000009220170228201702080295608682               2100021967261180 LM-Linha Móvel 2017010600000                                                                      00000001    SUBServiços Adicionais e FacilidaSAFPACOTE LD 01                            +000000000000000000                                                                          
100000000009302943355121    022017    20170228201702080295608694               21000AREA - 021               21967265463 SMP Serviço Móvel Pessoal              LM-Linha Móvel            00000000000000002017010620170205MIN  0000000+0000000000000+000000000000025+0000000000175+0000000000000000000000001+0000000000700                                    
400000000009420170228201702080295608694               2100021967265463 LM-Linha Móvel 2017010600000                                                                      000000      SUBServiços Adicionais e FacilidaSAFVIVO EMPRESAS FLEX ASSIN                +000000000010000000                                                                          
400000000009520170228201702080295608694               2100021967265463 LM-Linha Móvel 2017010600000                                                                      000000      SUBServiços Adicionais e FacilidaSAFSERVICO GESTAO                          +000000000000000000                                                                          
400000000009620170228201702080295608694               2100021967265463 LM-Linha Móvel 2017010600000                                                                      000000      SUBServiços Adicionais e FacilidaSAFPAC 50 MIN FLEX COMP                    +000000000050000000                                                                          
400000000009720170228201702080295608694               2100021967265463 LM-Linha Móvel 2017010600000                                                                      000000      SUBServiços Adicionais e FacilidaSAFPAC CORP LD ROAMING FLEX                +000000000000000000                                                                          
400000000009820170228201702080295608694               2100021967265463 LM-Linha Móvel 2017010600000                                                                      000000      SUBServiços Adicionais e FacilidaSAFPACOTE GESTAO COMPLETO                  +000000000000000000                                                                          
400000000009920170228201702080295608694               2100021967265463 LM-Linha Móvel 2017010600000                                                                      000000      SUBServiços Adicionais e FacilidaSAFINTRAGRUPO LOCAL 2.000 MINUTOS          +000000000010000000                                                                          
400000000010020170228201702080295608694               2100021967265463 LM-Linha Móvel 2017010600000                                                                      00000001    SUBServiços Adicionais e FacilidaSAFPACOTE LD 01                            +000000000000000000                                                                          
100000000010102943355121    022017    20170228201702080295608869               21000AREA - 021               21967316528 SMP Serviço Móvel Pessoal              LM-Linha Móvel            00000000000000002017010620170205MIN  0000000+0000000000000+000000000000025+0000000000175+0000000000000000000000001+0000000000700                                    
400000000010220170228201702080295608869               2100021967316528 LM-Linha Móvel 2017010600000                                                                      000000      SUBServiços Adicionais e FacilidaSAFVIVO EMPRESAS FLEX ASSIN                +000000000010000000                                                                          
400000000010320170228201702080295608869               2100021967316528 LM-Linha Móvel 2017010600000                                                                      000000      SUBServiços Adicionais e FacilidaSAFSERVICO GESTAO                          +000000000000000000                                                                          
400000000010420170228201702080295608869               2100021967316528 LM-Linha Móvel 2017010600000                                                                      000000      SUBServiços Adicionais e FacilidaSAFPAC 50 MIN FLEX COMP                    +000000000050000000                                                                          
400000000010520170228201702080295608869               2100021967316528 LM-Linha Móvel 2017010600000                                                                      000000      SUBServiços Adicionais e FacilidaSAFPAC CORP LD ROAMING FLEX                +000000000000000000                                                                          
400000000010620170228201702080295608869               2100021967316528 LM-Linha Móvel 2017010600000                                                                      000000      SUBServiços Adicionais e FacilidaSAFPACOTE GESTAO COMPLETO                  +000000000000000000                                                                          
400000000010720170228201702080295608869               2100021967316528 LM-Linha Móvel 2017010600000                                                                      000000      SUBServiços Adicionais e FacilidaSAFINTRAGRUPO LOCAL 2.000 MINUTOS          +000000000010000000                                                                          
400000000010820170228201702080295608869               2100021967316528 LM-Linha Móvel 2017010600000                                                                      00000001    SUBServiços Adicionais e FacilidaSAFPACOTE LD 01                            +000000000000000000                                                                          
100000000010902943355121    022017    20170228201702080295608792               21000AREA - 021               21967354360 SMP Serviço Móvel Pessoal              LM-Linha Móvel            00000000000000002017010620170205MIN  0000000+0000000000000+000000000000025+0000000000175+0000000000000000000000001+0000000000700                                    
400000000011020170228201702080295608792               2100021967354360 LM-Linha Móvel 2017010600000                                                                      000000      SUBServiços Adicionais e FacilidaSAFVIVO EMPRESAS FLEX ASSIN                +000000000010000000                                                                          
400000000011120170228201702080295608792               2100021967354360 LM-Linha Móvel 2017010600000                                                                      000000      SUBServiços Adicionais e FacilidaSAFSERVICO GESTAO                          +000000000000000000                                                                          
400000000011220170228201702080295608792               2100021967354360 LM-Linha Móvel 2017010600000                                                                      000000      SUBServiços Adicionais e FacilidaSAFPAC 50 MIN FLEX COMP                    +000000000050000000                                                                          
400000000011320170228201702080295608792               2100021967354360 LM-Linha Móvel 2017010600000                                                                      000000      SUBServiços Adicionais e FacilidaSAFPAC CORP LD ROAMING FLEX                +000000000000000000                                                                          
400000000011420170228201702080295608792               2100021967354360 LM-Linha Móvel 2017010600000                                                                      000000      SUBServiços Adicionais e FacilidaSAFPACOTE GESTAO COMPLETO                  +000000000000000000                                                                          
400000000011520170228201702080295608792               2100021967354360 LM-Linha Móvel 2017010600000                                                                      000000      SUBServiços Adicionais e FacilidaSAFINTRAGRUPO LOCAL 2.000 MINUTOS          +000000000010000000                                                                          
400000000011620170228201702080295608792               2100021967354360 LM-Linha Móvel 2017010600000                                                                      00000001    SUBServiços Adicionais e FacilidaSAFPACOTE LD 01                            +000000000000000000                                                                          
100000000011702943355121    022017    20170228201702080295608552               21000AREA - 021               21967387138 SMP Serviço Móvel Pessoal              LM-Linha Móvel            00000000000000002017010620170205MIN  0000000+0000000000000+000000000000025+0000000000672+0000000000000000000000001+0000000002690                                    
400000000011820170228201702080295608552               2100021967387138 LM-Linha Móvel 2017010600000                                                                      000000      SUBServiços Adicionais e FacilidaSAFVIVO EMPRESAS FLEX ASSIN                +000000000010000000                                                                          
400000000011920170228201702080295608552               2100021967387138 LM-Linha Móvel 2017010600000                                                                      000000      SUBServiços Adicionais e FacilidaSAFSERVICO GESTAO                          +000000000000000000                                                                          
400000000012020170228201702080295608552               2100021967387138 LM-Linha Móvel 2017010600000                                                                      000000      SUBServiços Adicionais e FacilidaSAFPAC 100 MIN FLEX COMP                   +000000000100000000                                                                          
400000000012120170228201702080295608552               2100021967387138 LM-Linha Móvel 2017010600000                                                                      000000      SUBServiços Adicionais e FacilidaSAFPAC CORP LD ROAMING FLEX                +000000000000000000                                                                          
400000000012220170228201702080295608552               2100021967387138 LM-Linha Móvel 2017010600000                                                                      000000      SUBServiços Adicionais e FacilidaSAFPACOTE GESTAO COMPLETO                  +000000000000000000                                                                          
400000000012320170228201702080295608552               2100021967387138 LM-Linha Móvel 2017010600000                                                                      000000      SUBServiços Adicionais e FacilidaSAFINTRAGRUPO LOCAL 2.000 MINUTOS          +000000000010000000                                                                          
400000000012420170228201702080295608552               2100021967387138 LM-Linha Móvel 2017010600000                                                                      00000001    SUBServiços Adicionais e FacilidaSAFPACOTE LD 01                            +000000000000000000                                                                          
400000000012520170228201702080295608552               2100021967387138 LM-Linha Móvel 2017010600000                                                                      000000      SUBServiços Adicionais e FacilidaSAFINTERNET MOVEL 1GB EMP 4G               +000000000699000000                                                                          
100000000012602943355121    022017    20170228201702080295608656               21000AREA - 021               21967390783 SMP Serviço Móvel Pessoal              LM-Linha Móvel            00000000000000002017010620170205MIN  0000000+0000000000000+000000000000025+0000000000175+0000000000000000000000001+0000000000700                                    
400000000012720170228201702080295608656               2100021967390783 LM-Linha Móvel 2017010600000                                                                      000000      SUBServiços Adicionais e FacilidaSAFVIVO EMPRESAS FLEX ASSIN                +000000000010000000                                                                          
400000000012820170228201702080295608656               2100021967390783 LM-Linha Móvel 2017010600000                                                                      000000      SUBServiços Adicionais e FacilidaSAFSERVICO GESTAO                          +000000000000000000                                                                          
400000000012920170228201702080295608656               2100021967390783 LM-Linha Móvel 2017010600000                                                                      000000      SUBServiços Adicionais e FacilidaSAFPAC 50 MIN FLEX COMP                    +000000000050000000                                                                          
400000000013020170228201702080295608656               2100021967390783 LM-Linha Móvel 2017010600000                                                                      000000      SUBServiços Adicionais e FacilidaSAFPAC CORP LD ROAMING FLEX                +000000000000000000                                                                          
400000000013120170228201702080295608656               2100021967390783 LM-Linha Móvel 2017010600000                                                                      000000      SUBServiços Adicionais e FacilidaSAFPACOTE GESTAO COMPLETO                  +000000000000000000                                                                          
400000000013220170228201702080295608656               2100021967390783 LM-Linha Móvel 2017010600000                                                                      000000      SUBServiços Adicionais e FacilidaSAFINTRAGRUPO LOCAL 2.000 MINUTOS          +000000000010000000                                                                          
400000000013320170228201702080295608656               2100021967390783 LM-Linha Móvel 2017010600000                                                                      00000001    SUBServiços Adicionais e FacilidaSAFPACOTE LD 01                            +000000000000000000                                                                          
100000000013402943355121    022017    20170228201702080295608868               21000AREA - 021               21967395801 SMP Serviço Móvel Pessoal              LM-Linha Móvel            00000000000000002017010620170205MIN  0000000+0000000000000+000000000000025+0000000000175+0000000000000000000000001+0000000000700                                    
400000000013520170228201702080295608868               2100021967395801 LM-Linha Móvel 2017010600000                                                                      000000      SUBServiços Adicionais e FacilidaSAFVIVO EMPRESAS FLEX ASSIN                +000000000010000000                                                                          
400000000013620170228201702080295608868               2100021967395801 LM-Linha Móvel 2017010600000                                                                      000000      SUBServiços Adicionais e FacilidaSAFSERVICO GESTAO                          +000000000000000000                                                                          
400000000013720170228201702080295608868               2100021967395801 LM-Linha Móvel 2017010600000                                                                      000000      SUBServiços Adicionais e FacilidaSAFPAC 50 MIN FLEX COMP                    +000000000050000000                                                                          
400000000013820170228201702080295608868               2100021967395801 LM-Linha Móvel 2017010600000                                                                      000000      SUBServiços Adicionais e FacilidaSAFPAC CORP LD ROAMING FLEX                +000000000000000000                                                                          
400000000013920170228201702080295608868               2100021967395801 LM-Linha Móvel 2017010600000                                                                      000000      SUBServiços Adicionais e FacilidaSAFPACOTE GESTAO COMPLETO                  +000000000000000000                                                                          
400000000014020170228201702080295608868               2100021967395801 LM-Linha Móvel 2017010600000                                                                      000000      SUBServiços Adicionais e FacilidaSAFINTRAGRUPO LOCAL 2.000 MINUTOS          +000000000010000000                                                                          
400000000014120170228201702080295608868               2100021967395801 LM-Linha Móvel 2017010600000                                                                      00000001    SUBServiços Adicionais e FacilidaSAFPACOTE LD 01                            +000000000000000000                                                                          
100000000014202943355121    022017    20170228201702080295608748               21000AREA - 021               21967398305 SMP Serviço Móvel Pessoal              LM-Linha Móvel            00000000000000002017010620170205MIN  0000000+0000000000000+000000000000025+0000000000175+0000000000000000000000001+0000000000700                                    
400000000014320170228201702080295608748               2100021967398305 LM-Linha Móvel 2017010600000                                                                      000000      SUBServiços Adicionais e FacilidaSAFVIVO EMPRESAS FLEX ASSIN                +000000000010000000                                                                          
400000000014420170228201702080295608748               2100021967398305 LM-Linha Móvel 2017010600000                                                                      000000      SUBServiços Adicionais e FacilidaSAFSERVICO GESTAO                          +000000000000000000                                                                          
400000000014520170228201702080295608748               2100021967398305 LM-Linha Móvel 2017010600000                                                                      000000      SUBServiços Adicionais e FacilidaSAFPAC 50 MIN FLEX COMP                    +000000000050000000                                                                          
400000000014620170228201702080295608748               2100021967398305 LM-Linha Móvel 2017010600000                                                                      000000      SUBServiços Adicionais e FacilidaSAFPAC CORP LD ROAMING FLEX                +000000000000000000                                                                          
400000000014720170228201702080295608748               2100021967398305 LM-Linha Móvel 2017010600000                                                                      000000      SUBServiços Adicionais e FacilidaSAFPACOTE GESTAO COMPLETO                  +000000000000000000                                                                          
400000000014820170228201702080295608748               2100021967398305 LM-Linha Móvel 2017010600000                                                                      000000      SUBServiços Adicionais e FacilidaSAFINTRAGRUPO LOCAL 2.000 MINUTOS          +000000000010000000                                                                          
400000000014920170228201702080295608748               2100021967398305 LM-Linha Móvel 2017010600000                                                                      00000001    SUBServiços Adicionais e FacilidaSAFPACOTE LD 01                            +000000000000000000                                                                          
100000000015002943355121    022017    20170228201702080295608622               21000AREA - 021               21967447892 SMP Serviço Móvel Pessoal              LM-Linha Móvel            00000000000000002017010620170205MIN  0000000+0000000000000+000000000000025+0000000000175+0000000000000000000000001+0000000000700                                    
400000000015120170228201702080295608622               2100021967447892 LM-Linha Móvel 2017010600000                                                                      000000      SUBServiços Adicionais e FacilidaSAFVIVO EMPRESAS FLEX ASSIN                +000000000010000000                                                                          
400000000015220170228201702080295608622               2100021967447892 LM-Linha Móvel 2017010600000                                                                      000000      SUBServiços Adicionais e FacilidaSAFSERVICO GESTAO                          +000000000000000000                                                                          
400000000015320170228201702080295608622               2100021967447892 LM-Linha Móvel 2017010600000                                                                      000000      SUBServiços Adicionais e FacilidaSAFPAC 50 MIN FLEX COMP                    +000000000050000000                                                                          
400000000015420170228201702080295608622               2100021967447892 LM-Linha Móvel 2017010600000                                                                      000000      SUBServiços Adicionais e FacilidaSAFPAC CORP LD ROAMING FLEX                +000000000000000000                                                                          
400000000015520170228201702080295608622               2100021967447892 LM-Linha Móvel 2017010600000                                                                      000000      SUBServiços Adicionais e FacilidaSAFPACOTE GESTAO COMPLETO                  +000000000000000000                                                                          
400000000015620170228201702080295608622               2100021967447892 LM-Linha Móvel 2017010600000                                                                      000000      SUBServiços Adicionais e FacilidaSAFINTRAGRUPO LOCAL 2.000 MINUTOS          +000000000010000000                                                                          
400000000015720170228201702080295608622               2100021967447892 LM-Linha Móvel 2017010600000                                                                      00000001    SUBServiços Adicionais e FacilidaSAFPACOTE LD 01                            +000000000000000000                                                                          
100000000015802943355121    022017    20170228201702080295608789               21000AREA - 021               21967452228 SMP Serviço Móvel Pessoal              LM-Linha Móvel            00000000000000002017010620170205MIN  0000000+0000000000000+000000000000025+0000000000175+0000000000000000000000001+0000000000700                                    
400000000015920170228201702080295608789               2100021967452228 LM-Linha Móvel 2017010600000                                                                      000000      SUBServiços Adicionais e FacilidaSAFVIVO EMPRESAS FLEX ASSIN                +000000000010000000                                                                          
400000000016020170228201702080295608789               2100021967452228 LM-Linha Móvel 2017010600000                                                                      000000      SUBServiços Adicionais e FacilidaSAFSERVICO GESTAO                          +000000000000000000                                                                          
400000000016120170228201702080295608789               2100021967452228 LM-Linha Móvel 2017010600000                                                                      000000      SUBServiços Adicionais e FacilidaSAFPAC 50 MIN FLEX COMP                    +000000000050000000                                                                          
400000000016220170228201702080295608789               2100021967452228 LM-Linha Móvel 2017010600000                                                                      000000      SUBServiços Adicionais e FacilidaSAFPAC CORP LD ROAMING FLEX                +000000000000000000                                                                          
400000000016320170228201702080295608789               2100021967452228 LM-Linha Móvel 2017010600000                                                                      000000      SUBServiços Adicionais e FacilidaSAFPACOTE GESTAO COMPLETO                  +000000000000000000                                                                          
400000000016420170228201702080295608789               2100021967452228 LM-Linha Móvel 2017010600000                                                                      000000      SUBServiços Adicionais e FacilidaSAFINTRAGRUPO LOCAL 2.000 MINUTOS          +000000000010000000                                                                          
400000000016520170228201702080295608789               2100021967452228 LM-Linha Móvel 2017010600000                                                                      00000001    SUBServiços Adicionais e FacilidaSAFPACOTE LD 01                            +000000000000000000                                                                          
100000000016602943355121    022017    20170228201702080295608665               21000AREA - 021               21967653878 SMP Serviço Móvel Pessoal              LM-Linha Móvel            00000000000000002017010620170205MIN  0000000+0000000000000+000000000000025+0000000000672+0000000000000000000000001+0000000002690                                    
400000000016720170228201702080295608665               2100021967653878 LM-Linha Móvel 2017010600000                                                                      000000      SUBServiços Adicionais e FacilidaSAFVIVO EMPRESAS FLEX ASSIN                +000000000010000000                                                                          
400000000016820170228201702080295608665               2100021967653878 LM-Linha Móvel 2017010600000                                                                      000000      SUBServiços Adicionais e FacilidaSAFSERVICO GESTAO                          +000000000000000000                                                                          
400000000016920170228201702080295608665               2100021967653878 LM-Linha Móvel 2017010600000                                                                      000000      SUBServiços Adicionais e FacilidaSAFPAC 100 MIN FLEX COMP                   +000000000100000000                                                                          
400000000017020170228201702080295608665               2100021967653878 LM-Linha Móvel 2017010600000                                                                      000000      SUBServiços Adicionais e FacilidaSAFPAC CORP LD ROAMING FLEX                +000000000000000000                                                                          
400000000017120170228201702080295608665               2100021967653878 LM-Linha Móvel 2017010600000                                                                      000000      SUBServiços Adicionais e FacilidaSAFPACOTE GESTAO COMPLETO                  +000000000000000000                                                                          
400000000017220170228201702080295608665               2100021967653878 LM-Linha Móvel 2017010600000                                                                      000000      SUBServiços Adicionais e FacilidaSAFINTRAGRUPO LOCAL 2.000 MINUTOS          +000000000010000000                                                                          
400000000017320170228201702080295608665               2100021967653878 LM-Linha Móvel 2017010600000                                                                      00000001    SUBServiços Adicionais e FacilidaSAFPACOTE LD 01                            +000000000000000000                                                                          
400000000017420170228201702080295608665               2100021967653878 LM-Linha Móvel 2017010600000                                                                      000000      SUBServiços Adicionais e FacilidaSAFINTERNET MOVEL 1GB EMP 4G               +000000000699000000                                                                          
100000000017502943355121    022017    20170228201702080295608816               21000AREA - 021               21967664588 SMP Serviço Móvel Pessoal              LM-Linha Móvel            00000000000000002017010620170205MIN  0000000+0000000000000+000000000000025+0000000000175+0000000000000000000000001+0000000000700                                    
400000000017620170228201702080295608816               2100021967664588 LM-Linha Móvel 2017010600000                                                                      000000      SUBServiços Adicionais e FacilidaSAFVIVO EMPRESAS FLEX ASSIN                +000000000010000000                                                                          
400000000017720170228201702080295608816               2100021967664588 LM-Linha Móvel 2017010600000                                                                      000000      SUBServiços Adicionais e FacilidaSAFSERVICO GESTAO                          +000000000000000000                                                                          
400000000017820170228201702080295608816               2100021967664588 LM-Linha Móvel 2017010600000                                                                      000000      SUBServiços Adicionais e FacilidaSAFPAC 50 MIN FLEX COMP                    +000000000050000000                                                                          
400000000017920170228201702080295608816               2100021967664588 LM-Linha Móvel 2017010600000                                                                      000000      SUBServiços Adicionais e FacilidaSAFPAC CORP LD ROAMING FLEX                +000000000000000000                                                                          
400000000018020170228201702080295608816               2100021967664588 LM-Linha Móvel 2017010600000                                                                      000000      SUBServiços Adicionais e FacilidaSAFPACOTE GESTAO COMPLETO                  +000000000000000000                                                                          
400000000018120170228201702080295608816               2100021967664588 LM-Linha Móvel 2017010600000                                                                      000000      SUBServiços Adicionais e FacilidaSAFINTRAGRUPO LOCAL 2.000 MINUTOS          +000000000010000000                                                                          
400000000018220170228201702080295608816               2100021967664588 LM-Linha Móvel 2017010600000                                                                      00000001    SUBServiços Adicionais e FacilidaSAFPACOTE LD 01                            +000000000000000000                                                                          
100000000018302943355121    022017    20170228201702080295608512               21000AREA - 021               21967683164 SMP Serviço Móvel Pessoal              LM-Linha Móvel            00000000000000002017010620170205MIN  0000000+0000000000000+000000000000025+0000000000175+0000000000000000000000001+0000000000700                                    
400000000018420170228201702080295608512               2100021967683164 LM-Linha Móvel 2017010600000                                                                      000000      SUBServiços Adicionais e FacilidaSAFVIVO EMPRESAS FLEX ASSIN                +000000000010000000                                                                          
400000000018520170228201702080295608512               2100021967683164 LM-Linha Móvel 2017010600000                                                                      000000      SUBServiços Adicionais e FacilidaSAFSERVICO GESTAO                          +000000000000000000                                                                          
400000000018620170228201702080295608512               2100021967683164 LM-Linha Móvel 2017010600000                                                                      000000      SUBServiços Adicionais e FacilidaSAFPAC 50 MIN FLEX COMP                    +000000000050000000                                                                          
400000000018720170228201702080295608512               2100021967683164 LM-Linha Móvel 2017010600000                                                                      000000      SUBServiços Adicionais e FacilidaSAFPAC CORP LD ROAMING FLEX                +000000000000000000                                                                          
400000000018820170228201702080295608512               2100021967683164 LM-Linha Móvel 2017010600000                                                                      000000      SUBServiços Adicionais e FacilidaSAFPACOTE GESTAO COMPLETO                  +000000000000000000                                                                          
400000000018920170228201702080295608512               2100021967683164 LM-Linha Móvel 2017010600000                                                                      000000      SUBServiços Adicionais e FacilidaSAFINTRAGRUPO LOCAL 2.000 MINUTOS          +000000000010000000                                                                          
400000000019020170228201702080295608512               2100021967683164 LM-Linha Móvel 2017010600000                                                                      00000001    SUBServiços Adicionais e FacilidaSAFPACOTE LD 01                            +000000000000000000                                                                          
100000000019102943355121    022017    20170228201702080295608738               21000AREA - 021               21967752996 SMP Serviço Móvel Pessoal              LM-Linha Móvel            00000000000000002017010620170205MIN  0000000+0000000000000+000000000000025+0000000000175+0000000000000000000000001+0000000000700                                    
400000000019220170228201702080295608738               2100021967752996 LM-Linha Móvel 2017010600000                                                                      000000      SUBServiços Adicionais e FacilidaSAFVIVO EMPRESAS FLEX ASSIN                +000000000010000000                                                                          
400000000019320170228201702080295608738               2100021967752996 LM-Linha Móvel 2017010600000                                                                      000000      SUBServiços Adicionais e FacilidaSAFSERVICO GESTAO                          +000000000000000000                                                                          
400000000019420170228201702080295608738               2100021967752996 LM-Linha Móvel 2017010600000                                                                      000000      SUBServiços Adicionais e FacilidaSAFPAC 50 MIN FLEX COMP                    +000000000050000000                                                                          
400000000019520170228201702080295608738               2100021967752996 LM-Linha Móvel 2017010600000                                                                      000000      SUBServiços Adicionais e FacilidaSAFPAC CORP LD ROAMING FLEX                +000000000000000000                                                                          
400000000019620170228201702080295608738               2100021967752996 LM-Linha Móvel 2017010600000                                                                      000000      SUBServiços Adicionais e FacilidaSAFPACOTE GESTAO COMPLETO                  +000000000000000000                                                                          
400000000019720170228201702080295608738               2100021967752996 LM-Linha Móvel 2017010600000                                                                      000000      SUBServiços Adicionais e FacilidaSAFINTRAGRUPO LOCAL 2.000 MINUTOS          +000000000010000000                                                                          
400000000019820170228201702080295608738               2100021967752996 LM-Linha Móvel 2017010600000                                                                      00000001    SUBServiços Adicionais e FacilidaSAFPACOTE LD 01                            +000000000000000000                                                                          
100000000019902943355121    022017    20170228201702080295608750               21000AREA - 021               21967788277 SMP Serviço Móvel Pessoal              LM-Linha Móvel            00000000000000002017010620170205MIN  0000000+0000000000000+000000000000025+0000000000175+0000000000000000000000001+0000000000700                                    
400000000020020170228201702080295608750               2100021967788277 LM-Linha Móvel 2017010600000                                                                      000000      SUBServiços Adicionais e FacilidaSAFVIVO EMPRESAS FLEX ASSIN                +000000000010000000                                                                          
400000000020120170228201702080295608750               2100021967788277 LM-Linha Móvel 2017010600000                                                                      000000      SUBServiços Adicionais e FacilidaSAFSERVICO GESTAO                          +000000000000000000                                                                          
400000000020220170228201702080295608750               2100021967788277 LM-Linha Móvel 2017010600000                                                                      000000      SUBServiços Adicionais e FacilidaSAFPAC 50 MIN FLEX COMP                    +000000000050000000                                                                          
400000000020320170228201702080295608750               2100021967788277 LM-Linha Móvel 2017010600000                                                                      000000      SUBServiços Adicionais e FacilidaSAFPAC CORP LD ROAMING FLEX                +000000000000000000                                                                          
400000000020420170228201702080295608750               2100021967788277 LM-Linha Móvel 2017010600000                                                                      000000      SUBServiços Adicionais e FacilidaSAFPACOTE GESTAO COMPLETO                  +000000000000000000                                                                          
400000000020520170228201702080295608750               2100021967788277 LM-Linha Móvel 2017010600000                                                                      000000      SUBServiços Adicionais e FacilidaSAFINTRAGRUPO LOCAL 2.000 MINUTOS          +000000000010000000                                                                          
400000000020620170228201702080295608750               2100021967788277 LM-Linha Móvel 2017010600000                                                                      00000001    SUBServiços Adicionais e FacilidaSAFPACOTE LD 01                            +000000000000000000                                                                          
100000000020702943355121    022017    20170228201702080295608587               21000AREA - 021               21967792066 SMP Serviço Móvel Pessoal              LM-Linha Móvel            00000000000000002017010620170205MIN  0000000+0000000000000+000000000000025+0000000000672+0000000000000000000000001+0000000002690                                    
400000000020820170228201702080295608587               2100021967792066 LM-Linha Móvel 2017010600000                                                                      000000      SUBServiços Adicionais e FacilidaSAFVIVO EMPRESAS FLEX ASSIN                +000000000010000000                                                                          
400000000020920170228201702080295608587               2100021967792066 LM-Linha Móvel 2017010600000                                                                      000000      SUBServiços Adicionais e FacilidaSAFSERVICO GESTAO                          +000000000000000000                                                                          
400000000021020170228201702080295608587               2100021967792066 LM-Linha Móvel 2017010600000                                                                      000000      SUBServiços Adicionais e FacilidaSAFPAC 100 MIN FLEX COMP                   +000000000100000000                                                                          
400000000021120170228201702080295608587               2100021967792066 LM-Linha Móvel 2017010600000                                                                      000000      SUBServiços Adicionais e FacilidaSAFPAC CORP LD ROAMING FLEX                +000000000000000000                                                                          
400000000021220170228201702080295608587               2100021967792066 LM-Linha Móvel 2017010600000                                                                      000000      SUBServiços Adicionais e FacilidaSAFPACOTE GESTAO COMPLETO                  +000000000000000000                                                                          
400000000021320170228201702080295608587               2100021967792066 LM-Linha Móvel 2017010600000                                                                      000000      SUBServiços Adicionais e FacilidaSAFINTRAGRUPO LOCAL 2.000 MINUTOS          +000000000010000000                                                                          
400000000021420170228201702080295608587               2100021967792066 LM-Linha Móvel 2017010600000                                                                      00000001    SUBServiços Adicionais e FacilidaSAFPACOTE LD 01                            +000000000000000000                                                                          
400000000021520170228201702080295608587               2100021967792066 LM-Linha Móvel 2017010600000                                                                      000000      SUBServiços Adicionais e FacilidaSAFINTERNET MOVEL 1GB EMP 4G               +000000000699000000                                                                          
100000000021602943355121    022017    20170228201702080295608523               21000AREA - 021               21967845699 SMP Serviço Móvel Pessoal              LM-Linha Móvel            00000000000000002017010620170205MIN  0000000+0000000000000+000000000000025+0000000000175+0000000000000000000000001+0000000000700                                    
400000000021720170228201702080295608523               2100021967845699 LM-Linha Móvel 2017010600000                                                                      000000      SUBServiços Adicionais e FacilidaSAFVIVO EMPRESAS FLEX ASSIN                +000000000010000000                                                                          
400000000021820170228201702080295608523               2100021967845699 LM-Linha Móvel 2017010600000                                                                      000000      SUBServiços Adicionais e FacilidaSAFSERVICO GESTAO                          +000000000000000000                                                                          
400000000021920170228201702080295608523               2100021967845699 LM-Linha Móvel 2017010600000                                                                      000000      SUBServiços Adicionais e FacilidaSAFPAC 50 MIN FLEX COMP                    +000000000050000000                                                                          
400000000022020170228201702080295608523               2100021967845699 LM-Linha Móvel 2017010600000                                                                      000000      SUBServiços Adicionais e FacilidaSAFPAC CORP LD ROAMING FLEX                +000000000000000000                                                                          
400000000022120170228201702080295608523               2100021967845699 LM-Linha Móvel 2017010600000                                                                      000000      SUBServiços Adicionais e FacilidaSAFPACOTE GESTAO COMPLETO                  +000000000000000000                                                                          
400000000022220170228201702080295608523               2100021967845699 LM-Linha Móvel 2017010600000                                                                      000000      SUBServiços Adicionais e FacilidaSAFINTRAGRUPO LOCAL 2.000 MINUTOS          +000000000010000000                                                                          
400000000022320170228201702080295608523               2100021967845699 LM-Linha Móvel 2017010600000                                                                      00000001    SUBServiços Adicionais e FacilidaSAFPACOTE LD 01                            +000000000000000000                                                                          
100000000022402943355121    022017    20170228201702080295608809               21000AREA - 021               21971000455 SMP Serviço Móvel Pessoal              LM-Linha Móvel            00000000000000002017010620170205MIN  0000000+0000000000000+000000000000025+0000000000175+0000000000000000000000001+0000000000700                                    
400000000022520170228201702080295608809               2100021971000455 LM-Linha Móvel 2017010600000                                                                      000000      SUBServiços Adicionais e FacilidaSAFVIVO EMPRESAS FLEX ASSIN                +000000000010000000                                                                          
400000000022620170228201702080295608809               2100021971000455 LM-Linha Móvel 2017010600000                                                                      000000      SUBServiços Adicionais e FacilidaSAFSERVICO GESTAO                          +000000000000000000                                                                          
400000000022720170228201702080295608809               2100021971000455 LM-Linha Móvel 2017010600000                                                                      000000      SUBServiços Adicionais e FacilidaSAFPAC 50 MIN FLEX COMP                    +000000000050000000                                                                          
400000000022820170228201702080295608809               2100021971000455 LM-Linha Móvel 2017010600000                                                                      000000      SUBServiços Adicionais e FacilidaSAFPAC CORP LD ROAMING FLEX                +000000000000000000                                                                          
400000000022920170228201702080295608809               2100021971000455 LM-Linha Móvel 2017010600000                                                                      000000      SUBServiços Adicionais e FacilidaSAFPACOTE GESTAO COMPLETO                  +000000000000000000                                                                          
400000000023020170228201702080295608809               2100021971000455 LM-Linha Móvel 2017010600000                                                                      000000      SUBServiços Adicionais e FacilidaSAFINTRAGRUPO LOCAL 2.000 MINUTOS          +000000000010000000                                                                          
400000000023120170228201702080295608809               2100021971000455 LM-Linha Móvel 2017010600000                                                                      00000001    SUBServiços Adicionais e FacilidaSAFPACOTE LD 01                            +000000000000000000                                                                          
100000000023202943355121    022017    20170228201702080295608821               21000AREA - 021               21971065311 SMP Serviço Móvel Pessoal              LM-Linha Móvel            00000000000000002017010620170205MIN  0000000+0000000000000+000000000000025+0000000000175+0000000000000000000000001+0000000000700                                    
400000000023320170228201702080295608821               2100021971065311 LM-Linha Móvel 2017010600000                                                                      000000      SUBServiços Adicionais e FacilidaSAFVIVO EMPRESAS FLEX ASSIN                +000000000010000000                                                                          
400000000023420170228201702080295608821               2100021971065311 LM-Linha Móvel 2017010600000                                                                      000000      SUBServiços Adicionais e FacilidaSAFSERVICO GESTAO                          +000000000000000000                                                                          
400000000023520170228201702080295608821               2100021971065311 LM-Linha Móvel 2017010600000                                                                      000000      SUBServiços Adicionais e FacilidaSAFPAC 50 MIN FLEX COMP                    +000000000050000000                                                                          
400000000023620170228201702080295608821               2100021971065311 LM-Linha Móvel 2017010600000                                                                      000000      SUBServiços Adicionais e FacilidaSAFPAC CORP LD ROAMING FLEX                +000000000000000000                                                                          
400000000023720170228201702080295608821               2100021971065311 LM-Linha Móvel 2017010600000                                                                      000000      SUBServiços Adicionais e FacilidaSAFPACOTE GESTAO COMPLETO                  +000000000000000000                                                                          
400000000023820170228201702080295608821               2100021971065311 LM-Linha Móvel 2017010600000                                                                      000000      SUBServiços Adicionais e FacilidaSAFINTRAGRUPO LOCAL 2.000 MINUTOS          +000000000010000000                                                                          
400000000023920170228201702080295608821               2100021971065311 LM-Linha Móvel 2017010600000                                                                      00000001    SUBServiços Adicionais e FacilidaSAFPACOTE LD 01                            +000000000000000000                                                                          
100000000024002943355121    022017    20170228201702080295608765               21000AREA - 021               21971078834 SMP Serviço Móvel Pessoal              LM-Linha Móvel            00000000000000002017010620170205MIN  0000000+0000000000000+000000000000025+0000000000175+0000000000000000000000001+0000000000700                                    
400000000024120170228201702080295608765               2100021971078834 LM-Linha Móvel 2017010600000                                                                      000000      SUBServiços Adicionais e FacilidaSAFVIVO EMPRESAS FLEX ASSIN                +000000000010000000                                                                          
400000000024220170228201702080295608765               2100021971078834 LM-Linha Móvel 2017010600000                                                                      000000      SUBServiços Adicionais e FacilidaSAFSERVICO GESTAO                          +000000000000000000                                                                          
400000000024320170228201702080295608765               2100021971078834 LM-Linha Móvel 2017010600000                                                                      000000      SUBServiços Adicionais e FacilidaSAFPAC 50 MIN FLEX COMP                    +000000000050000000                                                                          
400000000024420170228201702080295608765               2100021971078834 LM-Linha Móvel 2017010600000                                                                      000000      SUBServiços Adicionais e FacilidaSAFPAC CORP LD ROAMING FLEX                +000000000000000000                                                                          
400000000024520170228201702080295608765               2100021971078834 LM-Linha Móvel 2017010600000                                                                      000000      SUBServiços Adicionais e FacilidaSAFPACOTE GESTAO COMPLETO                  +000000000000000000                                                                          
400000000024620170228201702080295608765               2100021971078834 LM-Linha Móvel 2017010600000                                                                      000000      SUBServiços Adicionais e FacilidaSAFINTRAGRUPO LOCAL 2.000 MINUTOS          +000000000010000000                                                                          
400000000024720170228201702080295608765               2100021971078834 LM-Linha Móvel 2017010600000                                                                      00000001    SUBServiços Adicionais e FacilidaSAFPACOTE LD 01                            +000000000000000000                                                                          
100000000024802943355121    022017    20170228201702080295608806               21000AREA - 021               21971085900 SMP Serviço Móvel Pessoal              LM-Linha Móvel            00000000000000002017010620170205MIN  0000000+0000000000000+000000000000025+0000000000175+0000000000000000000000001+0000000000700                                    
400000000024920170228201702080295608806               2100021971085900 LM-Linha Móvel 2017010600000                                                                      000000      SUBServiços Adicionais e FacilidaSAFVIVO EMPRESAS FLEX ASSIN                +000000000010000000                                                                          
400000000025020170228201702080295608806               2100021971085900 LM-Linha Móvel 2017010600000                                                                      000000      SUBServiços Adicionais e FacilidaSAFSERVICO GESTAO                          +000000000000000000                                                                          
400000000025120170228201702080295608806               2100021971085900 LM-Linha Móvel 2017010600000                                                                      000000      SUBServiços Adicionais e FacilidaSAFPAC 50 MIN FLEX COMP                    +000000000050000000                                                                          
400000000025220170228201702080295608806               2100021971085900 LM-Linha Móvel 2017010600000                                                                      000000      SUBServiços Adicionais e FacilidaSAFPAC CORP LD ROAMING FLEX                +000000000000000000                                                                          
400000000025320170228201702080295608806               2100021971085900 LM-Linha Móvel 2017010600000                                                                      000000      SUBServiços Adicionais e FacilidaSAFPACOTE GESTAO COMPLETO                  +000000000000000000                                                                          
400000000025420170228201702080295608806               2100021971085900 LM-Linha Móvel 2017010600000                                                                      000000      SUBServiços Adicionais e FacilidaSAFINTRAGRUPO LOCAL 2.000 MINUTOS          +000000000010000000                                                                          
400000000025520170228201702080295608806               2100021971085900 LM-Linha Móvel 2017010600000                                                                      00000001    SUBServiços Adicionais e FacilidaSAFPACOTE LD 01                            +000000000000000000                                                                          
100000000025602943355121    022017    20170228201702080295608768               21000AREA - 021               21971089429 SMP Serviço Móvel Pessoal              LM-Linha Móvel            00000000000000002017010620170205MIN  0000000+0000000000000+000000000000025+0000000000175+0000000000000000000000001+0000000000700                                    
400000000025720170228201702080295608768               2100021971089429 LM-Linha Móvel 2017010600000                                                                      000000      SUBServiços Adicionais e FacilidaSAFVIVO EMPRESAS FLEX ASSIN                +000000000010000000                                                                          
400000000025820170228201702080295608768               2100021971089429 LM-Linha Móvel 2017010600000                                                                      000000      SUBServiços Adicionais e FacilidaSAFSERVICO GESTAO                          +000000000000000000                                                                          
400000000025920170228201702080295608768               2100021971089429 LM-Linha Móvel 2017010600000                                                                      000000      SUBServiços Adicionais e FacilidaSAFPAC 50 MIN FLEX COMP                    +000000000050000000                                                                          
400000000026020170228201702080295608768               2100021971089429 LM-Linha Móvel 2017010600000                                                                      000000      SUBServiços Adicionais e FacilidaSAFPAC CORP LD ROAMING FLEX                +000000000000000000                                                                          
400000000026120170228201702080295608768               2100021971089429 LM-Linha Móvel 2017010600000                                                                      000000      SUBServiços Adicionais e FacilidaSAFPACOTE GESTAO COMPLETO                  +000000000000000000                                                                          
400000000026220170228201702080295608768               2100021971089429 LM-Linha Móvel 2017010600000                                                                      000000      SUBServiços Adicionais e FacilidaSAFINTRAGRUPO LOCAL 2.000 MINUTOS          +000000000010000000                                                                          
400000000026320170228201702080295608768               2100021971089429 LM-Linha Móvel 2017010600000                                                                      00000001    SUBServiços Adicionais e FacilidaSAFPACOTE LD 01                            +000000000000000000                                                                          
100000000026402943355121    022017    20170228201702080295608791               21000AREA - 021               21971197917 SMP Serviço Móvel Pessoal              LM-Linha Móvel            00000000000000002017010620170205MIN  0000000+0000000000000+000000000000025+0000000000175+0000000000000000000000001+0000000000700                                    
400000000026520170228201702080295608791               2100021971197917 LM-Linha Móvel 2017010600000                                                                      000000      SUBServiços Adicionais e FacilidaSAFVIVO EMPRESAS FLEX ASSIN                +000000000010000000                                                                          
400000000026620170228201702080295608791               2100021971197917 LM-Linha Móvel 2017010600000                                                                      000000      SUBServiços Adicionais e FacilidaSAFSERVICO GESTAO                          +000000000000000000                                                                          
400000000026720170228201702080295608791               2100021971197917 LM-Linha Móvel 2017010600000                                                                      000000      SUBServiços Adicionais e FacilidaSAFPAC 50 MIN FLEX COMP                    +000000000050000000                                                                          
400000000026820170228201702080295608791               2100021971197917 LM-Linha Móvel 2017010600000                                                                      000000      SUBServiços Adicionais e FacilidaSAFPAC CORP LD ROAMING FLEX                +000000000000000000                                                                          
400000000026920170228201702080295608791               2100021971197917 LM-Linha Móvel 2017010600000                                                                      000000      SUBServiços Adicionais e FacilidaSAFPACOTE GESTAO COMPLETO                  +000000000000000000                                                                          
400000000027020170228201702080295608791               2100021971197917 LM-Linha Móvel 2017010600000                                                                      000000      SUBServiços Adicionais e FacilidaSAFINTRAGRUPO LOCAL 2.000 MINUTOS          +000000000010000000                                                                          
400000000027120170228201702080295608791               2100021971197917 LM-Linha Móvel 2017010600000                                                                      00000001    SUBServiços Adicionais e FacilidaSAFPACOTE LD 01                            +000000000000000000                                                                          
100000000027202943355121    022017    20170228201702080295608551               21000AREA - 021               21971212564 SMP Serviço Móvel Pessoal              LM-Linha Móvel            00000000000000002017010620170205MIN  0000000+0000000000000+000000000000025+0000000000175+0000000000000000000000001+0000000000700                                    
400000000027320170228201702080295608551               2100021971212564 LM-Linha Móvel 2017010600000                                                                      000000      SUBServiços Adicionais e FacilidaSAFVIVO EMPRESAS FLEX ASSIN                +000000000010000000                                                                          
400000000027420170228201702080295608551               2100021971212564 LM-Linha Móvel 2017010600000                                                                      000000      SUBServiços Adicionais e FacilidaSAFSERVICO GESTAO                          +000000000000000000                                                                          
400000000027520170228201702080295608551               2100021971212564 LM-Linha Móvel 2017010600000                                                                      000000      SUBServiços Adicionais e FacilidaSAFPAC 50 MIN FLEX COMP                    +000000000050000000                                                                          
400000000027620170228201702080295608551               2100021971212564 LM-Linha Móvel 2017010600000                                                                      000000      SUBServiços Adicionais e FacilidaSAFPAC CORP LD ROAMING FLEX                +000000000000000000                                                                          
400000000027720170228201702080295608551               2100021971212564 LM-Linha Móvel 2017010600000                                                                      000000      SUBServiços Adicionais e FacilidaSAFPACOTE GESTAO COMPLETO                  +000000000000000000                                                                          
400000000027820170228201702080295608551               2100021971212564 LM-Linha Móvel 2017010600000                                                                      000000      SUBServiços Adicionais e FacilidaSAFINTRAGRUPO LOCAL 2.000 MINUTOS          +000000000010000000                                                                          
400000000027920170228201702080295608551               2100021971212564 LM-Linha Móvel 2017010600000                                                                      00000001    SUBServiços Adicionais e FacilidaSAFPACOTE LD 01                            +000000000000000000                                                                          
100000000028002943355121    022017    20170228201702080295608637               21000AREA - 021               21971254271 SMP Serviço Móvel Pessoal              LM-Linha Móvel            00000000000000002017010620170205MIN  0000000+0000000000000+000000000000025+0000000000175+0000000000000000000000001+0000000000700                                    
400000000028120170228201702080295608637               2100021971254271 LM-Linha Móvel 2017010600000                                                                      000000      SUBServiços Adicionais e FacilidaSAFVIVO EMPRESAS FLEX ASSIN                +000000000010000000                                                                          
400000000028220170228201702080295608637               2100021971254271 LM-Linha Móvel 2017010600000                                                                      000000      SUBServiços Adicionais e FacilidaSAFSERVICO GESTAO                          +000000000000000000                                                                          
400000000028320170228201702080295608637               2100021971254271 LM-Linha Móvel 2017010600000                                                                      000000      SUBServiços Adicionais e FacilidaSAFPAC 50 MIN FLEX COMP                    +000000000050000000                                                                          
400000000028420170228201702080295608637               2100021971254271 LM-Linha Móvel 2017010600000                                                                      000000      SUBServiços Adicionais e FacilidaSAFPAC CORP LD ROAMING FLEX                +000000000000000000                                                                          
